:020000040800F2
:100000000050002085230008ED200008EF200008A4
:1000100000000000000000000000000000000000E0
:10002000000000000000000000000000F1200008B7
:100030000000000000000000F3200008F520000888
:10004000D5230008D5230008FD200008D52300088B
:10005000D52300080D210008D52300081D21000824
:10006000D5230008D523000831210008D523000836
:10007000D5230008D5230008D5230008D523000880
:10008000D5230008D5230008D52300080000000070
:10009000D5230008D5230008D5230008D523000860
:1000A000D5230008D5230008D523000849210008DE
:1000B00059210008D523000800000000D5230008BE
:1000C00010B5064C2378002B07D1054B002B02D02E
:1000D000044800E000BF0123237010BD040000208D
:1000E0000000000030240008044B10B5002B03D0A2
:1000F0000349044800E000BF10BDC04600000000F6
:10010000080000203024000802B471464908490064
:10011000095C49008E4402BC7047C04603B4714676
:10012000490840004900095E49008E4403BC7047FD
:10013000002243088B4274D303098B425FD3030A26
:100140008B4244D3030B8B4228D3030C8B420DD339
:10015000FF22090212BA030C8B4202D312120902C7
:1001600065D0030B8B4219D300E0090AC30B8B4205
:1001700001D3CB03C01A5241830B8B4201D38B03B3
:10018000C01A5241430B8B4201D34B03C01A524158
:10019000030B8B4201D30B03C01A5241C30A8B429B
:1001A00001D3CB02C01A5241830A8B4201D38B0286
:1001B000C01A5241430A8B4201D34B02C01A52412A
:1001C000030A8B4201D30B02C01A5241CDD2C3099C
:1001D0008B4201D3CB01C01A524183098B4201D318
:1001E0008B01C01A524143098B4201D34B01C01A03
:1001F000524103098B4201D30B01C01A5241C3087B
:100200008B4201D3CB00C01A524183088B4201D3E9
:100210008B00C01A524143088B4201D34B00C01AD5
:100220005241411A00D20146524110467047FFE741
:1002300001B5002000F006F802BDC0460029F7D045
:1002400076E770477047C046002B11D1002A0FD1C6
:10025000002900D1002802D00021C943081C07B49E
:10026000024802A14018029003BDC046D9FFFFFF1B
:1002700003B4684601B5029800F006F8019B9E465B
:1002800002B00CBC7047C046F0B557464E464546D6
:10029000DE46E0B5040083B00D00924699468B42DD
:1002A0002FD82CD04946504600F0AEF82900060061
:1002B000200000F0A9F8331A9846203B9B4600D551
:1002C00074E053465A4693401F00534642469340BB
:1002D0001E00AF4229D826D05B46A41BBD41002B8F
:1002E00000DA79E0002200230092019301235A46AC
:1002F00093400193012342469340009319E08242C8
:10030000D0D900220023009201930C9B002B01D036
:100310001C605D600098019903B03CBC9046994612
:10032000A246AB46F0BDA342D6D9002200230092DC
:1003300001934346002BE8D0FB0772081A43464658
:100340007B080EE0AB4201D1A2420CD8A41A9D4119
:10035000012024196D410021013E24184D41002E39
:1003600006D0AB42EED9013E24196D41002EF8D1E2
:100370005B460098019900196941002B22DB2B0094
:100380005A46D3402A004446E2401C005B46150012
:10039000002B2CDB26009E40330026004746BE4043
:1003A0003200801A994100900191AEE74246202325
:1003B0009B1A5246DA40414613004A468A401700CB
:1003C0001F4382E7424620239B1A2A0046469A4052
:1003D0002300F3401343D5E74246202300219B1A14
:1003E0000022009101920122DA40019282E7424606
:1003F000202326009B1ADE402F00B4469740664615
:100400003B003343C9E7C04610B5002903D100F0D3
:1004100007F8203002E0081C00F002F810BDC046CA
:100420001C2101231B04984201D3000C10391B0A24
:10043000984201D3000A08391B09984201D30009E8
:10044000043902A2105C40187047C046040302023F
:10045000010101010000000000000000FA210A4B28
:1004600070B5890005001868FFF762FE00F06AF8B1
:1004700004000120002C05D102382200290000F0E0
:1004800027F8200070BDC046000000204023084A25
:1004900010B5116800200B431360FFF7DFFF041E47
:1004A00003D101F015FE200010BD0124FBE7C0467A
:1004B00000200240024A1368013313607047C046AF
:1004C00020000020014B18687047C0462000002023
:1004D00070B58901002814DA0F23C0B20340083B2D
:1004E000114A9B089B009B18032210409040FC324D
:1004F0001500114085408140DC69AC432143D9613E
:1005000070BD032583082840A840FC352E00074A0B
:100510009B009B18C02286402940814092009C5835
:10052000B44321439950EBE700ED00E000E100E027
:100530001F2318401E3B8340014A13607047C0468A
:1005400000E100E0094A431E012093420DD8C0217A
:10055000074A08485360036A09061B021B0A0B433B
:10056000036200200723906013607047FFFFFF00C5
:1005700010E000E000ED00E0F8B504000120002CE0
:1005800035D025681A4B1421E818FFF7D1FD194B17
:10059000800023640223A21D6064D3772E68164B6B
:1005A000A1681E40E36827690B433B4367693B43EF
:1005B000A7693B43E7693B43276A3B4333432B60CF
:1005C0008023DB0199420CD01C2528400D3D85403D
:1005D0000A490B68AB430B6063680D6883402B438B
:1005E0000B6000200123E0630534D377E077F8BD8A
:1005F000F8FFFDBF000002400F80FFFFA80002408F
:1006000070B5841DE37F022B04D00423C363033B36
:10061000180070BD0E210368456C1A688A431A6081
:1006200001221968914319601C232B4015009D403D
:10063000016C431D4D60E2770024826BDC77130070
:10064000A242E5D090472300E2E7F8B51C22042738
:10065000466C016C32403E0096400D6803681C6891
:100660002E420DD03C420BD01A68920602D41A6872
:10067000BA431A60036B4E60002B19D0984717E0FD
:1006800002273E0096402E4213D03C4211D01A68F9
:10069000920606D40A241A68A2431A600122831D16
:1006A000DA770022431D4E60DA77C36A9342E5D1C0
:1006B000F8BD0826370097403D42F9D03442F7D0C4
:1006C0000E251C68AC431C6001231C009440821D55
:1006D0004C60C363D3770022431DDA77436BE5E7B1
:1006E000F0B5554A0B688218541EA24185B001939B
:1006F000002305320392019ADA4001D105B0F0BD22
:1007000001259D40019A2A40009200D191E04A685B
:1007100094461022644694432200013C022A1FD1D1
:1007200007240F271C40A400A740DA089200821873
:10073000166ABE430F69A7403E43166203245E005B
:10074000B4408268A243CC68B440224382606246CF
:10075000D206D20F9A404468AC432243426001E083
:10076000012CEBD9032634005D00AC406246E44323
:100770003240AA40076827403A430260C2681440EA
:100780008A68AA4014436246C460D20051D501254C
:100790002A4C0F27626B2A431D003540AD00AF4045
:1007A0006263274A9C08A400A418A268BA43A02741
:1007B0000292FF050022B84210D0224F0132B84207
:1007C0000CD0214F0132B84208D0204F3200B8423D
:1007D00004D01F4E0132B04200D0039AAA406746AF
:1007E000029D2A43A2601B4A009C1668009DE443B8
:1007F0003543FF0301D43500254067461560566830
:10080000009D3543BF0301D4350025406746556040
:100810009668009D3543FF0201D4350025406746A8
:100820009560D568009E2E43BF0201D425402E005E
:10083000D66001335FE7C04600E4FFAF001002401E
:10084000000001400004005000080050000C00505F
:100850000010005000040140002A01D0816170475F
:100860008162FCE770470000044B10B55A691042E2
:1008700002D05861FFF7F6FF10BDC04600040140EA
:100880000C22184B10B5D9680A40082A26D00C2A29
:1008900006D0042A1AD11B68DB0621D4124810BDE9
:1008A0008A021248120F825C0902D868890F01314E
:1008B000C00304D50E485043FFF73AFCEFE71B682E
:1008C000DB0601D50B48F6E70748F4E780205B68B4
:1008D00000021B045B0F01339840E0E70448DEE7A9
:1008E0000448DCE7001002400024F40071240008F2
:1008F00000127A0000093D00F0B5050087B000281D
:1009000002D1012007B0F0BD0C23C24CE668E268BA
:100910001E4080235B021A4001920268D20741D434
:100920002B689B0700D587E02B68DB0628D5002EB7
:1009300000D0E1E023689B0502D5EB69002BE0D0F5
:100940006268B5496B6A0A401A43626061682A6A44
:100950000902090A12060A43626080225B0B013316
:1009600012029A401300E16800200A06AB49120FF8
:100970008A5CD340AA4A1360FFF770FD0028C1D1FA
:100980002B681B0700D5EEE02B685B0700D510E154
:100990002B689B0600D595E1AB6A002B00D0C4E123
:1009A0000020AFE7082E04D00C2E09D1019A002AAE
:1009B00006D023689B03B3D56B68002BB0D1A0E7AA
:1009C0006A689A4211D1226813432360FFF77AFDC7
:1009D00007008022236892021342A1D1FFF772FD23
:1009E000C01B6428F5D903208CE7A021C9028A42E4
:1009F00005D180222168D2020A432260E3E7216800
:100A000088480140216021680B400593059B864979
:100A100023680B402360002AD8D1FFF753FD07005D
:100A2000802223689202134200D179E7FFF74AFD42
:100A3000C01B6428F4D9D6E72022EB68134203D008
:100A40002168934311432160042E04D00C2E25D13C
:100A5000019A002A22D12268520702D5002B00D128
:100A60004FE761682A697148120201400A4309216F
:100A7000626022688A4313432360FFF701FFE36843
:100A8000664A1B061B0FD35CD840654B18600020DC
:100A9000FFF7E4FC002800D146E733E7002B19D02C
:100AA000092122688A4313432360FFF70BFD0700E7
:100AB00004222368134207D062682B695B491B023A
:100AC0000A40134363602FE7FFF7FCFCC01B0228BA
:100AD000EED988E70122236893432360FFF7F2FCF5
:100AE000070004222368134200D11DE7FFF7EAFC48
:100AF000C01B0228F5D976E7EB69002B20D08023B4
:100B000022685B0013432360FFF7DCFC07008022B0
:100B10002368920013420DD063683F4A13406A6A0B
:100B20001343636062682B6A12021B06120A1343A6
:100B3000636025E7FFF7C6FCC01B0228E7D952E730
:100B400023683B4A13402360FFF7BCFC0700802268
:100B500023689200134200D112E7FFF7B3FCC01BD9
:100B60000228F4D93FE76A690123002A10D0226DD8
:100B700013432365FFF7A6FC07000222236D1342EF
:100B800000D001E7FFF79EFCC01B0228F5D92AE739
:100B9000226D9A432265FFF795FC07000222236D20
:100BA000134200D1F0E6FFF78DFCC01B0228F5D9F7
:100BB00019E780230021A26B5B0501911A4204D141
:100BC000A26B1343A363012301938022194F5200A8
:100BD0003B68134208D08022AB68520093422BD16D
:100BE000226D134323654CE080223B68520013437F
:100BF0003B60FFF767FC80235B00029003933B6838
:100C0000039A1342E7D1FFF75DFC029BC01A6428E8
:100C1000F5D9E8E600100240FF1FFFFF5924000845
:100C200000000020FFFFFEFFFFFFFBFFFFE0FFFFD4
:100C3000FFFEFFFF00700040002B16D1236D6A4AB3
:100C400013402365236D694A13402365FFF73AFC7F
:100C500007008022236D920013422AD0FFF732FC56
:100C6000634BC01B9842F4D9BDE6A021C9008B425A
:100C70000BD18023216DDB000B432365236D1A43C9
:100C80002265FFF71FFC07000EE0236D564A134054
:100C90002365236D554A1340A4E7FFF713FC544B1B
:100CA000C01B984200D99EE68022236D9200134219
:100CB000F3D0019B012B00D06AE6A36B4D4A134091
:100CC000A36365E6A96901234B4A002918D0A168EE
:100CD0001943A160616B0B4363638023116A9B011D
:100CE0000B431362FFF7EEFB07000222A3681342D7
:100CF00000D051E6FFF7E6FBC01B0228F5D972E6EB
:100D0000A1689943A160136A3C490B401362FFF745
:100D1000D9FB07000222A368134200D13CE6FFF78B
:100D2000D1FBC01B0228F5D95DE60C2E43D0344A16
:100D3000022B2ED12368802613402360FFF7C2FBCD
:100D40000700B604236833421DD1296BEB6AE268C1
:100D50000B432C490A4013436A6B80251343E3601D
:100D6000802322685B0413432360FFF7ABFB06007C
:100D7000AD0423682B4200D012E6FFF7A3FB801BD3
:100D80000228F6D92FE6FFF79DFBC01B0228D9D910
:100D900029E62368802513402360FFF793FB0600B4
:100DA000AD0423682B4200D1FAE5FFF78BFB801BD3
:100DB0000228F6D917E68022E368E96A52021A404F
:100DC00001208A4200D09DE5F022296B92031A404F
:100DD0008A4200D096E5C02000040340686B181AD0
:100DE000431E9841C0B28DE5FFFEFFFFFFFBFFFFF2
:100DF00088130000FFFFFFEF00000140FFDFFFFF4F
:100E0000FFFFFFFEFFFF02FFF7B5061E019101D1B4
:100E10000120FEBD0122514C0199236813408B42F1
:100E200027D3326893072FD4D30735D40123226800
:100E300001991A40914200D281E03268484C530730
:100E400000D584E0130706D5E26833694549DB0025
:100E50000A401343E360FFF713FDE368424A1B06B1
:100E60001B0FD35CD840414B18600020FFF7F6FA07
:100E7000CFE72368019993430B4323602368134012
:100E8000019A9A42C4D1CCE7F0203549CB6883431C
:100E9000B0680343CB60C7E7314D72682B68022A04
:100EA00019D19B03B4D50321EB688B431343EB604B
:100EB000FFF708FB73680700022B19D10C22EB68BF
:100EC0001340082BB2D0FFF7FDFA294BC01B984204
:100ED000F4D903209DE7032A02D19B01E3D497E7CD
:100EE000012A02D15B07DED492E79B05DBD48FE7B2
:100EF000032B0BD10C22EB681340934296D0FFF7E3
:100F0000E1FA1B4BC01B9842F4D9E2E7012B10D049
:100F10000C22EB68134289D0FFF7D4FA144BC01BA4
:100F20009842F5D9D5E7FFF7CDFA114BC01B98428F
:100F3000CFD80C22EB681340042BF4D176E722685B
:100F40009A43226022681A4200D061E775E7E3689D
:100F500008490B40F1680B43E36073E7002002404F
:100F600000100240FFC7FFFF5924000800000020C6
:100F700088130000FFF8FFFF044B054ADB685B05A0
:100F80005B0FD35C034A1068D840704700100240E2
:100F90006924000800000020044B054ADB689B041C
:100FA0005B0FD35C034A1068D840704700100240C2
:100FB00069240008000000200368F7B505009B06BF
:100FC0003AD5802300215F4C5B05A26B00911A4249
:100FD00004D1A26B1343A3630123009380275A4ECD
:100FE0007F0033683B4269D0C022C02120686B6813
:100FF0009203104089021A40904200D06FE0226DA7
:101000000A4000D076E06968C0230A009B021A40BB
:101010009A4207D123684D480340C0208003014015
:101020000B432360236D1A43009B2265012B03D1E0
:10103000A36B474A1340A3632B68DA0706D5032046
:101040004049CA6C8243A8680243CA649A0706D51D
:101050000C203C49CA6C8243E8680243CA645A07C0
:1010600006D538493B48CA6C024028690243CA6425
:101070001A0706D533493848CA6C024068690243EA
:10108000CA64DA0506D52F493448CA6C0240A869FB
:101090000243CA645A0606D52A493148CA6C02403E
:1010A000286A0243CA6400201B0617D5254A2D4929
:1010B000D36C0B40E9690B43D3640FE033683B43C7
:1010C0003360FFF7FFF9019033683B428CD1FFF7A3
:1010D000F9F9019BC01A6428F6D90320FEBD1A0055
:1010E0000A408A4200D08AE722680120920300D495
:1010F00085E7F3E70B409A4200D184E72B689B0613
:1011000000D480E78022216D206D12030243226506
:10111000226D124B14480B40024022652365CB051B
:1011200000D470E7FFF7CEF980270600BF00236DDB
:101130003B4200D067E7FFF7C5F90C4B801B984294
:10114000F5D9CAE70010024000700040FFFFCFFF52
:10115000FFFFFFEFFFF3FFFFFFCFFFFFFFFFFCFFEE
:10116000FFFFFFFBFFFFF3FFFFFFF7FF8813000008
:1011700070470000036810B59A680400D2040AD5CD
:10118000DB68DB0507D5FFF7F3FF21680E4BCA6864
:10119000D2B21343CB6023689A6892040BD5DB6804
:1011A0009B0508D5200000F067FA2168074BCA6844
:1011B000D2B21343CB608022054B92025A610123C5
:1011C0000234E37710BDC0467FFEFFFF7FFDFFFFC7
:1011D00000040140A0210268F8B5D36804008B43E5
:1011E000D360FFF76FF9FA2706002025BF002368B8
:1011F000DB682B4201D00020F8BDFFF763F9801BAC
:10120000B842F4D90320F7E7F8B540240368050095
:10121000DA68224201D00020F8BD01225242DA6091
:10122000FFF750F9FA270600BF002B68DB6823425E
:10123000F1D1FFF747F9801BB842F6D90320EBE75D
:1012400070B50400012500281AD0861CF37FDBB29C
:10125000002B03D14219D37700F086FE0223CA2265
:10126000F377236820005A62773A5A62FFF7CCFF7F
:101270002368051E06D0FF225A620423F377012556
:10128000280070BD9A681B4920690A409A6062680C
:1012900099680243A06902430A439A60E268606960
:1012A0001A61A268196912040A4380211A61DA6876
:1012B0008A43DA60DA6C7D398A43DA64E269D96C90
:1012C00002430A43DA649B689B060CD42000FFF7B4
:1012D00081FF002807D0FF22236801345A620423CB
:1012E000F377E577CBE7FF2223685A620123F37790
:1012F000C6E7C046BFFF8FFF0023092803D81B01A4
:101300001843C0B270470A380133C0B2F5E7000095
:101310000223F7B5471C0C00F97F05001E000129C8
:1013200036D00121F977C118CB77009140210368AD
:1013300066789B6820780B40002A2BD1002B00D1C7
:10134000E370FFF7D9FF01903000FFF7D5FF0600EB
:10135000A078FFF7D1FF0300E078360200041843BD
:10136000019B1B04184330430190CA222B682800BC
:101370005A62773A5A62FFF747FF2B68061E16D06B
:10138000FF225A620423009AD3770023FB770126B9
:101390003000FEBD002B00D1E3700004360206438E
:1013A000A0780643E078000406430196DDE715487F
:1013B000019A154902401A609A6820690A409A60A9
:1013C000E268996802430A4380219A60DA688A4396
:1013D000DA609B689B060CD42800FFF7FBFE002810
:1013E00007D0FF222B685A620423009AD377FE7736
:1013F000CDE7FF222B685A620123009AD37700239E
:10140000FB77C5E77F7F7F00FFFFFBFF0223F0B57F
:10141000471C0D00F97F85B004001E00012935D05E
:101420000121F977C1180191CB776B78E878AE7814
:10143000002A4ED11032134202D093430A336B700C
:10144000FFF75AFF02906878FFF756FF03903000CD
:10145000FFF752FF029B2D781E046D03039B05438B
:1014600035431E02CA22236820005A62773A5A6224
:10147000FFF7CAFE35432368061E0AD0FF225A62D0
:101480000423019AD3770023FB770126300005B0AF
:10149000F0BD8021124805405D60DA688A43DA6059
:1014A0009B689B060CD42000FFF794FE002807D011
:1014B000FF2223685A620423019AD377FE77E4E778
:1014C000FF2223685A620123019AD3770023FB7716
:1014D000DCE700041B022D7803431E436D03C1E7C4
:1014E0003FFFFF00F7B5431C00930D00D97F022397
:1014F00004001800012900D18DE001216018C17796
:10150000E118CB774021236828789B686E78AF7804
:101510000B40002A5DD1002B00D1EB70FFF7ECFEF1
:1015200001903000FFF7E8FE06003800FFF7E4FE08
:1015300007006B1CD87FFFF7DFFE6A69EB69360294
:101540001343EA780006120413431F43019B1B0454
:101550001F4337430743AA696B68696A1343CA226A
:10156000019323685A62773A5A62AD32914253D15D
:101570009A683C490A409A60D9683B4AC9B20A4312
:10158000DA60FEF79FFF060001222368DD68154040
:1015900032D0019ADF615A648022996852000A436E
:1015A0009A608022996852010A439A6080222F4BE8
:1015B0009202196800201143196099680A439A60E1
:1015C000FF22236802345A620123E377009BD87715
:1015D00021E0002B00D1EB70EB696A690004134332
:1015E0001F43360207433743EE786B1C36043743FC
:1015F000DE7F36063743AEE7FEF764FFFA23801B33
:101600009B009842C0D9FF220320236802345A620B
:10161000009BE077DD77FEBD9A6815490A409A6025
:10162000D968144AC9B20A43DA60FEF74BFF0600D4
:1016300002222368DD6815400BD0019A1F629A646C
:101640008022996892000A439A60802299689201E8
:10165000AAE7FEF737FFFA23801B9B009842E7D9E1
:10166000D1E7C046FFFEFFFF7FFEFFFF0004014001
:10167000FFFDFFFF7FFDFFFF7047000070B5040016
:101680000120002C37D000232500A36251352B7890
:10169000DBB2002B05D1220050321370200000F085
:1016A000BBFC0223402221682B700B68A068934387
:1016B0000B606368A2690343E06803432069034346
:1016C00060690343E0690343206A0343A06A03435C
:1016D00080208000104003430B600423120C1A404A
:1016E000636A00201A434A60CB69034A1340CB6106
:1016F000012360652B7070BDFFF7FFFF036807498A
:101700001A680A401A609A682331FF318A439A6046
:1017100020238367002303667047C046DFFEFFFF78
:1017200070477047F8B503680400DA6918689E6866
:1017300011070AD120210A4200D16AE0084268D08C
:10174000236E2000002B5AD15AE0012135000D40B4
:1017500003D190277F0038425BD00A4205D0C605EE
:1017600003D51962E66F3143E16702210A4206D0D0
:10177000002D04D01962E66F49183143E167042156
:101780000A4206D0002D04D01962E66F02393143B7
:10179000E167110708D5810601D4002D04D0082186
:1017A0001962E36F1943E167E36F002B28D0202310
:1017B0001A4206D0184204D0236E002B01D020001C
:1017C00098472368E56F9B6820005B0602D40823D6
:1017D0001D401AD0FFF792FF402123689A680A4201
:1017E0000FD09A68E06E8A439A60002809D01A4B9D
:1017F0008363FEF705FF002802D0E06E836B9847F5
:10180000F8BD2000FFF78DFFFAE7FFF78AFFE567D5
:10181000F6E7802149030A4206D0750204D5196211
:10182000200000F051FAEBE780210A4203D0084281
:1018300001D0636E85E740210A42E1D00842DFD043
:101840001A6820008A431A602023636700236366B6
:10185000FFF766FFD4E7C0465D180008806A0023E2
:10186000020010B55A321380083A1380FFF759FF6F
:1018700010BD0000F8B504002569A26803682A437A
:101880006569C1692A431868814D0A4328400243AB
:101890001A605A687F48804D0240E06802435A60EF
:1018A000A069AB4201D0226A10439A687B4E324055
:1018B00002439A607A4A934213D10322794BDB6C3C
:1018C0001340794AD05C80231B02994200D1D1E0B9
:1018D000082826D8FEF718FCC0969925B42525259A
:1018E000B700724A934205D10C226E4BDB6C134059
:1018F0006F4AE7E76F4A934200D1A9E06E4A9342EC
:1019000000D1A5E0AB4200D0ADE0C0218020654A07
:101910000901D36CC0000B40834238D003D8002BA0
:101920000AD001250DE08020000183420ED08B42B9
:10193000F7D1802000020DE0FFF71EFB0025A84232
:1019400008D10023280023666366F8BD1368DB0610
:1019500020D55A48032263685A438242E1D81A03C9
:101960008242DED30027020E01025E0889197A4105
:10197000080011001A003B00FEF766FC504BC2182D
:10198000504B9A42CDD823683D00D860D9E7FEF786
:1019900077FFD3E74C48DDE7FFF7EEFA63684000D6
:1019A0005B08C01861680BE0FFF7F6FAF6E7102550
:1019B0003C4B61681A684808154006D0434BC01874
:1019C000FEF7B6FB002583B204E0414BC018FEF7DA
:1019D000AFFB83B219003F4810398142A1D80F21D3
:1019E00018001B0788435B0F21680343CB60A8E7FF
:1019F000FEF746FFD2E76368580880235B02D0E712
:101A00000023E7E7FFF7C8FA28E01025254B6168B7
:101A10001A684808154006D0284BC018FEF788FB06
:101A2000002583B204E0284BC018FEF781FB83B287
:101A3000190028481039814200D972E72168D5E79A
:101A4000FEF71EFF0AE06368580880231B0207E0C8
:101A500080231B0299429FD0FFF78EFA63685B08D0
:101A6000C0186168DAE7802301251B029942C7D0BC
:101A70000023DDE7082800D953E7FEF74FFB8DFF71
:101A800095FF98FF52FFB9FF52FF52FF52FFBCFF74
:101A9000F369FFEFFFCFFFFF00480040FFF4FFFFB7
:101AA0000038014000100240482400080044004073
:101AB0004C240008004C00400050004000093D004C
:101AC00000FDFFFFFFFC0F000024F40000127A006D
:101AD0000048E801EFFF0000436A30B5DA0706D599
:101AE0000168284C4A682240846A22434A609A0767
:101AF00006D50168244C4A682240C46A22434A60E1
:101B00005A0706D50168214C4A682240046B2243DB
:101B10004A601A0706D501681D4C4A682240446B8A
:101B200022434A60DA0606D501681A4C8A682240C8
:101B3000846B22438A609A0606D50168164C8A682F
:101B40002240C46B22438A605A0610D50168134DA7
:101B50004A68046C2A4022434A608022520394421D
:101B600005D14A680E4C2240446C22434A601B0651
:101B700006D502680B4953680B40816C0B435360D8
:101B800030BDC046FFFFFDFFFFFFFEFFFFFFFBFF75
:101B9000FF7FFFFFFFEFFFFFFFDFFFFFFFFFEFFF15
:101BA000FFFF9FFFFFFFF7FFF8B504000E001500D1
:101BB0001F002268D36933409B1B59424B41AB4203
:101BC00001D000201BE0069B0133F3D0FEF77AFC26
:101BD000069BC01B834201D3002BEAD1236808492E
:101BE0001A6803200A401A609A68A331FF318A43B9
:101BF0009A6020236367A367002370342370F8BDC5
:101C00005FFEFFFF73B500260400C667FEF75AFCAF
:101C1000236805001B681B0715D423681B685B0736
:101C20000AD580210E4B00220093C9032B0020000F
:101C3000FFF7BAFF002811D1202300206367A367B4
:101C4000703420700BE08021054B32000093890333
:101C500003002000FFF7A8FF0028DED0032076BD98
:101C6000FFFFFF0110B5041E01D1012010BD436F1D
:101C7000002B04D102007032137000F0DBFA242331
:101C8000012122686367136820008B431360FFF70C
:101C9000F1FD0128E9D0636A002B02D02000FFF794
:101CA0001BFF236807495A6820000A402A215A600E
:101CB0009A688A439A60012219680A431A60FFF7FA
:101CC000A1FFD3E7FFB7FFFF7047000007B5012072
:101CD000084A116B01431163136B00220340019307
:101CE00011000930019BFEF7F3FB0A20FEF720FCF0
:101CF00007BDC04600100240F0B5012502278BB099
:101D00001422002105A800F08BFB0420304BA026F4
:101D1000DA6A304C2A43DA62DA6AF6052A4001921E
:101D2000019ADA6A3A43DA62DA6A3A400292029A2D
:101D3000D96A0143D9628021DA6A02400392039A88
:101D4000DA6A30000A43DA62DB6A00220B4004934D
:101D50002100049BFEF780FD002207211E48FEF7AC
:101D60007BFD0594002405A930000695079408978B
:101D7000FEF7B6FC1323194E05A9194805930696DC
:101D80000794FEF7ADFC8023069607269B0105A964
:101D9000114805930794FEF7A3FC05A90E48059684
:101DA000069507940897FEF79BFC2200210005206A
:101DB000FEF78EFB0520FEF7BBFB22002100300062
:101DC000FEF786FB3000FEF7B3FB0BB0F0BDC0465C
:101DD00000100240029000000008005000001110A6
:101DE0000004005030B59DB0382200210EA800F04C
:101DF00017FB14220021684600F012FB2422002168
:101E000005A800F00DFB1949194A0B6800241A4077
:101E100080231B0113430B600A230E930633129396
:101E20000E3B189380231B031A93802301251B0468
:101E30000EA81B93119513951994FEF75DFD0F23C2
:101E40002900009368460C3B019302940394049488
:101E5000FEF7DAFF23230593802305A89B0207944E
:101E600008940693FFF7A8F81DB030BD007000403D
:101E7000FFE7FFFF10B5FEF709FBFFF7B3FFFFF722
:101E80003BFFFFF723FF00F00BF800F085F800F0B0
:101E9000A5F800F0B3F900F095F9FEE770470000EF
:101EA000F0B5002491B001AF14220021380006AE35
:101EB00000F0B6FA282221003000009400F0B0FAB9
:101EC000264D274B28002B601F23AB60254B6C60F1
:101ED000EB602C616C61AC61EC61FFF7B1F9A04281
:101EE00001D0FFF7DBFF0022390028003C707C7036
:101EF000BC70FC603C61FFF70BFA002801D0FFF7D3
:101F0000CDFF6A4601230024137053709370D47080
:101F1000694622002800FFF779FAA04201D0FFF7B6
:101F2000BDFFF0231B05B361192301226B44DA774F
:101F3000802300225B003100280034707470B4707C
:101F40007460F46034617461F4617362FFF7CAFA1B
:101F5000002801D0FFF7A2FF11B0F0BD240000203F
:101F600000280040FF030000094B026810B59A42A8
:101F70000DD18023074ADB02116D02200B4313654C
:101F800000221100FEF7A4FA0220FEF7D1FA10BDDC
:101F900000280040001002400E480F4B10B50360AF
:101FA000822380225B004360002392008261E13A39
:101FB0008360C36003614361FF3A036243628362EB
:101FC0000733C261C362FFF759FB002801D0FFF756
:101FD00065FF10BDA0000020003001400C480D4BF3
:101FE00010B5036082235B00436000238360C360FD
:101FF000036143618361C3610362436283620733A8
:10200000C362FFF73BFB002801D0FFF747FF10BD7D
:10201000480000200038004030B5040089B0142288
:10202000002103A800F0FCF92368254A93422CD133
:1020300080220224234B5201596B03250A430121BC
:102040005A63DA6A20482243DA62DA6A224000924E
:10205000009ADA6A0A43DA62DB6A04940B4001935D
:10206000019B082303A903930695FEF739FBC023C0
:10207000A02003930023049405930695079303A9D6
:10208000C005FEF72DFB09B030BD104A9342FAD1CE
:1020900080220C4BD201996B0B480A439A630222AF
:1020A000D96A1143D962DB6A03A913400293029BE8
:1020B000F0231B020393032304920693E1E7C04637
:1020C0000030014000100240000400500038004081
:1020D0000122054B596B0A435A638022996B5205C2
:1020E0000A439A637047C046001002407047FEE7FB
:1020F0007047704710B5FEF7DDF910BD10B5024806
:10210000FFF738F810BDC0462400002010B50120AC
:10211000FEF7AAFB0220FEF7A7FB10BD10B51020AA
:10212000FEF7A2FB80208001FEF79EFB10BD0000A1
:1021300010B50348FEF789FA0248FEF786FA10BD8B
:10214000F80000204001002010B50248FFF7EAFA2D
:1021500010BDC0468801002010B50248FFF7E2FA22
:1021600010BDC046080200208022104B52001968A2
:102170000A431A60DA680E490A40DA601A680D49A3
:102180000A4001211A609A688A439A601A680A49CB
:102190000A401A60DA6809490A40DA6000221A61C6
:1021A0008022074B12059A607047C046001002401B
:1021B0000C40FF88F6FFF6FEFFFFFBFFFFFF02FF6C
:1021C00000ED00E00B480C4B10B5036096239B011B
:1021D00043600C22002342618360C360036183611A
:1021E000C36103624362FFF73DFD002801D0FFF7A2
:1021F00055FE10BD88010020003801400B480C4BF3
:1022000010B50360E1235B0243600C2200234261AE
:102210008360C36003618361C36103624362FFF74C
:1022200021FD002801D0FFF739FE10BD0802002073
:1022300000440040F0B5050089B01422002103A835
:1022400000F0EEF82B68474A934265D180220224C1
:10225000454BD201596B03270A4301215A63DA6ABD
:1022600042482243DA62DA6A002622400092009A4B
:10227000DA6A0A43DA62DB6A04940B400193019B39
:10228000402303A903930697FEF72AFA8023A02090
:10229000DB0003930423C00503A904940793059668
:1022A0000697FEF71DFA324C324B20002360802344
:1022B0002361603B6760A660E6606661A661E361DA
:1022C0002662FEF759F9B04201D0FFF7E7FD2A4B2D
:1022D000EC66A562294C80222360032363600D33E2
:1022E000A360002322612000603AE3606361A36180
:1022F000E2612362FEF740F9002801D0FFF7CEFD2E
:1023000000221B20AC661100A562FEF7E1F81B203D
:10231000FEF70EF909B0F0BD194A9342FAD18022B6
:10232000114B9202996BA0200A4301219A63DA6A49
:10233000C0050A43DA62DB6A0B400293029B0C235E
:1023400003930A3B04935B1806935B1803A9079356
:10235000FEF7C6F900221C201100FEF7B9F81C2078
:10236000D6E7C0460038014000100240000400508B
:1023700040010020300002401C000240F800002014
:10238000004400400D488546002103E00C4B5B589B
:10239000435004310B480C4B42189A42F6D30B4A77
:1023A00002E0002313600432094B9A42F9D3FFF78D
:1023B000DBFE00F011F8FFF75DFDFEE700500020A6
:1023C0008C240008000000200400002004000020ED
:1023D00088020020FEE7000070B500260C4D0D4C71
:1023E000641BA410A64209D1002600F021F80A4D72
:1023F0000A4C641BA410A64205D170BDB300EB5873
:1024000098470136EEE7B300EB5898470136F2E7FC
:1024100084240008842400088424000888240008F8
:1024200003008218934200D1704719700133F9E715
:10243000F8B5C046F8BC08BC9E467047F8B5C04623
:08244000F8BC08BC9E46704781
:1024480001040208001010100410101002101010DF
:10245800080000000000000000010203040607084D
:10246800090000000001020304030406080C101808
:042478002030000010
:08247C000CDEFF7F01000000EF
:04248400E900000863
:04248800C100000887
:04248C00000020002C
:040000050800238547
:00000001FF
