:020000040800F2
:1000000000500020B9280008092800080B28000823
:1000100000000000000000000000000000000000E0
:100020000000000000000000000000000D28000893
:1000300000000000000000000F2800081128000840
:1000400009290008092900081928000809290008B9
:10005000092900082928000809290008392800086A
:1000600009290008092900080929000809290008A8
:100070000929000809290008092900080929000898
:1000800009290008092900080929000800000000C2
:100090000929000809290008092900080929000878
:1000A0000929000809290008092900080929000868
:1000B0004D2800080929000800000000092900084F
:1000C00010B5064C2378002B07D1054B002B02D02E
:1000D000044800E000BF0123237010BD040000208D
:1000E0000000000064290008044B10B5002B03D069
:1000F0000349044800E000BF10BDC04600000000F6
:10010000080000206429000802B47146490849002B
:10011000095C49008E4402BC7047C04603B4714676
:10012000490840004900095E49008E4403BC7047FD
:10013000002243088B4274D303098B425FD3030A26
:100140008B4244D3030B8B4228D3030C8B420DD339
:10015000FF22090212BA030C8B4202D312120902C7
:1001600065D0030B8B4219D300E0090AC30B8B4205
:1001700001D3CB03C01A5241830B8B4201D38B03B3
:10018000C01A5241430B8B4201D34B03C01A524158
:10019000030B8B4201D30B03C01A5241C30A8B429B
:1001A00001D3CB02C01A5241830A8B4201D38B0286
:1001B000C01A5241430A8B4201D34B02C01A52412A
:1001C000030A8B4201D30B02C01A5241CDD2C3099C
:1001D0008B4201D3CB01C01A524183098B4201D318
:1001E0008B01C01A524143098B4201D34B01C01A03
:1001F000524103098B4201D30B01C01A5241C3087B
:100200008B4201D3CB00C01A524183088B4201D3E9
:100210008B00C01A524143088B4201D34B00C01AD5
:100220005241411A00D20146524110467047FFE741
:1002300001B5002000F006F802BDC0460029F7D045
:1002400076E770477047C046002B11D1002A0FD1C6
:10025000002900D1002802D00021C943081C07B49E
:10026000024802A14018029003BDC046D9FFFFFF1B
:1002700003B4684601B5029800F006F8019B9E465B
:1002800002B00CBC7047C046F0B557464E464546D6
:10029000DE46E0B5040083B00D00924699468B42DD
:1002A0002FD82CD04946504600F0AEF82900060061
:1002B000200000F0A9F8331A9846203B9B4600D551
:1002C00074E053465A4693401F00534642469340BB
:1002D0001E00AF4229D826D05B46A41BBD41002B8F
:1002E00000DA79E0002200230092019301235A46AC
:1002F00093400193012342469340009319E08242C8
:10030000D0D900220023009201930C9B002B01D036
:100310001C605D600098019903B03CBC9046994612
:10032000A246AB46F0BDA342D6D9002200230092DC
:1003300001934346002BE8D0FB0772081A43464658
:100340007B080EE0AB4201D1A2420CD8A41A9D4119
:10035000012024196D410021013E24184D41002E39
:1003600006D0AB42EED9013E24196D41002EF8D1E2
:100370005B460098019900196941002B22DB2B0094
:100380005A46D3402A004446E2401C005B46150012
:10039000002B2CDB26009E40330026004746BE4043
:1003A0003200801A994100900191AEE74246202325
:1003B0009B1A5246DA40414613004A468A401700CB
:1003C0001F4382E7424620239B1A2A0046469A4052
:1003D0002300F3401343D5E74246202300219B1A14
:1003E0000022009101920122DA40019282E7424606
:1003F000202326009B1ADE402F00B4469740664615
:100400003B003343C9E7C04610B5002903D100F0D3
:1004100007F8203002E0081C00F002F810BDC046CA
:100420001C2101231B04984201D3000C10391B0A24
:10043000984201D3000A08391B09984201D30009E8
:10044000043902A2105C40187047C046040302023F
:10045000010101010000000000000000FA210A4B28
:1004600070B5890005001868FFF762FE00F06AF8B1
:1004700004000120002C05D102382200290000F0E0
:1004800027F8200070BDC046000000204023084A25
:1004900010B5116800200B431360FFF7DFFF041E47
:1004A00003D102F0BDF8200010BD0124FBE7C046D7
:1004B00000200240024A1368013313607047C046AF
:1004C00020000020014B18687047C0462000002023
:1004D00070B58901002814DA0F23C0B20340083B2D
:1004E000114A9B089B009B18032210409040FC324D
:1004F0001500114085408140DC69AC432143D9613E
:1005000070BD032583082840A840FC352E00074A0B
:100510009B009B18C02286402940814092009C5835
:10052000B44321439950EBE700ED00E000E100E027
:100530001F2318401E3B8340014A13607047C0468A
:1005400000E100E0094A431E012093420DD8C0217A
:10055000074A08485360036A09061B021B0A0B433B
:10056000036200200723906013607047FFFFFF00C5
:1005700010E000E000ED00E070B5841DE37F022B89
:1005800004D00423C363033B180070BD0E2103682D
:10059000456C1A688A431A600122196891431960F0
:1005A0001C232B4015009D40016C431D4D60E277DC
:1005B0000024826BDC771300A242E5D09047230031
:1005C000E2E70000F0B5554A0B688218541EA241BC
:1005D00085B00193002305320392019ADA4001D1DC
:1005E00005B0F0BD01259D40019A2A40009200D13E
:1005F00091E04A6894461022644694432200013CEC
:10060000022A1FD107240F271C40A400A740DA08A4
:1006100092008218166ABE430F69A7403E431662D5
:1006200003245E00B4408268A243CC68B4402243F5
:1006300082606246D206D20F9A404468AC4322439D
:10064000426001E0012CEBD9032634005D00AC4090
:100650006246E4433240AA40076827403A430260BA
:10066000C26814408A68AA4014436246C460D2003B
:1006700051D501252A4C0F27626B2A431D003540B6
:10068000AD00AF406263274A9C08A400A418A2688A
:10069000BA43A0270292FF050022B84210D0224F91
:1006A0000132B8420CD0214F0132B84208D0204F5D
:1006B0003200B84204D01F4E0132B04200D0039A3B
:1006C000AA406746029D2A43A2601B4A009C166806
:1006D000009DE4433543FF0301D4350025406746C0
:1006E00015605668009D3543BF0301D43500254091
:1006F000674655609668009D3543FF0201D435007A
:10070000254067469560D568009E2E43BF0201D400
:1007100025402E00D66001335FE7C04600E4FFAFFE
:10072000001002400000014000040050000800508A
:10073000000C00500010005000040140002A01D0BD
:10074000816170478162FCE770470000044B10B57F
:100750005A69104202D05861FFF7F6FF10BDC0463B
:100760000004014003689A69920701D500229A6249
:1007700001229969114202D199690A439A6170472D
:1007800070B5049E89053343890D1943802304689D
:10079000DB00700D1840044B656812041843854354
:1007A00011432943616070BDFF63FF03F8B5040086
:1007B0000E0017001D002268936933409B1B5942AD
:1007C0004B41BB4201D0002017E06B1CF4D0FFF777
:1007D00079FE069BC01A854201D3002DEBD1202261
:1007E000636C012013436364230041331A702200B9
:1007F00000234232403413702370F8BDF8B503680B
:100800000400986910230E001700184020250028C6
:1008100018D1F8BD721C16D0FFF754FEC01B8642DB
:1008200001D3002E0ED12022636C13436364230096
:1008300041331A70220000234232403413700120E9
:100840002370E6E723689A692A42E3D01022200049
:10085000DA61DD61FFF786FF2268064953680B40C5
:1008600053600423626C13436364230041331D709F
:10087000E0E7C04600E800FEF8B504000D001600F1
:10088000022723689B693B4201D00020F8BD32005B
:1008900029002000FFF7B2FF002815D16B1CF0D013
:1008A000FFF710FE801B854201D3002DE9D12022E5
:1008B000636C13436364230041331A7022000023E6
:1008C00042324034137023700120DFE773B5050016
:1008D00014001E00DAB2154B00930023FFF750FFFF
:1008E000079A06992800FFF7C7FF002801D00120CA
:1008F00076BD2B68012E0DD1E4B29C62079B0022CD
:1009000000934021069B2800FFF750FF431E9841AB
:10091000C0B2EDE7220A9A620699079A2800FFF70B
:10092000ABFF0028E3D12B68E6E7C046002000803B
:10093000F8B504000D001600202723689B693B4290
:1009400001D00020F8BD320029002000FFF756FF3B
:10095000002813D1FFF7B6FD801B854201D3002D7F
:10096000EBD12022636C13436364230041331A707C
:100970002200002342324034137023700120E1E74B
:1009800070B504000120002C3FD0250041352B78A4
:10099000DBB2002B05D1220040321370200001F0A1
:1009A0004DFE242301212B702368E0681A68A66895
:1009B0008A431A6061681A4A0A401A619968194A9A
:1009C00011409960012821D18021090231439960A9
:1009D0005868154901435960D96800200A40DA6017
:1009E000616922690A43A16909020A43DA60216A3E
:1009F000E2690A431A60012219680A431A60202337
:100A000060642B7020634234207070BD8421090221
:100A1000314399600228DBD1802109015960D7E771
:100A2000FFFFFFF0FF7FFFFF00800002F0B5050031
:100A300087B003910492059341352B78040002207E
:100A4000202B14D1230040331A78012A0FD001261D
:100A50001E70FFF737FD8021070000901923320038
:100A600009022000FFF7A2FE002802D0012007B0F3
:100A7000F0BD21232B702500113B42352B70049BC8
:100A8000606463626B469B8A60636385628D304BF2
:100A9000FF2A21D9FF222285009380235B0403993A
:100AA0002000FFF76DFEFF26638D3A000C992000B1
:100AB000002B19D1FFF73CFF0028D7D12021236854
:100AC000244ED9615A6832405A6023004034413381
:100AD000197028702070CAE7628D92B22285009347
:100AE0008023D2B29B04DAE7FFF7C6FE0028BDD10F
:100AF000636A22681978013391626362638D228D83
:100B0000013B9BB26385013A638D92B22285002B33
:100B1000CAD0002AC8D100970C9B80212000FFF783
:100B200045FE0028A2D1638DFF2B09D98023FF2227
:100B300026855B04009003992000FFF721FEB3E7B0
:100B40008023628D9B0492B22285D2B20090F2E79C
:100B50000020008000E800FEF0B5070089B0079390
:100B60000EAB069204CB41371B88049205933B7869
:100B700004000D000220202B08D1002A02D0059B82
:100B8000002B05D180239B006364012009B0F0BDD8
:100B90002300403303931B78012BF7D00122039BE2
:100BA0001A70FFF78FFC8021029000901923012218
:100BB00009022000FFF7FAFD061EE6D122233B7052
:100BC00027001E3342373B70049B606463626B46B0
:100BD0009B8A60636385029B069A0193109B2900A0
:100BE00000932000079BFFF771FE002802D0039BB3
:100BF0001E70CAE7628D354BFF2A58D9FF22228525
:100C0000009380235B04290020008026FFF7B8FDB5
:100C1000B604029B002200930421109B2000FFF7E2
:100C2000C5FD0028B1D12368626A5B6A1370636AEC
:100C3000228D01336362638D013A013B9BB2638570
:100C4000638D92B22285002B18D0002A16D1029B08
:100C5000802100932000109BFFF7A8FD002800D002
:100C600093E7638DFF2B2AD9FF2323858023FF225F
:100C700000905B0429002000FFF782FD638D002BAC
:100C8000C7D1029A10992000FFF752FE002800D029
:100C90007BE7202123680E4DD9615A682A405A60AB
:100CA0002300403441331970387020706EE7628D34
:100CB00092B2228500938023D2B29B04A3E7628D77
:100CC000330092B22285D2B20090D3E70024008094
:100CD00000E800FEF0B50400413422780300D2B2EF
:100CE0000220202A18D11D0040352E78012E13D065
:100CF0001B68223020701E68233886431E601E68E1
:100D0000064F3E401E601E68314319601968084353
:100D10001860002022702870F0BDC046FFEFFFFF72
:100D2000F0B5050041352A780300D2B20220202A0E
:100D300017D11C0040342678012E12D01B682230B7
:100D400028701E68233886431E601E68054F0902FE
:100D50003E403143196019680843186000202A702A
:100D60002070F0BDFFF0FFFF0C22184B10B5D968C2
:100D70000A40082A26D00C2A06D0042A1AD11B6859
:100D8000DB0621D4124810BD8A021248120F825C81
:100D90000902D868890F0131C00304D50E485043B9
:100DA000FFF7C6F9EFE71B68DB0601D50B48F6E74E
:100DB0000748F4E780205B6800021B045B0F0133E7
:100DC0009840E0E70448DEE70448DCE70010024012
:100DD0000024F400A529000800127A0000093D0053
:100DE000F0B5050087B0002802D1012007B0F0BDA2
:100DF0000C23C24CE668E2681E4080235B021A4066
:100E000001920268D20741D42B689B0700D587E086
:100E10002B68DB0628D5002E00D0E1E023689B0577
:100E200002D5EB69002BE0D06268B5496B6A0A40D5
:100E30001A43626061682A6A0902090A12060A43B3
:100E4000626080225B0B013312029A401300E1685A
:100E500000200A06AB49120F8A5CD340AA4A1360ED
:100E6000FFF7FCFA0028C1D12B681B0700D5EEE084
:100E70002B685B0700D510E12B689B0600D595E138
:100E8000AB6A002B00D0C4E10020AFE7082E04D0ED
:100E90000C2E09D1019A002A06D023689B03B3D5F2
:100EA0006B68002BB0D1A0E76A689A4211D1226822
:100EB00013432360FFF706FB07008022236892029A
:100EC0001342A1D1FFF7FEFAC01B6428F5D9032015
:100ED0008CE7A021C9028A4205D180222168D20272
:100EE0000A432260E3E721688848014021602168C5
:100EF0000B400593059B864923680B402360002A1D
:100F0000D8D1FFF7DFFA070080222368920213424C
:100F100000D179E7FFF7D6FAC01B6428F4D9D6E7E9
:100F20002022EB68134203D02168934311432160D0
:100F3000042E04D00C2E25D1019A002A22D1226839
:100F4000520702D5002B00D14FE761682A6971482A
:100F5000120201400A430921626022688A43134356
:100F60002360FFF701FFE368664A1B061B0FD35C93
:100F7000D840654B18600020FFF770FA002800D1B8
:100F800046E733E7002B19D0092122688A4313432F
:100F90002360FFF797FA070004222368134207D063
:100FA00062682B695B491B020A40134363602FE7A9
:100FB000FFF788FAC01B0228EED988E701222368D0
:100FC00093432360FFF77EFA07000422236813424D
:100FD00000D11DE7FFF776FAC01B0228F5D976E7A6
:100FE000EB69002B20D0802322685B001343236031
:100FF000FFF768FA070080222368920013420DD0A1
:1010000063683F4A13406A6A1343636062682B6AED
:1010100012021B06120A1343636025E7FFF752FA18
:10102000C01B0228E7D952E723683B4A13402360DC
:10103000FFF748FA0700802223689200134200D18C
:1010400012E7FFF73FFAC01B0228F4D93FE76A69AD
:101050000123002A10D0226D13432365FFF732FAD3
:1010600007000222236D134200D001E7FFF72AFA9E
:10107000C01B0228F5D92AE7226D9A432265FFF7A3
:1010800021FA07000222236D134200D1F0E6FFF798
:1010900019FAC01B0228F5D919E780230021A26B99
:1010A0005B0501911A4204D1A26B1343A363012390
:1010B00001938022194F52003B68134208D08022CE
:1010C000AB68520093422BD1226D134323654CE051
:1010D00080223B68520013433B60FFF7F3F9802303
:1010E0005B00029003933B68039A1342E7D1FFF73A
:1010F000E9F9029BC01A6428F5D9E8E6001002401D
:10110000FF1FFFFF8D29000800000020FFFFFEFFEA
:10111000FFFFFBFFFFE0FFFFFFFEFFFF007000404F
:10112000002B16D1236D6C4A13402365236D6B4A47
:1011300013402365FFF7C6F907008022236D920054
:1011400013422AD0FFF7BEF9654BC01B9842F4D971
:10115000BDE6A021C9008B420BD18023216DDB00AD
:101160000B432365236D1A432265FFF7ABF9070094
:101170000EE0236D584A13402365236D574A1340F0
:10118000A4E7FFF79FF9564BC01B984200D99EE693
:101190008022236D92001342F3D0019B012B00D0DB
:1011A0006AE6A36B4F4A1340A36365E6A96901236E
:1011B0004D4A002918D0A1681943A160616B0B4307
:1011C00063638023116A9B010B431362FFF77AF973
:1011D00007000222A368134200D051E6FFF772F91C
:1011E000C01B0228F5D972E6A1689943A160136A71
:1011F0003E490B401362FFF765F907000222A3681E
:10120000134200D13CE6FFF75DF9C01B0228F5D977
:101210005DE60C2E43D0364A022B2ED12368802661
:1012200013402360FFF74EF90700B60423683342EA
:101230001DD1296BEB6AE2680B432E490A40134328
:101240006A6B80251343E360802322685B041343A9
:101250002360FFF737F90600AD0423682B4200D066
:1012600012E6FFF72FF9801B0228F6D92FE6FFF7C9
:1012700029F9C01B0228D9D929E623688025134003
:101280002360FFF71FF90600AD0423682B4200D14D
:10129000FAE5FFF717F9801B0228F6D917E61800C0
:1012A000012B00D1A2E58022E368E96A52021A40CC
:1012B00001208A4200D099E5F022296B92031A405E
:1012C0008A4200D092E5C02000040340686B181ADF
:1012D000431E9841C0B289E5FFFEFFFFFFFBFFFF01
:1012E00088130000FFFFFFEF00000140FFDFFFFF5A
:1012F000FFFFFFFEFFFF02FFF7B5061E019101D1C0
:101300000120FEBD0122514C0199236813408B42FC
:1013100027D3326893072FD4D30735D4012322680B
:1013200001991A40914200D281E03268484C53073B
:1013300000D584E0130706D5E26833694549DB0030
:101340000A401343E360FFF70FFDE368424A1B06C0
:101350001B0FD35CD840414B18600020FFF77EF88C
:10136000CFE72368019993430B432360236813401D
:10137000019A9A42C4D1CCE7F0203549CB68834327
:10138000B0680343CB60C7E7314D72682B68022A0F
:1013900019D19B03B4D50321EB688B431343EB6056
:1013A000FFF790F873680700022B19D10C22EB6845
:1013B0001340082BB2D0FFF785F8294BC01B984289
:1013C000F4D903209DE7032A02D19B01E3D497E7D8
:1013D000012A02D15B07DED492E79B05DBD48FE7BD
:1013E000032B0BD10C22EB681340934296D0FFF7EE
:1013F00069F81B4BC01B9842F4D9E2E7012B10D0CF
:101400000C22EB68134289D0FFF75CF8144BC01B29
:101410009842F5D9D5E7FFF755F8114BC01B984214
:10142000CFD80C22EB681340042BF4D176E7226866
:101430009A43226022681A4200D061E775E7E368A8
:1014400008490B40F1680B43E36073E7002002405A
:1014500000100240FFC7FFFF8D2900080000002098
:1014600088130000FFF8FFFF044B054ADB685B05AB
:101470005B0FD35C034A1068D840704700100240ED
:101480009D29000800000020044B054ADB689B04EE
:101490005B0FD35C034A1068D840704700100240CD
:1014A0009D290008000000200368F7B505009B0691
:1014B0003AD5802300215F4C5B05A26B00911A4254
:1014C00004D1A26B1343A3630123009380275A4ED8
:1014D0007F0033683B4269D0C022C02120686B681E
:1014E0009203104089021A40904200D06FE0226DB2
:1014F0000A4000D076E06968C0230A009B021A40C7
:101500009A4207D123684D480340C0208003014020
:101510000B432360236D1A43009B2265012B03D1EB
:10152000A36B474A1340A3632B68DA0706D5032051
:101530004049CA6C8243A8680243CA649A0706D528
:101540000C203C49CA6C8243E8680243CA645A07CB
:1015500006D538493B48CA6C024028690243CA6430
:101560001A0706D533493848CA6C024068690243F5
:10157000CA64DA0506D52F493448CA6C0240A86906
:101580000243CA645A0606D52A493148CA6C024049
:10159000286A0243CA6400201B0617D5254A2D4934
:1015A000D36C0B40E9690B43D3640FE033683B43D2
:1015B0003360FEF787FF019033683B428CD1FEF722
:1015C00081FF019BC01A6428F6D90320FEBD1A00D2
:1015D0000A408A4200D08AE722680120920300D4A0
:1015E00085E7F3E70B409A4200D184E72B689B061E
:1015F00000D480E78022216D206D12030243226512
:10160000226D124B14480B40024022652365CB0526
:1016100000D470E7FEF756FF80270600BF00236D59
:101620003B4200D067E7FEF74DFF0C4B801B984212
:10163000F5D9CAE70010024000700040FFFFCFFF5D
:10164000FFFFFFEFFFF3FFFFFFCFFFFFFFFFFCFFF9
:10165000FFFFFFFBFFFFF3FFFFFFF7FF8813000013
:1016600070470000036810B59A680400D2040AD5D8
:10167000DB68DB0507D5FFF7F3FF21680E4BCA686F
:10168000D2B21343CB6023689A6892040BD5DB680F
:101690009B0508D5200000F067FA2168074BCA684F
:1016A000D2B21343CB608022054B92025A610123D0
:1016B0000234E37710BDC0467FFEFFFF7FFDFFFFD2
:1016C00000040140A0210268F8B5D36804008B43F0
:1016D000D360FEF7F7FEFA2706002025BF00236837
:1016E000DB682B4201D00020F8BDFEF7EBFE801B2B
:1016F000B842F4D90320F7E7F8B5402403680500A1
:10170000DA68224201D00020F8BD01225242DA609C
:10171000FEF7D8FEFA270600BF002B68DB682342DD
:10172000F1D1FEF7CFFE801BB842F6D90320EBE7DC
:1017300070B50400012500281AD0861CF37FDBB2A7
:10174000002B03D14219D37700F0B4FF0223CA2241
:10175000F377236820005A62773A5A62FFF7CCFF8A
:101760002368051E06D0FF225A620423F377012561
:10177000280070BD9A681B4920690A409A60626817
:1017800099680243A06902430A439A60E26860696B
:101790001A61A268196912040A4380211A61DA6881
:1017A0008A43DA60DA6C7D398A43DA64E269D96C9B
:1017B00002430A43DA649B689B060CD42000FFF7BF
:1017C00081FF002807D0FF22236801345A620423D6
:1017D000F377E577CBE7FF2223685A620123F3779B
:1017E000C6E7C046BFFF8FFF0023092803D81B01AF
:1017F0001843C0B270470A380133C0B2F5E70000A1
:101800000223F7B5471C0C00F97F05001E000129D3
:1018100036D00121F977C118CB77009140210368B8
:1018200066789B6820780B40002A2BD1002B00D1D2
:10183000E370FFF7D9FF01903000FFF7D5FF0600F6
:10184000A078FFF7D1FF0300E078360200041843C8
:10185000019B1B04184330430190CA222B682800C7
:101860005A62773A5A62FFF747FF2B68061E16D076
:10187000FF225A620423009AD3770023FB770126C4
:101880003000FEBD002B00D1E37000043602064399
:10189000A0780643E078000406430196DDE715488A
:1018A000019A154902401A609A6820690A409A60B4
:1018B000E268996802430A4380219A60DA688A43A1
:1018C000DA609B689B060CD42800FFF7FBFE00281B
:1018D00007D0FF222B685A620423009AD377FE7741
:1018E000CDE7FF222B685A620123009AD3770023A9
:1018F000FB77C5E77F7F7F00FFFFFBFF0223F0B58B
:10190000471C0D00F97F85B004001E00012935D069
:101910000121F977C1180191CB776B78E878AE781F
:10192000002A4ED11032134202D093430A336B7017
:10193000FFF75AFF02906878FFF756FF03903000D8
:10194000FFF752FF029B2D781E046D03039B054396
:1019500035431E02CA22236820005A62773A5A622F
:10196000FFF7CAFE35432368061E0AD0FF225A62DB
:101970000423019AD3770023FB770126300005B0BA
:10198000F0BD8021124805405D60DA688A43DA6064
:101990009B689B060CD42000FFF794FE002807D01C
:1019A000FF2223685A620423019AD377FE77E4E783
:1019B000FF2223685A620123019AD3770023FB7721
:1019C000DCE700041B022D7803431E436D03C1E7CF
:1019D0003FFFFF00F7B5431C00930D00D97F0223A2
:1019E00004001800012900D18DE001216018C177A1
:1019F000E118CB774021236828789B686E78AF7810
:101A00000B40002A5DD1002B00D1EB70FFF7ECFEFC
:101A100001903000FFF7E8FE06003800FFF7E4FE13
:101A200007006B1CD87FFFF7DFFE6A69EB6936029F
:101A30001343EA780006120413431F43019B1B045F
:101A40001F4337430743AA696B68696A1343CA2275
:101A5000019323685A62773A5A62AD32914253D168
:101A60009A683C490A409A60D9683B4AC9B20A431D
:101A7000DA60FEF727FD060001222368DD681540C5
:101A800032D0019ADF615A648022996852000A4379
:101A90009A608022996852010A439A6080222F4BF3
:101AA0009202196800201143196099680A439A60EC
:101AB000FF22236802345A620123E377009BD87720
:101AC00021E0002B00D1EB70EB696A69000413433D
:101AD0001F43360207433743EE786B1C3604374307
:101AE000DE7F36063743AEE7FEF7ECFCFA23801BB9
:101AF0009B009842C0D9FF220320236802345A6217
:101B0000009BE077DD77FEBD9A6815490A409A6030
:101B1000D968144AC9B20A43DA60FEF7D3FC06005A
:101B200002222368DD6815400BD0019A1F629A6477
:101B30008022996892000A439A60802299689201F3
:101B4000AAE7FEF7BFFCFA23801B9B009842E7D967
:101B5000D1E7C046FFFEFFFF7FFEFFFF000401400C
:101B6000FFFDFFFF7FFDFFFF7047000070B5040021
:101B70000120002C37D000232500A36251352B789B
:101B8000DBB2002B05D1220050321370200000F090
:101B9000A9FD0223402221682B700B68A0689343A3
:101BA0000B606368A2690343E06803432069034351
:101BB00060690343E0690343206A0343A06A034367
:101BC00080208000104003430B600423120C1A4055
:101BD000636A00201A434A60CB69034A1340CB6111
:101BE000012360652B7070BDFFF7FFFF0368074995
:101BF0001A680A401A609A682331FF318A439A6052
:101C000020238367002303667047C046DFFEFFFF83
:101C1000436F10B5212B0DD1010052310A880368A2
:101C2000002A08D180211A688A431A604022196864
:101C30000A431A6010BDC46C22880234D205D20D4A
:101C40009A62C4640B88013B9BB20B80F2E7436F3E
:101C500010B5212B0DD1010052310A880368002AEA
:101C600008D180211A688A431A60402219680A4301
:101C70001A6010BDC26C147801329C62C2640B8879
:101C8000013B9BB20B80F4E770B5446F0300022068
:101C9000202C30D1013800292DD0002A2BD08024CF
:101CA0009D686401A54204D11C69002C01D1014248
:101CB00021D11C00703426780220012E1BD001385F
:101CC0002070D964190050310A804A800022DA67F6
:101CD0005A6621325A678022520195420CD11A6904
:101CE000002A09D1054A5A661A6880230020116823
:101CF00020700B43136070BD014AF4E7111C00080B
:101D00004F1C000870477047F8B503680400DA6993
:101D100018689E6811070AD120210A4200D16AE0A2
:101D2000084268D0236E2000002B5AD15AE00121CE
:101D300035000D4003D190277F0038425BD00A4226
:101D400005D0C60503D51962E66F3143E16702216C
:101D50000A4206D0002D04D01962E66F49183143BB
:101D6000E16704210A4206D0002D04D01962E66F13
:101D700002393143E167110708D5810601D4002DEE
:101D800004D008211962E36F1943E167E36F002B68
:101D900028D020231A4206D0184204D0236E002BEC
:101DA00001D0200098472368E56F9B6820005B0600
:101DB00002D408231D401AD0FFF718FF40212368E2
:101DC0009A680A420FD09A68E06E8A439A600028A7
:101DD00009D01A4B8363FEF7CFFB002802D0E06ED8
:101DE000836B9847F8BD2000FFF78DFFFAE7FFF7F8
:101DF0008AFFE567F6E7802149030A4206D07502AB
:101E000004D51962200000F051FAEBE780210A4264
:101E100003D0084201D0636E85E740210A42E1D039
:101E20000842DFD01A6820008A431A6020236367C3
:101E300000236366FFF766FFD4E7C046411E000833
:101E4000806A0023020010B55A321380083A1380CA
:101E5000FFF759FF10BD0000F8B504002569A2681E
:101E600003682A436569C1692A431868814D0A439A
:101E7000284002431A605A687F48804D0240E0685B
:101E800002435A60A069AB4201D0226A10439A68AB
:101E90007B4E324002439A607A4A934213D1032226
:101EA000794BDB6C1340794AD05C80231B0299424A
:101EB00000D1D1E0082826D8FEF726F9C09699254A
:101EC000B4252525B700724A934205D10C226E4BEA
:101ED000DB6C13406F4AE7E76F4A934200D1A9E0F9
:101EE0006E4A934200D1A5E0AB4200D0ADE0C021E4
:101EF0008020654A0901D36CC0000B40834238D072
:101F000003D8002B0AD001250DE080200001834278
:101F10000ED08B42F7D1802000020DE0FFF7A4FA2B
:101F20000025A84208D10023280023666366F8BD77
:101F30001368DB0620D55A48032263685A4382425D
:101F4000E1D81A038242DED30027020E01025E08A6
:101F500089197A41080011001A003B00FEF774F954
:101F6000504BC218504B9A42CDD823683D00D860E0
:101F7000D9E7FEF7F9FED3E74C48DDE7FFF774FA3F
:101F8000636840005B08C01861680BE0FFF77CFAEB
:101F9000F6E710253C4B61681A684808154006D0E2
:101FA000434BC018FEF7C4F8002583B204E0414B50
:101FB000C018FEF7BDF883B219003F4810398142BE
:101FC000A1D80F2118001B0788435B0F216803432A
:101FD000CB60A8E7FEF7C8FED2E763685808802305
:101FE0005B02D0E70023E7E7FFF74EFA28E0102571
:101FF000254B61681A684808154006D0284BC01860
:10200000FEF796F8002583B204E0284BC018FEF7CF
:102010008FF883B2190028481039814200D972E73D
:102020002168D5E7FEF7A0FE0AE063685808802320
:102030001B0207E080231B0299429FD0FFF714FA8E
:1020400063685B08C0186168DAE7802301251B021A
:102050009942C7D00023DDE7082800D953E7FEF7EF
:102060005DF88DFF95FF98FF52FFB9FF52FF52FFB9
:1020700052FFBCFFF369FFEFFFCFFFFF00480040B6
:10208000FFF4FFFF00380140001002407C290008E7
:102090000044004080290008004C004000500040EF
:1020A00000093D0000FDFFFFFFFC0F000024F400CD
:1020B00000127A000048E801EFFF0000436A30B5E3
:1020C000DA0706D50168284C4A682240846A224310
:1020D0004A609A0706D50168244C4A682240C46ABF
:1020E00022434A605A0706D50168214C4A682240BB
:1020F000046B22434A601A0706D501681D4C4A68E2
:102100002240446B22434A60DA0606D501681A4C25
:102110008A682240846B22438A609A0606D5016849
:10212000164C8A682240C46B22438A605A0610D536
:102130000168134D4A68046C2A4022434A60802299
:102140005203944205D14A680E4C2240446C22430B
:102150004A601B0606D502680B4953680B40816C28
:102160000B43536030BDC046FFFFFDFFFFFFFEFF86
:10217000FFFFFBFFFF7FFFFFFFEFFFFFFFDFFFFF23
:10218000FFFFEFFFFFFF9FFFFFFFF7FFF8B5040022
:102190000E0015001F002268D36933409B1B594273
:1021A0004B41AB4201D000201BE0069B0133F3D032
:1021B000FEF788F9069BC01B834201D3002BEAD1AE
:1021C000236808491A6803200A401A609A68A331F4
:1021D000FF318A439A6020236367A367002370342A
:1021E0002370F8BD5FFEFFFF73B500260400C667CD
:1021F000FEF768F9236805001B681B0715D42368E0
:102200001B685B070AD580210E4B00220093C9038F
:102210002B002000FFF7BAFF002811D12023002057
:102220006367A367703420700BE08021054B320098
:102230000093890303002000FFF7A8FF0028DED0E9
:10224000032076BDFFFFFF0110B5041E01D1012060
:1022500010BD436F002B04D102007032137000F0E8
:102260009DFA2423012122686367136820008B43B1
:102270001360FFF7F1FD0128E9D0636A002B02D05B
:102280002000FFF71BFF236807495A6820000A4017
:102290002A215A609A688A439A60012219680A437F
:1022A0001A60FFF7A1FFD3E7FFB7FFFF70470000F9
:1022B0001FB5642302935E3B0193054B82B20093EA
:1022C000A62101230348FEF747FC05B000BDC04628
:1022D000DC0100208400002030B59DB038220021B0
:1022E0000EA800F037FB14220021684600F032FBF4
:1022F0002422002105A800F02DFB1949194A0B687A
:1023000000241A4080231B0113430B600A230E9301
:10231000063312930E3B189380231B031A938023DA
:1023200001251B040EA81B93119513951994FEF714
:1023300057FD0F232900009368460C3B019302943C
:1023400003940494FEF7D8FF2A230593802305A85D
:102350009B0208940A940693FFF7A6F81DB030BDBF
:1023600000700040FFE7FFFFF0B5012797B00CAD0C
:10237000FEF78CF8FFF7B0FF14220021280000F0D0
:10238000E9FA02210420914B914CDA6A914E3A43CA
:10239000DA62DA6A3A400392039ADA6A0A43DA6244
:1023A000DA6A0A400492049AD96A0143D962802108
:1023B000DA6A0240A0200592059ADA6AC0050A434B
:1023C000DA62DB6A00220B4006932100069BFEF7CF
:1023D000B5F9002207218048FEF7B0F9A0200223BA
:1023E0000C9400242900C0056F60AC60EB60FEF720
:1023F000E9F81323290079486E60AC600C93FEF76E
:10240000E1F8802329009B0173486E60AC600C9357
:10241000FEF7D8F8072329000C936F48053BEB60C3
:102420006F60AC60FEF7CEF8220021000520FEF7B9
:102430004FF80520FEF77CF8220021000720FEF768
:1024400047F80720FEF774F82100142207A800F0CF
:1024500081FA210028222800029400F07BFA604EC5
:10246000604B300033601F23B3605F4B7460F360D8
:1024700034617461B461F461FFF75AF96B4622006C
:1024800007A930001C775C779C770A940B94FFF7C0
:10249000B7F96B46220002A930001F725F729F726B
:1024A000DC72FFF72BFAF0231B05AB6131236B4481
:1024B000DF778023220029005B0030002C706C70D5
:1024C000AC706C60EC602C616C61EC616B62FFF76E
:1024D00081FA4648464B8225036080239B00836136
:1024E000E13BFF3B6D00C361193B45608460C46004
:1024F00004614461046244628462C362FFF736FB94
:102500003C483D4B4560036007238460C460046120
:1025100044618461C461046244628462C362FFF7FF
:1025200025FB364E364B30003360E1235B0273608F
:102530000C23B460F46034617361B461F46134629B
:102540007462FFF781FE2F4D2F4B28002B602F4B1D
:10255000AC606B60EF602C616C61AC61EC612C6213
:10256000FEF70EFA21002800FEF7B4FB2100280038
:10257000FEF7D6FB2D233121254A28005470254C27
:1025800013706770244F21703B70253B7B700233C2
:1025900000937531083BFEF749FA0A2322000093A5
:1025A000A621083B2800FEF741FA0A233A000093CF
:1025B000A621083B2800FEF739FA3220FFF778FE03
:1025C000062216493000FFF75FFBF6E700100240D5
:1025D000029000000000111000080050000400509C
:1025E000DC00002000280040FF0300000401002060
:1025F000003001402C000020003800405C01002029
:10260000004400408400002000540040BB7C700067
:10261000DD01002024000020D0000020DC0100208B
:102620000122054B596B0A435A638022996B52056C
:102630000A439A637047C04600100240F0B5040098
:1026400087B01422002101A800F084F9164B2268FB
:102650009A4227D10221154C0125E26A12270A432A
:10266000E262E36A03260B400093009B80239B00F9
:102670000193FD3BFF3B01A90D480593029703958C
:102680000496FDF79FFF402301A909480193029793
:10269000039504960595FDF795FF8023A26B9B0398
:1026A0001343A36307B0F0BD005400400010024084
:1026B00000040050094B026810B59A420DD18023E6
:1026C000074ADB02116D02200B4313650022110043
:1026D000FDF7FEFE0220FDF72BFF10BD0028004095
:1026E0000010024030B5040089B01422002103A874
:1026F00000F030F92368254A93422CD1802202242D
:10270000234B5201596B03250A4301215A63DA6AAC
:1027100020482243DA62DA6A22400092009ADA6A9A
:102720000A43DA62DB6A04940B400193019B08239D
:1027300003A903930695FDF745FFC023A02003934B
:102740000023049405930695079303A9C005FDF79C
:1027500039FF09B030BD104A9342FAD180220C4BA8
:10276000D201996B0B480A439A630222D96A11433A
:10277000D962DB6A03A913400293029BF0231B0278
:102780000393032304920693E1E7C046003001401F
:1027900000100240000400500038004010B5040052
:1027A00086B01422002101A800F0D4F8144B22684E
:1027B0009A4222D18022134B9202996BA0200A43A5
:1027C00001219A63DA6AC0050A43DA62DB6A0B40C8
:1027D0000093009B0C2301930A3B02935B18049324
:1027E0005B1801A90593FDF7EDFE00221C201100E6
:1027F000FDF76EFE1C20FDF79BFE06B010BDC04627
:1028000000440040001002407047FEE770477047E8
:1028100010B5FDF74FFE10BD10B50248FEF722FFC0
:1028200010BDC046DC00002010B50120FDF78EFF72
:102830000220FDF78BFF10BD10B51020FDF786FFBD
:1028400080208001FDF782FF10BD000010B5024816
:10285000FFF75AFA10BDC0465C0100208022104BE1
:10286000520019680A431A60DA680E490A40DA60B1
:102870001A680D490A4001211A609A688A439A60D1
:102880001A680A490A401A60DA6809490A40DA6097
:1028900000221A618022074B12059A607047C046D9
:1028A000001002400C40FF88F6FFF6FEFFFFFBFF22
:1028B000FFFF02FF00ED00E00D488546002103E028
:1028C0000C4B5B58435004310B480C4B42189A4256
:1028D000F6D30B4A02E0002313600432094B9A42FC
:1028E000F9D3FFF7BBFF00F011F8FFF73DFDFEE75E
:1028F00000500020C0290008000000200400002033
:1029000004000020E0010020FEE7000070B5002672
:102910000C4D0D4C641BA410A64209D1002600F0FA
:1029200021F80A4D0A4C641BA410A64205D170BDC3
:10293000B300EB5898470136EEE7B300EB589847E1
:102940000136F2E7B8290008B8290008B8290008BC
:10295000BC29000803008218934200D17047197007
:102960000133F9E7F8B5C046F8BC08BC9E4670478D
:0C297000F8B5C046F8BC08BC9E46704795
:10297C0001040208001010100410101002101010A6
:10298C000800000000000000000102030406070814
:10299C00090000000001020304030406080C1018CF
:0429AC0020300000D7
:0829B000D8D8FF7F01000000F0
:0429B800E90000082A
:0429BC00C10000084E
:0429C00000002000F3
:04000005080028B90E
:00000001FF
