:020000040800F2
:10000000005000209D250008C5240008CF240008CA
:1000100000000000000000000000000000000000E0
:10002000000000000000000000000000D5240008CF
:100030000000000000000000DF240008E9240008A0
:10004000ED250008ED250008ED250008ED25000848
:10005000ED250008ED250008ED250008ED25000838
:10006000ED250008FD240008ED250008ED25000819
:10007000ED250008ED250008ED250008ED25000818
:10008000ED250008ED250008ED2500080000000022
:10009000ED250008ED250008ED250008ED250008F8
:1000A000ED250008ED250008ED250008ED250008E8
:1000B000ED250008ED25000800000000ED250008F2
:1000C00010B5064C2378002B07D1054B002B02D02E
:1000D000044800E000BF0123237010BD040000208D
:1000E0000000000038260008044B10B5002B03D098
:1000F0000349044800E000BF10BDC04600000000F6
:100100000800002038260008002243088B4274D3E0
:1001100003098B425FD3030A8B4244D3030B8B4208
:1001200028D3030C8B420DD3FF22090212BA030C11
:100130008B4202D31212090265D0030B8B4219D3F2
:1001400000E0090AC30B8B4201D3CB03C01A524112
:10015000830B8B4201D38B03C01A5241430B8B425A
:1001600001D34B03C01A5241030B8B4201D30B0343
:10017000C01A5241C30A8B4201D3CB02C01A52416A
:10018000830A8B4201D38B02C01A5241430A8B422D
:1001900001D34B02C01A5241030A8B4201D30B0216
:1001A000C01A5241CDD2C3098B4201D3CB01C01A30
:1001B000524183098B4201D38B01C01A524143093A
:1001C0008B4201D34B01C01A524103098B4201D328
:1001D0000B01C01A5241C3088B4201D3CB00C01A95
:1001E000524183088B4201D38B00C01A524143080D
:1001F0008B4201D34B00C01A5241411A00D2014632
:10020000524110467047FFE701B5002000F006F8A4
:1002100002BDC0460029F7D076E770477047C04658
:1002200080B500AF074B074A126840210A431A60A5
:10023000002000F009F802F01BF900231800BD4669
:1002400080BDC0460020024080B582B000AF78601B
:100250000B4B1A68FA2399001000FFF755FF0300B3
:10026000180000F083FC796801235B42002218002B
:1002700000F056FC00231800BD4602B080BDC04609
:100280000000002080B500AF034B1B685A1C024BD6
:100290001A60C046BD4680BD2000002080B500AF7A
:1002A000024B1B681800BD4680BDC04620000020E0
:1002B00080B582B000AF78607B68002B01D101234C
:1002C00053E17B689B6D002B0AD17B680022DA65C5
:1002D0007B685422002199547B68180001F06CFF60
:1002E0007B689B6D1022134005D17B681B689B685F
:1002F000042213400BD07B689B6D10221A437B684D
:100300009A657B6854220021995401232DE17B6872
:100310009B6D984A134002221A437B689A657B685A
:100320001B689B6803221340012B08D17B681B6864
:100330001B6801221340012B01D1012300E000239F
:10034000002B49D17B685A68C0231B069A420BD008
:100350007B685A688023DB059A4205D07B685A681F
:1003600080231B069A4211D17B681B687A68126849
:100370001269920092081A617B681B687A68126899
:1003800011697A6852680A431A6114E07B681B6835
:100390007A6812681269920092081A61764B764A5E
:1003A000126876490A401A60734A734B19687B6871
:1003B0005B680B4313607B681B687A681268D268BD
:1003C00018218A43DA607B681B687A681268D168F2
:1003D0007A6892680A43DA60674B674A126868492C
:1003E0000A401A60644A644B19687B689B6B5B0621
:1003F0000B4313607B681B689A6880235B0513407E
:1004000008D17B681B687A68126892688021490568
:100410000A439A607B681B687A681268D2685949F7
:100420000A40DA607B681B687A681268D1687A686B
:10043000D0687A681269022A01D1042200E0002201
:1004400010437A68126A520310437A68126B5200A2
:1004500010437A68526B10437A6892699203104392
:100460007A68D269D20302430A43DA607B689A6AE7
:10047000C223FF339A420BD07B681B687A681268EC
:10048000D1687A68906A7A68D26A02430A43DA606D
:100490007B685B6A012B19D17B681B6A002B09D131
:1004A0007B681B687A681268D268802149020A4317
:1004B000DA600BE07B689B6D20221A437B689A65AB
:1004C0007B68DB6D01221A437B68DA657B681B6CF5
:1004D000012B1FD17B681B687A68126812692A4950
:1004E0000A401A617B681B687A68126811697A6829
:1004F000506C7A68926C10437A68D26C02430A435B
:100500001A617B681B687A681268126901210A43C4
:100510001A610DE07B681B681B690122134007D03C
:100520007B681B687A681268126901218A431A6124
:100530007B681B687A681268526907218A435A618E
:100540007B681B687A68126851697A68D26B0A43C3
:100550005A617B680022DA657B689B6D03229343B6
:1005600001221A437B689A6500231800BD4602B039
:1005700080BDC046FDFEFFFF08270140FFFFC3FF0F
:10058000FFFFFFFD1902FEFF03FCFFFF90B587B0E0
:1005900000AFF860B9607A601723FB1800221A7068
:1005A000FB681B689B68042213405ED1FB685422E1
:1005B0009B5C012B01D102235EE0FB6854220121E8
:1005C0009954FB68DB69012B07D01723FC18FB68E3
:1005D000180000F0FBF8030023701723FB181B78AA
:1005E000002B46D1FB689B6D254A134080225200A8
:1005F0001A43FB689A65FB680022DA65FB6854229F
:1006000000219954FB681B6D1E4ADA62FB681B6D62
:100610001D4A1A63FB681B6D1C4A5A63FB681B6802
:100620001C221A60FB681B68FA6812685268102165
:100630000A435A60FB681B68FA681268D268012195
:100640000A43DA60FB68186DFB681B6840331900C9
:10065000BA687B6800F0AAFBFB681B68FA6812683E
:10066000926804210A439A6003E01723FB180222D0
:100670001A701723FB181B781800BD4607B090BDF1
:10068000FEF0FFFF8D080008410900085F0900081F
:1006900080B582B000AF7860C046BD4602B080BD74
:1006A00080B582B000AF7860C046BD4602B080BD64
:1006B00080B582B000AF7860C046BD4602B080BD54
:1006C00080B582B000AF786039607B6854229B5C53
:1006D000012B01D102236CE07B6854220121995443
:1006E0007B681B689B68042213400BD07B689B6D62
:1006F00020221A437B689A657B6854220021995412
:10070000012356E03B685B682C4A934228D07B6803
:100710001B687A681268916A3A6812685203520B31
:100720000A439A623B681A688023DB02134009D0AF
:10073000234B234A1268802109040A431A600A20C5
:1007400000F028F93B681A6880239B0213402BD0E5
:100750001B4B1B4A12688021C9030A431A6023E01D
:100760007B681B687A681268916A3A68126852035B
:10077000520BD2430A409A623B681A688023DB021C
:10078000134005D00E4B0E4A12680E490A401A60FB
:100790003B681A6880239B02134005D0084B084A27
:1007A000126809490A401A607B6854220021995452
:1007B00000231800BD4602B080BDC04601100000F5
:1007C00008270140FFFF7FFFFFFFBFFF80B584B018
:1007D00000AF78600023FB607B681B689B68032286
:1007E0001340012B08D17B681B681B680122134052
:1007F000012B01D1012300E00023002B3FD17B68B6
:100800001B689B68204A13400DD07B689B6D1022AB
:100810001A437B689A657B68DB6D01221A437B680B
:10082000DA6501232CE07B681B687A68126892689D
:1008300001210A439A60012000F0ACF8FFF72EFD79
:100840000300FB6014E0FFF729FD0200FB68D31AE8
:100850000A2B0DD97B689B6D10221A437B689A6521
:100860007B68DB6D01221A437B68DA65012307E0B0
:100870007B681B681B6801221340012BE3D1002316
:100880001800BD4604B080BD1700008080B584B05C
:1008900000AF78607B689B6AFB60FB689B6D5022B1
:1008A000134040D1FB689B6D802292001A43FB6885
:1008B0009A65FB681B68DA68C0231B0113402DD1C1
:1008C000FB681B6A002B29D1FB681B681B68082288
:1008D0001340082B22D1FB681B689B68042213403D
:1008E00010D1FB681B68FA68126852680C218A43B1
:1008F0005A60FB689B6D114A134001221A43FB6842
:100900009A650BE0FB689B6D20221A43FB689A6591
:10091000FB68DB6D01221A43FB68DA65FB6818008F
:10092000FFF7B6FE05E0FB681B6D5B6B7A68100095
:100930009847C046BD4604B080BDC046FEFEFFFFDE
:1009400080B584B000AF78607B689B6AFB60FB6811
:100950001800FFF7A5FEC046BD4604B080BD80B5B7
:1009600084B000AF78607B689B6AFB60FB689B6D1E
:1009700040221A43FB689A65FB68DB6D04221A4328
:10098000FB68DA65FB681800FFF792FEC046BD46BB
:1009900004B080BD80B584B000AF78600A4B1B689E
:1009A0000A491800FFF7B0FB03001A007B685343A5
:1009B000FB6002E0FB68013BFB60FB68002BF9D1A8
:1009C000C046BD4604B080BD0000002040420F007C
:1009D00080B582B000AF0200FB1D1A70064BFA1DF5
:1009E000127811001F220A40012191400A001A606A
:1009F000C046BD4602B080BD00E100E0B0B582B0A7
:100A000000AF02003960FB1D1A70FB1D1B787F2BA5
:100A100032D92F4CFB1D1B781A000F231340083BC3
:100A200099082B4AFB1D1B7818000F230340083B35
:100A30009B0806339B00D31804331B68FA1D1278F9
:100A4000100003220240D200FF2090400200D24357
:100A50001A403B689B01FF201840FB1D1B781D00BE
:100A600003232B40DB00984003001A438B1D9B009F
:100A7000E31804331A6027E0164CFB1D1B785BB2A9
:100A80009B081449FA1D127852B29208C0329200A3
:100A90005258F91D0978080003210140C900FF20C0
:100AA00088400100C94311403A689201FF2010407C
:100AB000FA1D1278150003222A40D200904002004D
:100AC0000A43C0339B001A51C046BD4602B0B0BDB8
:100AD00000ED00E000E100E080B582B000AF78609A
:100AE0007B68013B0C4A934201D9012310E00B4B78
:100AF0007A68013A5A6001235B4203211800FFF72C
:100B00007DFF064B00229A60044B07221A600023E7
:100B10001800BD4602B080BDFFFFFF0010E000E0FE
:100B200080B584B000AFB9607A600F23FB18021C57
:100B30001A70BA680F23FB181B785BB211001800FB
:100B4000FFF75CFFC046BD4604B080BD80B582B0F3
:100B500000AF0200FB1D1A70FB1D1B785BB2180072
:100B6000FFF736FFC046BD4602B080BD80B582B0FB
:100B700000AF78607B681800FFF7AEFF0300180035
:100B8000BD4602B080BD000080B582B000AF786085
:100B90007B68042B06D1084B074A126804210A43DC
:100BA0001A6005E0044B044A126804218A431A6063
:100BB000C046BD4602B080BD10E000E080B500AF89
:100BC00000F003F8C046BD4680BD80B500AFC0460A
:100BD000BD4680BD80B584B000AF78600023FB6067
:100BE0007B68002B01D10123BFE07B6825229B5C41
:100BF000DBB2002B03D17B682422002199547B684F
:100C00002522022199547B681B681B68FB60FB68E6
:100C1000584A1340FB607B689A687B68DB681A431C
:100C20007B681B691A437B685B691A437B689B6915
:100C30001A437B68DB691A437B681B6A1343FA68B3
:100C40001343FB607B681B68FA681A607B681B684B
:100C5000494A93420DD1494B484A12680F218A43B1
:100C60001A60464A454B19687B685B680B43136002
:100C700076E07B681B68424A93420ED13F4B3F4A65
:100C80001268F0218A431A603C4A3C4B19687B6821
:100C90005B681B010B43136062E07B681B68394A89
:100CA00093420ED1354B354A126837490A401A60D3
:100CB000324A324B19687B685B681B020B43136036
:100CC0004EE07B681B68314A93420ED12B4B2B4A76
:100CD00012682F490A401A60284A284B19687B6815
:100CE0005B681B030B4313603AE07B681B68294A6F
:100CF00093420ED1214B214A126827490A401A60BB
:100D00001E4A1E4B19687B685B681B040B4313600B
:100D100026E07B681B68214A93420ED1174B174A85
:100D200012681F490A401A60144A144B19687B68FC
:100D30005B681B050B43136012E07B681B68194A54
:100D400093420DD10D4B0D4A126817490A401A60A3
:100D50000A4A0A4B19687B685B681B060B431360E1
:100D60007B6825220121995400231800BD4604B058
:100D700080BDC0460FC0FFFF08000240A80002402F
:100D80001C00024030000240FFF0FFFF4400024020
:100D9000FF0FFFFF58000240FFFFF0FF6C00024012
:100DA000FFFF0FFF80000240FFFFFFF080B584B01F
:100DB00000AFF860B9607A603B60FB6824229B5CFE
:100DC000012B01D1022336E0FB6824220121995432
:100DD000FB68252202219954FB681B68FA68126897
:100DE000126801218A431A603B687A68B968F8681A
:100DF00000F010FAFB681B68FA681268126802219A
:100E00000A431A60FB681B68FA68126812680421BA
:100E10000A431A60FB681B68FA68126812680821A6
:100E20000A431A60FB681B68FA681268126801219D
:100E30000A431A6000231800BD4604B080BD0000BC
:100E400080B582B000AF7860B04B1A687B681B68D1
:100E50001900AF4B99422ED07B681B681900AD4B2F
:100E6000994226D07B681B681900AB4B99421DD074
:100E70007B681B681900A94B994214D07B681B68DA
:100E80001900A74B99420BD07B681B681900A54B32
:100E9000994202D180231B040EE080231B050BE046
:100EA00080231B0308E080231B0205E080231B0135
:100EB00002E0802300E0082313405CD07B681B68BD
:100EC0001B680822134056D07B681B687A6812683A
:100ED000126808218A431A608C4A7B681B681900D3
:100EE0008B4B99422ED07B681B681900894B994225
:100EF00026D07B681B681900874B99421DD07B6800
:100F00001B681900854B994214D07B681B68190037
:100F1000834B99420BD07B681B681900814B994227
:100F200002D180231B040EE080231B050BE08023ED
:100F30001B0308E080231B0205E080231B0102E065
:100F4000802300E0082353607B68DB6B01221A4397
:100F50007B68DA637B682522042199547B6824220C
:100F6000002199547B685B6B002B04D07B685B6B22
:100F70007A6810009847654B1A687B681B681900EF
:100F8000634B99422ED07B681B681900614B9942D4
:100F900026D07B681B6819005F4B99421DD07B6887
:100FA0001B6819005D4B994214D07B681B681900BF
:100FB0005B4B99420BD07B681B681900594B9942D7
:100FC00002D18023DB030EE08023DB040BE08023CF
:100FD000DB0208E08023DB0105E08023DB0002E088
:100FE000402300E00423134058D07B681B681B6833
:100FF0000422134052D07B681B681B6820221340D8
:1010000007D17B681B687A681268126804218A43DA
:101010001A603E4A7B681B6819003D4B99422ED0EE
:101020007B681B6819003B4B994226D07B681B6884
:101030001900394B99421DD07B681B681900374B4A
:10104000994214D07B681B681900354B99420BD02C
:101050007B681B681900334B994202D18023DB0364
:101060000EE08023DB040BE08023DB0208E080231A
:10107000DB0105E08023DB0002E0402300E00423E5
:1010800053607B682522052199547B681B6B002BDC
:1010900004D07B681B6B7A68100098471B4B1A685A
:1010A0007B681B6819001A4B99423DD07B681B680E
:1010B0001900184B994226D07B681B681900164B03
:1010C00099421DD07B681B681900144B994214D0BB
:1010D0007B681B681900124B99420BD07B681B6818
:1010E0001900104B994202D180239B031DE08023FD
:1010F0009B041AE080239B0217E080239B0114E0ED
:1011000080239B0011E020230FE0C0460000024036
:10111000080002401C00024030000240440002402F
:10112000580002406C0002400223134060D07B68EC
:101130001B681B68022213405AD07B681B681B681F
:101140002022134007D17B681B687A6812681268F6
:1011500002218A431A60284A7B681B681900274BC2
:1011600099422ED07B681B681900254B994226D0E6
:101170007B681B681900234B99421DD07B681B6854
:101180001900214B994214D07B681B6819001F4B32
:1011900099420BD07B681B6819001D4B994202D104
:1011A00080239B030EE080239B040BE080239B02A3
:1011B00008E080239B0105E080239B0002E02023C0
:1011C00000E0022353607B68DA6B7B68DA637B683C
:1011D0002522012199547B682422002199547B689F
:1011E000DB6A002B04D07B68DB6A7A6810009847C2
:1011F000C046BD4602B080BD00000240080002406B
:101200001C000240300002404400024058000240EE
:101210006C00024080B584B000AFF860B9607A60BD
:101220003B60FB681B683A685A60FB689B68102B40
:1012300008D1FB681B687A689A60FB681B68BA680B
:10124000DA6007E0FB681B68BA689A60FB681B6895
:101250007A68DA60C046BD4604B080BD80B586B00D
:1012600000AF7860396000237B610023FB600023BE
:101270003B6155E13B681B6801217A6991400A0096
:101280001340FB60FB68002B00D146E13B685B68C4
:10129000022B03D03B685B68122B23D17B69DA08F1
:1012A0007B6808329200D3583B617B690722134068
:1012B0009B000F229A401300DA433B6913403B61C5
:1012C0003B681A697B6907210B409B009A40130019
:1012D0003A6913433B617B69DA087B680832920004
:1012E0003969D1503B685B68012B0BD03B685B6868
:1012F000022B07D03B685B68112B03D03B685B680F
:10130000122B30D17B689B683B617B695B000322B9
:101310009A401300DA433B6913403B613B68DA684B
:101320007B695B009A4013003A6913433B617B6819
:101330003A699A607B685B683B6101227B699A40ED
:101340001300DA433B6913403B613B685B681B0950
:1013500001221A407B699A4013003A6913433B61AA
:101360007B683A695A607B681B683B617B695B00FC
:1013700003229A401300DA433B6913403B613B6808
:101380005B6803221A407B695B009A4013003A694C
:1013900013433B617B683A691A607B68DB683B6199
:1013A0007B695B0003229A401300DA433B691340D8
:1013B0003B613B689A687B695B009A4013003A691D
:1013C00013433B617B683A69DA603B685A68802363
:1013D0005B05134000D1A0E0574B574A526B0121E7
:1013E0000A435A63554A7B699B0802339B009B580A
:1013F0003B617B69032213409B000F229A4013003C
:10140000DA433B6913403B617A68A023DB059A42CB
:101410001FD07B684A4A934219D07B68494A93425D
:1014200013D07B68484A93420DD07B68474A934269
:1014300007D07B68464A934201D105230AE0062380
:1014400008E0042306E0032304E0022302E0012372
:1014500000E000237A6903210A40920093403A6930
:1014600013433B6135497B699B0802339B003A6912
:101470005A50384B1B683B61FB68DA433B691340A9
:101480003B613B685A6880235B02134003D03A6992
:10149000FB6813433B612F4B3A691A602D4B5B6825
:1014A0003B61FB68DA433B6913403B613B685A6828
:1014B00080239B02134003D03A69FB6813433B61CE
:1014C000244B3A695A60234B9B683B61FB68DA43C3
:1014D0003B6913403B613B685A6880235B031340C0
:1014E00003D03A69FB6813433B611A4B3A699A602F
:1014F000184BDB683B61FB68DA433B6913403B6197
:101500003B685A6880239B03134003D03A69FB6809
:1015100013433B610F4B3A69DA607B6901337B61AE
:101520003B681A687B69DA40131E00D0A2E6C04609
:10153000BD4606B080BDC04600100240000001401C
:101540000004005000080050000C00500010005033
:10155000001C00500004014080B582B000AF7860EC
:1015600008001100BB1C021C1A807B1C0A1C1A708C
:101570007B1C1B78002B04D0BB1C1A887B689A61EB
:1015800003E0BB1C1A887B689A62C046BD4602B065
:1015900080BD80B582B000AF78600A00BB1C1A80A5
:1015A0007B685A69BB1C1B885A407B685A61C046DD
:1015B000BD4602B080BD000080B586B000AF786047
:1015C00000233B617B681B680122134000D187E048
:1015D000C04BDB680C221340082B0ED0BD4BDB68E0
:1015E0000C2213400C2B16D1BA4BDA6880235B0215
:1015F0001A4080235B029A420DD1B64B1A688023B1
:101600009B02134000D16AE07B685B68002B66D1C7
:10161000012300F069FB7B685A6880235B029A42D1
:1016200007D1AC4BAB4A1268802149020A431A60C9
:1016300027E07B685A68A023DB029A420ED1A54BB3
:10164000A44A12688021C9020A431A60A14BA14A28
:101650001268802149020A431A6012E09D4B9D4A9C
:1016600012689D490A401A609A4B1A6880235B02EF
:101670001340FB60FB68974B964A126897490A40F3
:101680001A607B685B68002B14D0FEF707FE03002E
:101690003B6108E0FEF702FE02003B69D31A642BAF
:1016A00001D9032320E38B4B1A6880239B0213404C
:1016B000F0D015E0FEF7F2FD03003B6108E0FEF715
:1016C000EDFD02003B69D31A642B01D903230BE320
:1016D000804B1A6880239B021340F0D100E0C04683
:1016E0007B681B680222134000D16CE0794BDB68F9
:1016F0000C221340042B0BD0764BDB680C221340DA
:101700000C2B1BD1734BDA6880235B02134015D17D
:10171000704B1B680422134005D07B68DB68012BEB
:1017200001D00123E0E26B4A6A4B5B686C491940C7
:101730007B681B691B020B43536044E07B68DB68DA
:10174000002B27D0634A634B1B6809218B43190088
:101750007B68DB680B431360FEF7A0FD03003B6171
:1017600008E0FEF79BFD02003B69D31A022B01D96A
:101770000323B9E2574B1B6804221340F1D0554AAA
:10178000544B5B68564919407B681B691B020B432D
:10179000536018E04F4B4F4A126801218A431A6088
:1017A000FEF77CFD03003B6108E0FEF777FD0200D9
:1017B0003B69D31A022B01D9032395E2454B1B68E1
:1017C00004221340F1D17B681B681022134000D122
:1017D000C2E0404BDB680C22134062D13D4B1A68DB
:1017E00080239B00134005D07B68DB69002B01D16F
:1017F000012379E27B685A6A364B5968E0231B0261
:101800000B409A421CD97B685B6A180000F018FCF8
:10181000031E01D0012367E22E4A2E4B5B6831493B
:1018200019407B685B6A0B4353602A4A294B5B680B
:101830001B02190A7B681B6A1B060B4353601BE0E3
:10184000244A244B5B68274919407B685B6A0B4339
:101850005360204A1F4B5B681B02190A7B681B6A96
:101860001B060B4353607B685B6A180000F0E8FBC3
:10187000031E01D0012337E27B685B6A5B0B0133F7
:10188000802212029A40134BDB681B090F210B4088
:101890001549CB5CDA40154B1A600020FEF7D4FCEA
:1018A0005AE07B68DB69002B3CD00A4B094A12687E
:1018B000802149000A431A60FEF7F0FC03003B61F7
:1018C00016E0FEF7EBFC02003B69D31A022B0FD99E
:1018D000032309E200100240FFFFFEFFFFFFFBFFB2
:1018E000FFE0FFFFFF1FFFFF702600080000002041
:1018F000C74B1A6880239B001340E2D0C44AC44BF4
:101900005B68C44919407B685B6A0B435360C04AFB
:10191000BF4B5B681B02190A7B681B6A1B060B43E3
:10192000536019E0BA4BBA4A1268BB490A401A60C0
:10193000FEF7B4FC03003B6108E0FEF7AFFC0200D9
:101940003B69D31A022B01D90323CDE1B04B1A68AE
:1019500080239B001340F0D17B681B680822134052
:1019600036D07B685B69002B19D0A94BA84A126D51
:1019700001210A431A65FEF791FC03003B6108E070
:10198000FEF78CFC02003B69D31A022B01D903231A
:10199000AAE19F4B1B6D02221340F1D018E09C4B33
:1019A0009B4A126D01218A431A65FEF777FC0300FA
:1019B0003B6108E0FEF772FC02003B69D31A022B80
:1019C00001D9032390E1924B1B6D02221340F1D108
:1019D0007B681B680422134000D1AFE01723FB187B
:1019E00000221A708A4B9A6B80235B0513400AD140
:1019F000874B874A926B802149050A439A631723D4
:101A0000FB1801221A70854B1A6880235B00134073
:101A10001AD1824B814A1268802149000A431A6018
:101A2000FEF73CFC03003B6108E0FEF737FC0200D8
:101A30003B69D31A642B01D9032355E1774B1A680C
:101A400080235B001340F0D07B689A6880235B00A2
:101A50009A4207D16E4B6E4A126D802149000A43AB
:101A60001A6531E07B689B68002B0CD1684B684A93
:101A7000126D69490A401A65654B654A126D6849DD
:101A80000A401A6520E07B689A68A023DB009A422E
:101A90000ED15F4B5E4A126D8021C9000A431A6560
:101AA0005B4B5B4A126D802149000A431A650BE0CB
:101AB000574B574A126D58490A401A65544B544ABD
:101AC000126D57490A401A657B689B68002B15D038
:101AD000FEF7E4FB03003B6109E0FEF7DFFB0200D9
:101AE0003B69D31A4F4A934201D90323FCE0484B88
:101AF0001A6D80239B001340EFD014E0FEF7CEFB5D
:101B000003003B6109E0FEF7C9FB02003B69D31A01
:101B1000444A934201D90323E6E03D4B1A6D8023EA
:101B20009B001340EFD11723FB181B78012B05D125
:101B3000374B374A926B3C490A409A637B681B6873
:101B40002022134049D07B689B69002B26D0304B64
:101B50002F4A926801210A439A602D4B2C4A526BFE
:101B600001210A435A63314B304A126A80218901AC
:101B70000A431A62FEF792FB03003B6108E0FEF79E
:101B80008DFB02003B69D31A022B01D90323ABE082
:101B90001F4B9B6802221340F1D01EE01C4B1C4AD5
:101BA000926801218A439A60204B204A126A204998
:101BB0000A401A62FEF772FB03003B6108E0FEF781
:101BC0006DFB02003B69D31A022B01D903238BE082
:101BD0000F4B9B6802221340F1D17B689B6A002B5C
:101BE00000D180E00A4BDB680C2213400C2B00D1A3
:101BF00077E07B689B6A022B58D1054B044A126838
:101C00000C490A401A60FEF749FB03003B611CE0E7
:101C100000100240FF1FFFFFFFFEFFFF00700040AB
:101C2000FFFBFFFF88130000FFFFFFEF00000140F4
:101C3000FFDFFFFFFFFFFFFEFEF730FB02003B6907
:101C4000D31A022B01D903234EE0294B1A688023B3
:101C50009B041340F0D1264A254BDB6825491940E7
:101C60007B68D86A7B681B6B18437B685B6B03439C
:101C70000B43D3601E4B1E4A1268802149040A435D
:101C80001A60FEF70BFB03003B6108E0FEF706FB62
:101C900002003B69D31A022B01D9032324E0144B21
:101CA0001A6880239B041340F0D01CE0104B104AAC
:101CB000126811490A401A60FEF7F0FA03003B610E
:101CC00008E0FEF7EBFA02003B69D31A022B01D9B8
:101CD000032309E0064B1A6880239B041340F0D1CC
:101CE00001E0012300E000231800BD4606B080BDDE
:101CF00000100240FFFF02FFFFFFFFFE80B584B02F
:101D000000AF786039600023FB60824B1B680122C2
:101D10001A403B689A4211D27E4B7E4A12680121DA
:101D20008A4311003A680A431A607A4B1B68012201
:101D30001A403B689A4201D00123E6E07B681B68A9
:101D40000222134009D0744A734BDB68F0218B43A5
:101D500019007B689B680B43D3607B681B6801227A
:101D6000134000D189E07B685B68022B07D16A4B86
:101D70001A6880239B02134020D10123C5E07B68B1
:101D80005B68032B07D1644B1A6880239B041340C4
:101D900014D10123B9E07B685B68012B06D15E4B4F
:101DA0001B680422134009D10123AEE05A4B1A6884
:101DB00080239B00134001D10123A6E0564A564BD5
:101DC000DB6803218B4319007B685B680B43D3609E
:101DD000FEF764FA0300FB607B685B68022B11D19D
:101DE00009E0FEF75BFA0200FB68D31A4B4A934204
:101DF00001D9032389E0484BDB680C221340082BF0
:101E0000EFD13AE07B685B68032B11D109E0FEF764
:101E100045FA0200FB68D31A404A934201D90323D2
:101E200073E03D4BDB680C2213400C2BEFD124E018
:101E30007B685B68012B1BD109E0FEF72FFA0200DB
:101E4000FB68D31A354A934201D903235DE0324B34
:101E5000DB680C221340042BEFD10EE0FEF71EFAD4
:101E60000200FB68D31A2D4A934201D903234CE0A8
:101E7000294BDB680C221340F0D1264B1B68012252
:101E80001A403B689A4211D9224B224A126801211A
:101E90008A4311003A680A431A601E4B1B680122EC
:101EA0001A403B689A4201D001232EE07B681B68F0
:101EB0000422134008D0184A174BDB681849194010
:101EC0007B68DB680B43D3607B681B680822134088
:101ED00009D0114A104BDB68124919407B681B6915
:101EE000DB000B43D36000F023F801000A4BDB68F2
:101EF0001B090F2213400C4AD35C0A00DA400B4B3B
:101F00001A600020FEF7A0F900231800BD4604B0B7
:101F100080BDC0460020024000100240881300002F
:101F2000FFF8FFFFFFC7FFFF70260008000000203A
:101F300080B586B000AF0023FB600023BB600023A8
:101F40007B6000237B6100233B6000233B61324BBD
:101F5000DB68FB60FB680C221340082B0ED00C2BB7
:101F60000FD0042B45D12C4B1B681022134002D0FC
:101F70002A4B3B614BE02A4B3B6148E0294B3B61DC
:101F800045E0FB689B0C0F221340274AD35CBB60E3
:101F9000FB689B0D0322134001337B601E4BDA6804
:101FA00080235B02134009D0BB681E4A5343796803
:101FB0001800FEF7A9F803007B6117E0164B1B68B9
:101FC0001022134009D0BB68144A534379681800A3
:101FD000FEF79AF803007B6108E0BB68104A5343A0
:101FE00079681800FEF790F803007B617B693B611C
:101FF0000DE0094B5B685B0B072213403B603B68BD
:102000000133802212029A4013003B61C0463B69B3
:102010001800BD4606B080BD0010024000093D001A
:102020000024F40000127A008026000880B500AF7A
:10203000024B1B681800BD4680BDC0460000002052
:1020400080B584B000AF78600023FB600023BB60E4
:10205000234BDB68F02213402BD1214B9A6B80235A
:102060005B05134006D01F4B1A68C0235B01134069
:10207000FB6012E01A4B1A4A926B802149050A4311
:102080009A63184B1A68C0235B011340FB60144B22
:10209000134A926B14490A409A63FA68C0235B01A1
:1020A0009A4206D17A68C0231B029A4201D10123C9
:1020B000BB600E4B0D4A126801218A431100BA68B9
:1020C0000A431A60094B1B6801221A40BB689A42F6
:1020D00001D0012300E000231800BD4604B080BDFC
:1020E0000010024000700040FFFFFFEF00200240A0
:1020F00080B582B000AF2C4B2C4A1A602A4B0022CC
:102100001A64294B8022D2055A60274B00229A601C
:10211000254B0722DA63244B01221A61224B00224D
:10212000DA60214B01221A621F4B00225A621E4BB9
:102130000022DA621C4BC222FF329A621A4B012241
:102140001A63194B08225A61174B00225A63164B27
:1021500000229A61144B00229A63134B0022DA6129
:10216000114B1800FEF7A4F8031E04D0104B4F21AA
:10217000180000F077F93B000E4A1A603B008022FD
:1021800052015A603A00084B11001800FEF798FA05
:10219000031E04D0064B5821180000F063F9C04616
:1021A000BD4602B080BDC04664000020002401404E
:1021B000502600081000001080B588B000AF78608D
:1021C0007B681B68284A934249D1284B274A526BA7
:1021D000802189000A435A630C23FB1810221A60DD
:1021E0000C23FB1803225A600C23FB1800229A6070
:1021F0000C23FA18A023DB0511001800FFF72EF8B6
:102200001B4B1C4A1A601A4B00225A60184B0022C2
:102210009A60174B0022DA60154B80221A61144B2A
:10222000802252005A61124B8022D2009A61104BD8
:102230002022DA610E4B802292011A620C4B1800A8
:10224000FEF7C8FC031E04D00B4B7E21180000F0E3
:1022500009F97B68064A1A65054B7A689A62C04696
:10226000BD4608B080BDC0460024014000100240B9
:1022700024000020080002405026000880B582B0EB
:1022800000AF0C4B0B4A126B01210A431A63094B36
:102290001B6B012213407B607B6800220021092018
:1022A000FEF73EFC0920FEF751FCC046BD4602B0D9
:1022B00080BDC0460010024080B588B000AF224B00
:1022C000214AD26A02210A43DA621F4BDB6A0222E8
:1022D0001340BB60BB681C4B1B4AD26A80210A4377
:1022E000DA62194BDB6A802213407B607B68164BF5
:1022F000154AD26A01210A43DA62134BDB6A0122D2
:1023000013403B603B68114B002260211800FFF72F
:1023100023F90C23FB1860221A600C23FB180122FE
:102320005A600C23FB1802229A600C23FB1800222F
:10233000DA600C23FB18054A19001000FEF78EFF27
:10234000C046BD4608B080BD0010024000040050E9
:1023500080B500AFFDF764FF00F012F8FFF7ACFFA7
:10236000FFF78CFFFFF7C4FE0349044B012218005E
:10237000FEF70CF9FEE7C046C40000206400002010
:1023800080B594B000AF344B334A126833490A40E9
:10239000802109010A431A601823FB1802221A60DF
:1023A0001823FB180122DA601823FB1810221A6187
:1023B0001823FB1802229A621823FB180022DA6203
:1023C0001823FB188022D2021A631823FB188022DC
:1023D000D2035A631823FB181800FFF7EDF8031E09
:1023E00004D01F4B9421180000F03CF83B1D0F2235
:1023F0001A603B1D03225A603B1D00229A603B1D60
:102400000022DA603B1D00221A613B1D01211800E9
:10241000FFF774FC031E04D0114BA221180000F03A
:1024200021F8FFF703FE0200FA2399001000FDF7E0
:102430006BFE03001800FEF799FB0420FEF7A4FBD7
:1024400001235B42002200211800FEF769FBC04611
:10245000BD4614B080BDC04600700040FFE7FFFFDE
:102460006026000880B582B000AF78603960FEE772
:1024700080B500AF124B124A526B01210A435A63D6
:102480000F4B0F4A926B802149050A439A6305233B
:102490005B42002200211800FEF742FB02235B4250
:1024A000002200211800FEF73BFB01235B420022C3
:1024B00000211800FEF734FBC046BD4680BDC04673
:1024C0000010024080B500AFC046BD4680BD80B55B
:1024D00000AFFEE780B500AFC046BD4680BD80B509
:1024E00000AFC046BD4680BD80B500AFFDF7CAFE57
:1024F000FEF764FBC046BD4680BD000080B500AF5E
:10250000054B20211800FFF744F8044B1800FEF794
:1025100097FCC046BD4680BD00040050240000204A
:1025200080B500AF174B174A1268802149000A4353
:102530001A60144B134AD26813490A40DA60114BEF
:10254000104A126811490A401A600E4B0D4A9268EF
:1025500001218A439A600B4B0A4A12680C490A40CF
:102560001A60084B074AD2680A490A40DA60054BEC
:1025700000221A61084B802212059A60C046BD46AF
:1025800080BDC046001002400C40FF88F6FFF6FEFA
:10259000FFFFFBFFFFFF02FF00ED00E00D48854657
:1025A000002103E00C4B5B58435004310B480C4BAB
:1025B00042189A42F6D30B4A02E000231360043219
:1025C000094B9A42F9D3FFF7ABFF00F011F8FFF780
:1025D000BFFEFEE700500020942600080000002007
:1025E0000400002004000020C8000020FEE70000D6
:1025F00070B500260C4D0D4C641BA410A64209D1E9
:10260000002600F019F80A4D0A4C641BA410A642DB
:1026100005D170BDB300EB5898470136EEE7B30023
:10262000EB5898470136F2E78C2600088C26000804
:102630008C26000890260008F8B5C046F8BC08BCF7
:102640009E467047F8B5C046F8BC08BC9E46704729
:102650002E2E5C5372635C6164632E630000000085
:102660002E2E5C5372635C6D61696E2E63000000F8
:102670000000000000000000010203040607080932
:0C268000030406080C10182030000000B5
:04268C00E900000859
:04269000C10000087D
:0426940080841E0020
:040000050800259D2D
:00000001FF
