:020000040800F2
:100000000050002021A200086DA0000877A0000881
:1000100000000000000000000000000000000000E0
:100020000000000000000000000000007DA00008AB
:10003000000000000000000087A0000891A0000858
:1000400071A2000871A20008A1A0000871A2000816
:1000500071A20008B9A0000871A20008CFA0000892
:1000600071A2000871A20008E9A000080DA1000813
:1000700071A2000871A2000871A2000871A2000814
:1000800071A2000871A2000871A20008000000001F
:1000900071A2000871A2000871A2000871A20008F4
:1000A00071A2000825A100083DA1000855A1000883
:1000B0008DA1000871A200080000000071A20008D4
:1000C00010B5064C2378002B07D1054B002B02D02E
:1000D000044800E000BF0123237010BDB0060020DB
:1000E0000000000064D50008044B10B5002B03D0BD
:1000F0000349044800E000BF10BDC04600000000F6
:10010000B406002064D500080023C25C0133002A35
:10011000FBD1581E7047000002B4714649084900DF
:10012000095C49008E4402BC7047C04603B4714666
:10013000490840004900095A49008E4403BC7047F1
:10014000002243088B4274D303098B425FD3030A16
:100150008B4244D3030B8B4228D3030C8B420DD329
:10016000FF22090212BA030C8B4202D312120902B7
:1001700065D0030B8B4219D300E0090AC30B8B42F5
:1001800001D3CB03C01A5241830B8B4201D38B03A3
:10019000C01A5241430B8B4201D34B03C01A524148
:1001A000030B8B4201D30B03C01A5241C30A8B428B
:1001B00001D3CB02C01A5241830A8B4201D38B0276
:1001C000C01A5241430A8B4201D34B02C01A52411A
:1001D000030A8B4201D30B02C01A5241CDD2C3098C
:1001E0008B4201D3CB01C01A524183098B4201D308
:1001F0008B01C01A524143098B4201D34B01C01AF3
:10020000524103098B4201D30B01C01A5241C3086A
:100210008B4201D3CB00C01A524183088B4201D3D9
:100220008B00C01A524143088B4201D34B00C01AC5
:100230005241411A00D20146524110467047FFE731
:1002400001B5002000F0F0F802BDC0460029F7D04B
:1002500076E7704703460B437FD4002243088B4266
:1002600074D303098B425FD3030A8B4244D3030B3D
:100270008B4228D3030C8B420DD3FF22090212BA02
:10028000030C8B4202D31212090265D0030B8B427E
:1002900019D300E0090AC30B8B4201D3CB03C01A68
:1002A0005241830B8B4201D38B03C01A5241430B43
:1002B0008B4201D34B03C01A5241030B8B4201D333
:1002C0000B03C01A5241C30A8B4201D3CB02C01A9E
:1002D0005241830A8B4201D38B02C01A5241430A16
:1002E0008B4201D34B02C01A5241030A8B4201D305
:1002F0000B02C01A5241CDD2C3098B4201D3CB01AC
:10030000C01A524183098B4201D38B01C01A52415A
:1003100043098B4201D34B01C01A524103098B425E
:1003200001D30B01C01A5241C3088B4201D3CB0049
:10033000C01A524183088B4201D38B00C01A52412C
:1003400043088B4201D34B00C01A5241411A00D2DC
:1003500001465241104670475DE0CA0F00D0494245
:10036000031000D34042534000229C4603098B42B5
:100370002DD3030A8B4212D3FC22890112BA030A3D
:100380008B420CD3890192118B4208D389019211BF
:100390008B4204D389013AD0921100E08909C30944
:1003A0008B4201D3CB01C01A524183098B4201D346
:1003B0008B01C01A524143098B4201D34B01C01A31
:1003C000524103098B4201D30B01C01A5241C308A9
:1003D0008B4201D3CB00C01A524183088B4201D318
:1003E0008B00C01A5241D9D243088B4201D34B0033
:1003F000C01A5241411A00D20146634652415B1075
:10040000104601D34042002B00D549427047634655
:100410005B1000D3404201B5002000F005F802BD9A
:100420000029F8D016E770477047C0468446101C74
:1004300062468C46191C634600E0C0461FB501F0B9
:1004400013F8002801D40021C8421FBD10B500F0E8
:100450006DFF4042013010BD10B501F005F80028D5
:1004600001DB002010BD012010BDC04610B500F01A
:10047000FBFF002801DD002010BD012010BDC0469B
:1004800010B500F08DFF002801DC002010BD012018
:1004900010BDC04610B500F083FF002801DA00202F
:1004A00010BD012010BDC046002B11D1002A0FD174
:1004B000002900D1002802D00021C943081C07B43C
:1004C000024802A14018029003BDC0465DFFFFFF35
:1004D00003B4684601B5029800F024F8019B9E46DB
:1004E00002B00CBC7047C04670B500220C4B040033
:1004F0000D00FFF7CFFF002804D12000290001F0F4
:10050000CBFD70BD064B00222000290001F08EFAC1
:1005100001F0C2FD80231B069C466044F1E7C04603
:100520000000E041F0B557464E464546DE46E0B590
:10053000040083B00D00924699468B422FD82CD0F0
:100540004946504601F074FE29000600200001F0E3
:100550006FFE331A9846203B9B4600D574E0534605
:100560005A4693401F005346424693401E00AF42F6
:1005700029D826D05B46A41BBD41002B00DA79E0C8
:10058000002200230092019301235A4693400193D5
:10059000012342469340009319E08242D0D90022C1
:1005A0000023009201930C9B002B01D01C605D6026
:1005B0000098019903B03CBC90469946A246AB46D0
:1005C000F0BDA342D6D900220023009201934346F6
:1005D000002BE8D0FB0772081A4346467B080EE062
:1005E000AB4201D1A2420CD8A41A9D41012024198A
:1005F0006D410021013E24184D41002E06D0AB4232
:10060000EED9013E24196D41002EF8D15B460098C9
:10061000019900196941002B22DB2B005A46D34077
:100620002A004446E2401C005B461500002B2CDBF0
:1006300026009E40330026004746BE403200801A06
:10064000994100900191AEE7424620239B1A524601
:10065000DA40414613004A468A4017001F4382E7AA
:10066000424620239B1A2A0046469A402300F34024
:100670001343D5E74246202300219B1A0022009114
:1006800001920122DA40019282E7424620232600AD
:100690009B1ADE402F00B446974066463B0033432A
:1006A000C9E7C046F8B54546DE4657464E460C03F8
:1006B000E0B54E00C90F88460D00610A440F0C4397
:1006C000C70019035800DB0F9B464B0A510F0B4321
:1006D000760D400D1900D200D84500D1AEE0351A94
:1006E000002D00DCF6E000280FD1134300D1DBE041
:1006F0006B1E002B00D037E1BA1A9742BF41641A33
:100700007F42E41B0126170024E0C64B9E424DD0D9
:1007100080231B041943382D00DD07E11F2D00DD68
:1007200038E12020431B9A460B00504683409946EF
:1007300013004846EB401843030050468240501EC9
:100740008241E9401A43BA1A611A9742A44117003C
:1007500064420C1B230262D56402650A002D00D19D
:10076000DFE0280001F046FD0300083B1F2B00DD01
:10077000D2E020223C00D21A9D40D4409F40254325
:100780009E4200DDC4E09E1B731C1F2B00DDF1E0C8
:10079000202238002900D21AD840914097402C00DE
:1007A0000143781E8741DC4000260F437B0709D0B8
:1007B0000F233B40042B05D03B1DBB42BF417F4272
:1007C000E4191F0023022CD5964B01369E4200D11E
:1007D0009AE04546944BFF081C406007760564028A
:1007E0000743240B760D00212403230B0C0D8F4AA5
:1007F00024051C431440330523435B00ED075B08CD
:100800002B43380019003CBC90469946A246AB46A3
:10081000F8BD6446044300D111E2040067467B073B
:10082000C6D145466007FF080743E4087D4B9E425A
:1008300030D024037605240B760DD4E7331A9A467C
:10084000002B78DD002831D076488642AED080205B
:10085000000401435346382B00DCE9E00A43511EF3
:100860008A410021D219BA42BF4109197C421700BE
:100870000C192302D3D56B4B01369E4200D13AE1CD
:100880000120694B1C407B0807401F43E0070743DA
:1008900064088BE723003B4300D1CBE180221203A5
:1008A00014432403240B9EE72E007FE70800104327
:1008B00000D1B4E0581E002800D0DEE0BA18BA42D9
:1008C0009B4164185B42E418170001262302A6D559
:1008D0000226D5E7002D6ED1701C4005400D012881
:1008E00000DCF9E0B81A844687428041E51A4042AC
:1008F0002D1A280200D489E0D71BBA4292411C1B52
:100900005242A51AD84629E74546002400276AE73F
:10091000454CF61A2C4049E73D0028388540002711
:100920002EE7380001F066FC20301DE70A43511E17
:100930008A41002107E7002B00D0F3E0701C43053B
:100940005B0D012B00DCADE0364B984200D1D1E0CD
:10095000BA18BA42BF4164187F42E419E707520847
:1009600017436408060021E72E48854200D193E032
:100970001D00D0E629001F3EF140202B00D18DE064
:100980004022D31A9D402F437D1EAF4100240F43C8
:10099000002644E72B000800203BD8400300202D10
:1009A00000D17DE04020451BA9400A43511E8A41E9
:1009B00000211A43C7E6002E50D01A4EB04257D03D
:1009C00080266B429946360434434B46382B00DD73
:1009D000D6E01F2B00DD35E12026F51A2600AE40BB
:1009E000B2463E00DE40AC46350056462E436546D4
:1009F000AF407D1EAF41DC403743D71BBA42924126
:100A00000C1B5242A41A0600D846A3E66446674669
:100A10002C4300D0A2E600250026002706E71E0092
:100A2000C4E6C046FF070000FFFF7FFFFFFF0F8007
:100A30001F2B63DC2020C31A080098409C46834685
:100A400053461000D84003005846184363469A4066
:100A5000531E9A4153460243D94003E726003E43C2
:100A600006D0EB439946002BC7D0944EB042ACD190
:100A70000C0017000600D84698E6904B9A450BD01C
:100A80008246E7E6002800D09EE01800104300D11F
:100A9000E9E01C001700D846884E87E6002572E77B
:100AA000002182E723003B43002E00D0ABE0002B67
:100AB00000D1E7E00B00134300D177E6BA18BA4241
:100AC000BF4164187F42E419230200D4F2E07C4B5A
:100AD00017001C40060069E620003843002ED1D1E3
:100AE00000285BD11C00144300D1A8E01C001700B3
:100AF000D8465BE606000024002797E650460B0028
:100B00002038C34099465346202B00D195E040231E
:100B100050461B1A99400A43511E8A414B460021F8
:100B20001A439FE6002E30D126003E4367D0DB43B8
:100B30009A46002B1CD0614EB04260D05346382BF1
:100B400000DD96E01F2B00DD9FE02026F31A260033
:100B50009E409C46B34653463E00DE4033005E4610
:100B60001E4363469F407B1E9F415346DC403743F4
:100B7000BF189742924164185242A418060078E6C2
:100B800027437C1EA741002437E74C4EB04236D0A5
:100B900080265B4236049A463443CFE71800104360
:100BA00000D103E6B81A84466745AD41E01A6D42AC
:100BB000401B050200D42CE6D71BBA4292411C1BF5
:100BC0005242A41AD846F1E51800104300D163E759
:100BD000F808670707438020E4080003044208D0B0
:100BE000DD08054205D1D208590711430F002C003A
:100BF000D8467B0FE4001C43FF00304ED6E50C00C6
:100C000017000600D2E5002B38D00B00134300D1AB
:100C100042E7F808670707438020E408000304421E
:100C2000E7D0CB080342E4D1D208490711430F00B3
:100C30001C00DEE700270024D5E500216BE7002536
:100C40000027F3E54E462500203EF5404B462E009A
:100C5000202B2DD04025ED1AAC4027437C1EA74108
:100C600000243743C9E6802400252403134E0027BF
:100C7000DCE527437C1EA741002479E70C00170020
:100C80000E4E93E50C00170090E556462300203EDB
:100C9000F34099465346202B0ED0402356469B1BCB
:100CA0009C4027437C1EA7414B4600241F435FE71F
:100CB0000024D2E71700B2E50024F2E7FF070000A6
:100CC000FFFF7FFFF0B557464546DE464E46E0B58E
:100CD0004C000E0387B0834692461D008046360BBB
:100CE000640DCF0F002C4FD06F4B9C4235D080232A
:100CF000420F1B04F600134333439946C300984642
:100D00006A4B00269C460023644403932B031B0B71
:100D10009B466B00ED0F50465B0D01955ED0624A1D
:100D2000934253D05A46D1008022400F120402430E
:100D30000A4393465246D1005C4A944600226344DB
:100D40003800684084460290E41A16430F2E00D9FA
:100D5000B4E0574BB6009B599F4603003343994676
:100D60006CD100239846023308260393CEE7CB4686
:100D70004146039A0197022A65D1019B4A4C9C4641
:100D80000023002298466BE00300334399464ED07F
:100D9000002E00D1BCE1300001F02CFA03000B3B27
:100DA0001C2B00DDACE11D22D31A5A460100DA40AB
:100DB00008398E401300334399465B468B40984672
:100DC00000233C4C0026241A03939FE751465A46C1
:100DD000114329D1002293460232B1E7594601431B
:100DE0001ED05B46002B00D19EE1584601F002FA6E
:100DF00003000B3B1C2B00DD8FE102005946083A33
:100E000091408B461D21CB1A5146D9400B005946C3
:100E10000B4351469B469140264B00221B1A8FE7FD
:100E2000002301229B468BE75146032288E70023DB
:100E30009846013304260024039367E70323B14651
:100E400003930C2662E7032A00D15CE2019B012A8E
:100E500000D0E4E113409C46002300240022984681
:100E600000211203130B0A0D12051A432305124C1D
:100E700040462240134362465B00D2075B0813439F
:100E8000190007B03CBC90469946A246AB46F0BD5F
:100E9000002380229C4612039846034CE0E700237F
:100EA000014C00229846DBE7FF07000001FCFFFF32
:100EB00038D600080DFCFFFFFFFF0F80D94500D991
:100EC00039E100D134E1002346464D469A46013CC3
:100ED0005B460A0E1B021A430B02170C0393130402
:100EE0001B0C3900280090460193FFF729F90200F6
:100EF000019B83465A43280039009146FFF7A6F923
:100F0000350C09040D43A9450DD95B464544013B09
:100F1000A84500D93AE1A94500D837E102235B4250
:100F20009C464544E3444B46EB1A390018000493B1
:100F3000FFF706F9019B05004343390004989946E1
:100F4000FFF784F9330409041B0C0B43994509D9B5
:100F500043446A1E984500D91AE1994500D817E123
:100F6000023D43444A469B1A5A4612042A430399B7
:100F70009346100C0A0C914609045A46090C4E4639
:100F80000D001204120C4543059151437243704306
:100F900052190E0CB218954203D980256D02AC4649
:100FA0006044150C09041204090C281852188342D5
:100FB00000D2CEE000D1C8E01D1A53469E1AB245B9
:100FC00092415242AB1A9A46984500D117E1390036
:100FD0001800FFF7B5F8019B050043433900504660
:100FE0000493FFF733F904980B04310C194388423A
:100FF00009D941446B1E884500D907E1884200D8D1
:1010000004E1023D4144049BCB1A180039000493CB
:10101000FFF796F8019B82464343390004980193F9
:10102000FFF714F901980B043104090C19438842A5
:101030000DD953464144013B884500D9E8E0884238
:1010400000D8E5E002235B429C464144E244019B18
:101050002D04CE1A51462943059D4F462A000B0404
:10106000080C1B0C5A4345437B4378435B19170C10
:10107000FB189D4203D980256D02AC4660441D0CCF
:1010800012041B04120C28189B18864200D293E00D
:1010900000D18EE001231943A04BE318002B00DCA4
:1010A00099E04A0700D09EE05A46D20106D55A463A
:1010B0009B4B1A4080239346DB00E318994A9342E6
:1010C00068DD0123029A984C1A4000239446984602
:1010D0000022C5E680224B46120313420AD05B462B
:1010E000134206D11A431203120BAC4688468E4CAB
:1010F000B6E64B461A431203120BBC468A4CAFE6C7
:1011000003005A46283B9A4000239146984657E6EA
:10111000584601F06FF8203040E603005246283B65
:101120009A400021934677E601F064F820305FE6AC
:10113000884500D2C7E64B46DE075D0843465B089C
:101140001E434346DB079A46C2E60025924500D37C
:1011500033E7039E5946B446E244B245AD416D4281
:101160004544EB180139984507D2984200D97FE0F1
:1011700000D1BCE01D1A8B461FE79845FAD1039DAC
:101180005545F2D943468B461D1A16E79B46CAE6DB
:101190001500E7E65A46C90852070A435B05904620
:1011A0005C0D5A460123029952021940120B8C46DB
:1011B00056E6002B00D16FE746444A1EB04529D9B8
:1011C0001100864200D065E7039A934200D061E7A0
:1011D00062E7012149420120C21A382A21DD029B1F
:1011E00003409C4638E60F220A40042A00D15BE700
:1011F0000A00111D914292415242934454E7474BD9
:10120000E318002BE5DD01225242F2E71D00FAE669
:101210009A461CE7B04239D86ED011003AE70293E3
:101220003AE71F2A3CDC20239B1A0C0058469940C1
:1012300098404B1E99415B46D440D340204308431D
:101240001A00430709D00F230340042B05D00100E7
:10125000081D88429B415B42D21813023AD50123F4
:10126000029A01241A400023944698460022F7E58A
:10127000022149428C46039DE344AC46E244AA4520
:10128000AD416D424544ED182D1A96E68A1E03992C
:101290004D008D42894149424144761803958FE7BC
:1012A0001F204042C31A5846D8400300202A28D0A5
:1012B00040205D46821A954029434A1E91411943B8
:1012C000072300220B4009D00F2300220B40080007
:1012D000042BBDD1010053075202120BC908194358
:1012E000012388460299002419408C46B8E55245EE
:1012F000BED88B46002560E6039D9D42C6D31100F3
:1013000062E70025D8E780225B4612031A43019B5F
:101310001203120B9C468846034CA1E5FF03000014
:10132000FFFFFFFEFE070000FF070000F0B54F467D
:101330004646D6465C00C0B51F03DB0F9A46174BE6
:101340000E034D0084468046360B6D0DC90F914645
:101350003F0B640D01209D4208D09C4201D0A54264
:101360000BD01CBC90469946A246F0BD6346334361
:10137000F7D1AC42F5D13A43F3D10120BE42F0D1CE
:10138000C845EED1514507D0002DEAD163461E4332
:101390003000461EB041E4E70020E2E7FF0700000E
:1013A000F0B54546DE4657464E46E0B51F033D0BB9
:1013B0002C4F0E034C00AB465D008446360B640D8B
:1013C000C90F90466D0DDB0FBC422AD0254FBD42A0
:1013D0002DD0002C0FD13043070081467842784150
:1013E000C0B2002D17D15F463A4314D14B460020BE
:1013F000002B0AD006E0002D02D15846024301D04E
:10140000994218D04842012108433CBC9046994675
:10141000A246AB46F0BD0028F2D00120013B1843A4
:10142000F3E737000743D1D002204042EDE75F46A3
:101430001743CED0F8E7AC42E4DC03DA481E0121C2
:101440000843E2E75E45DDD806D000205E45DCD2E9
:101450000123481E1843D8E7C445D3D80020C4450B
:10146000F6D3D2E7FF070000F0B54E464546DE460C
:1014700057465C00E0B51F03DB0F99462A4B0E036D
:101480004D00C90F8446360B6D0D8B4690463F0BC1
:10149000640D9D4220D0244B9C4222D0002D12D1BD
:1014A000304343424341DBB2002C1FD0002B0CD011
:1014B0004B460120013B034318003CBC9046994633
:1014C000A246AB46F0BD002C16D0CB4517D05B46EC
:1014D000594201230B43EFE7310002230143EBD1D3
:1014E000D9E7390002231143E6D1D7E73A43DDD1EA
:1014F00000230028E0D0EAE73A43E6D1E7E7A54237
:10150000E5DC05DBBE42E2D807D00023BE42D3D2E1
:101510005946012301390B43CEE7C445D7D80023F0
:10152000C445F5D3C8E7C046FF070000F0B55746ED
:101530004546DE464E46E0B50C0398464E00230B6A
:1015400087B0070092469B46760DCD0F002E6BD0DC
:101550006D4B9E4235D080245B46420F2404DB0055
:1015600014431C43C3009946684BA3469C46002382
:1015700000276644029343461C035A00DB0F504683
:10158000240B520D984600D176E05F4B9A426DD005
:101590008023410F1B040B435C49E4008C461C4331
:1015A000C300002062444146B6186940721C019194
:1015B000944607430F2F00D9B0E0554ABF00D259D7
:1015C00097465B460343994600D087E000239B463D
:1015D000023308270293CEE742460192022867D0E1
:1015E000032800D10EE2012800D062E1002300248C
:1015F0000022994601990140CDB2002112030B0D42
:10160000120B1B051343434A240513401C4364007B
:10161000ED0764082C434846210007B03CBC9046C7
:101620009946A246AB46F0BD034399464FD05B4670
:10163000002B00D189E1584600F0DCFD03000B3B94
:101640001C2B00DD7AE11D22D31A3A0001005C4612
:10165000DA4008398C4013008F4023439B46B9463B
:1016600000232D4E0027361A029384E75346234366
:101670002AD10024022096E75346234320D0002C91
:1016800000D157E1200000F0B5FD03000B3B1C2BFF
:1016900000DD49E11D21CB1A51460200D9405346D5
:1016A000083A944093400C431B4A121A00207AE7F0
:1016B0000125019B144C1D400023002299469CE704
:1016C0000024002201206EE7534603206BE700232D
:1016D0009B4601330427002602934CE703238146EF
:1016E0000C27029347E78022002300251203994626
:1016F000054C82E75C464B4602986FE75C464B46DA
:10170000019502986AE7C046FF07000001FCFFFF51
:1017100078D60008FFFF0F800DFCFFFF4A464946C0
:10172000170C1A0C1B041B0C08041900000C414375
:101730001500884619007D437943039589462900A1
:10174000150045434D44029545462D0CAA46029D81
:101750005544A94506D98A46802149028946CA448A
:1017600051460391290C0491414609042D04090CAA
:1017700088462900250C24044144240C05912100AD
:1017800041438846210079438A4668434146504494
:101790008146080C48446F43824503D980214902A1
:1017A00089464F44010C894639004944029141461B
:1017B0000F0404993F0C88460004C0198044414638
:1017C000049159460F0C0904090C884659438A466E
:1017D00039005143894641464A435146090C8B46DC
:1017E0007B43D2185A44934203D980235B029B4621
:1017F000D94451460904090C8A46414661437C4359
:10180000130C12044B445244A1468A463C00414604
:101810006C434D4351464D440F0C7D19A94503D9E6
:101820008021490288464444049F0399B8464144B4
:101830008B468345804141428846514608042F0427
:10184000000C3F1858460299101889469042924160
:101850004F44BA46524299469346C244D144CB447F
:101860008F42BF41C245894199459B419345924171
:101870007F4249422D0C52420F435B4213437F1972
:10188000FF185B463C19DB0D059A64021C434302BA
:1018900013435D1EAB415A46C00D0343520213432E
:1018A000E20156D501205A0803401343E2071343CF
:1018B00064085A48604400284DDD5A0709D00F22B9
:1018C0001A40042A05D01A1D9A429B415B42E41833
:1018D0001300E20104D58020514AC0001440604446
:1018E000504A904200DDE3E60125DB0862071A4317
:1018F0006402019B9146220B4405640D1D407CE669
:10190000802259461203114208D0144206D12243C4
:101910001203120B45469946434C6EE65B461A434A
:101920001203120B404C68E603005446283B9C40CF
:101930000023B9E600F05EFC2030A6E60300283B59
:101940009F400023BB4699468AE600F053FC2030B6
:1019500074E6B446ADE701252A1A382A06DD019B54
:1019600000241D4000230022994646E61F2A21DC60
:1019700020252000AD1A1E00AB40A840D6405D1EB9
:10198000AB4130431843D440430709D00F230340F1
:10199000042B05D00300181D98429B415B42E418BC
:1019A000230221D50125019B01241D400023002293
:1019B000994622E61F2521006D42281AC1400800E1
:1019C000202A1DD05F35AA1A944023435C1EA341F0
:1019D000072503431D400022002D09D00F220024BB
:1019E0001A401800042AD6D1030065076402220BAE
:1019F000DB082B4301259946019B00241D40FCE593
:101A00000024E2E7802201251203224301991203F8
:101A1000120B0D409946044CEFE5C046FF03000051
:101A2000FFFFFFFEFE070000FF070000F0B546467F
:101A3000D6464F460C03C0B5CD0F4E00610A440F89
:101A40000C43C1005800400D84468A460F0019031C
:101A5000500F490A0143C648760DA846DB0FD20055
:101A6000844500D1D8E001204340AB4200D1A6E03C
:101A70006046351A002D00DC05E1002810D10B006E
:101A8000134300D1D7E06B1E002B00D04BE153462F
:101A90009F1ABA458041641A4042241A01261EE06A
:101AA000B34B9E4248D080231B041943382D00DDE0
:101AB00019E11F2D00DD4CE120230F005B1B1000FE
:101AC0009A409F40E840531E9A41E940074317431C
:101AD0005346DF1B611ABA45A44164420C1B230222
:101AE00000D4C5E06402650A002D00D1F6E02800AC
:101AF00000F080FB0300083B1F2B00DDE9E0202203
:101B00003C00D21A9D40D4409F4025439E4200DDB8
:101B1000DBE09E1B731C1F2B00DD0AE12022380036
:101B2000D21A290097402C009140D8407A1E974144
:101B3000DC40002601430F437B0709D00F233B40C5
:101B4000042B05D03B1DBB42BF417F42E4191F005F
:101B5000230225D5864B01369E4200D1AFE0854B4E
:101B600001251C4043466207FF08640276051743BF
:101B7000240B760D1D4000212403230B0C0D7E4AFF
:101B800024051C431440330523435B00ED075B0829
:101B90002B43380019001CBC90469946A246F0BD64
:101BA000012543466207FF081743E4081D40704BB8
:101BB0009E4236D024037605240B760DDBE7634680
:101BC000F31A002B00DC94E06046002835D068480A
:101BD0008642B1D080273F043943382B00DCFDE03A
:101BE0000A43170000217A1E974157445745804108
:101BF000091944420C1923023AD55D4B01369E4225
:101C000000D14BE101225B4B1C407B0817401F4376
:101C1000E207174364088FE70800104300D024E769
:101C200021E723003B4300D1B9E180221203144392
:101C30002403240B9FE72E007EE70800104300D109
:101C4000CAE0581E8446002800D0E7E052445245BE
:101C5000804164184042241817000126230207D54A
:101C60000226CFE764462C4300D1B3E12C0067463F
:101C70007B0700D062E76307FF081F430125434647
:101C8000E4081D4093E7002D78D1751C6D056D0D9E
:101C9000012D00DCF2E05046801A8245BF41651AF2
:101CA0007F42ED1B8446280200D48CE05046171A70
:101CB000BA4292410C1B5542651B984614E7012518
:101CC000434600241D40002755E72A4CF61A2C40B5
:101CD00032E73D0028388540002717E7380000F03C
:101CE00089FA203006E70A43170000217A1E97413F
:101CF000EEE6002B00D0E5E0731C9C465B055B0D17
:101D0000012B00DC9FE01A4B9C4500D1C5E05244FA
:101D100052458041641840422418E707520817438F
:101D20006408664608E71248854200D185E01D0038
:101D3000BCE629001F3EF140202B00D17FE040226D
:101D4000D31A9D402F437D1EAF4100240F43002630
:101D50008EE72B000F00203BDF40202D71D0402369
:101D60005D1BA9400A43511E8A4100211743AFE67B
:101D7000FF070000FFFF7FFFFFFF0F80002E3ED018
:101D8000B34EB44545D0802636046D423443382DD9
:101D900000DDA8E01F2D00DD1FE1202627005046B2
:101DA000761BB740E84007435046B040461EB0415E
:101DB000EC403843171ABA4292410C1B5242A41A03
:101DC000664698468BE6644667462C4300D08BE611
:101DD000002500260027EAE61E00ADE61F2B60DC8A
:101DE0002027F81A0F00844687401000D840074388
:101DF00060468240501E8241D9401743F5E62600D6
:101E00005046064305D0ED43002DD3D0904EB44547
:101E1000BDD10C001700664698468DE68C4883427B
:101E20000BD06346D9E6002D00D096E008001043A1
:101E300000D1E2E00C0017009846854E7CE60025B4
:101E400080E700218EE7230050460343002E00D098
:101E5000A8E0002B00D1DEE00B00134300D16BE6BD
:101E6000524452458041641840422418170023020E
:101E700000D4FDE6774B66461C405DE625005046E3
:101E80000543002ECFD1002D4FD10C00144300D1BB
:101E9000A0E00C00170098464EE666460024002796
:101EA00085E61F000800203FF8400700202B00D1E6
:101EB0008EE04020C31A99400A43511E8A410021F6
:101EC000174392E6002E14D126005046064362D0F6
:101ED000DB43002B5CD18718974292416418524231
:101EE000A418664687E650462043441EA0410024BD
:101EF00060E7574EB4454ED0802636045B423443EB
:101F0000382B00DD7FE01F2B00DD8BE02026270033
:101F10005046F61AB740D84007435046B040461ED8
:101F2000B0410743DC40BF18D6E70D00154300D190
:101F300002E65046801A8245BF41651A7F42ED1B7A
:101F40008446280200D48DE65046171ABA429241C0
:101F50000C1B5242A41A9846EEE50D00154300D121
:101F60006BE750466707C00807438020E40800037A
:101F7000044207D0CD08054204D12C009846D7086A
:101F800049070F437B0FE4001C43FF00304ED3E5AD
:101F90002F4EB445B4D10C0017006646CCE500279F
:101FA0000024E8E5002B39D00B00134300D144E7AF
:101FB000C008670707438020E40800030442E1D01B
:101FC000CB080342DED1D70849070F431C00D9E7ED
:101FD000002171E700250027E9E52E002700203EBB
:101FE000F740202D2FD04026751BAC405046204393
:101FF000441EA04100243843DCE68024002524034D
:10200000134E0027D3E5504620430700781E874132
:102010000024BF1860E70C0017008DE50C001700C6
:102020000B4E89E51E002700203EF740202B0CD0E8
:102030004026F31A9C4050462043441EA0410743CB
:102040000024BF1848E70024D0E70024F3E7C04687
:10205000FF070000FFFF7FFF70B50E4E0D031C034E
:1020600049005B002D0B490D240B5B0DB14204D0E0
:10207000084900208B4208D070BD05430120002D87
:10208000FAD1044900208B42F6D114432000441EAB
:10209000A041F1E7FF07000030B5134D0A034B00E4
:1020A000120B5B0DC90F0024AB4210DD0F4CA34295
:1020B0000FDC80240E4D64032243ED1A1F2D0BDD2F
:1020C0000C48C31ADA405442002900D11400200001
:1020D00030BD094BCC18FAE7084CE840A4466344ED
:1020E0009A400243EFE7C046FE0300001D040000D3
:1020F0003304000013040000FFFFFF7FEDFBFFFF30
:1021000070B5002830D0C317C4185C40C50F20003C
:1021100000F070F8174B184A1B1AD21A1F2A18DD44
:10212000164AD21A9440002224035B05240B5B0D4F
:102130000021100024030A0D240B12052243104C29
:102140001B05224013435B00ED075B082B4319007E
:1021500070BD210091400A000B21081AC4405B05A4
:102160002403240B5B0DE3E7002500230024002259
:10217000DEE7C0461E040000330400001304000024
:10218000FFFF0F8010B5041E28D000F033F8154B68
:10219000154A1B1AD21A1F2A15DD144AD21A944066
:1021A000002224035B05240B5B0D00211000240397
:1021B0000A0D240B120522430D4C1B05224013432C
:1021C0005B00590810BD210091400A000B21081A3C
:1021D000C4405B052403240B5B0DE6E700230024C9
:1021E0000022E2E71E040000330400001304000094
:1021F000FFFF0F801C2101231B04984201D3000C18
:1022000010391B0A984201D3000A08391B09984269
:1022100001D30009043902A2105C40187047C0467F
:10222000040302020101010100000000000000009F
:1022300010B5002903D1FFF7DDFF203002E0081CB4
:10224000FFF7D8FF10BDC04680B582B000AFFB1DC0
:1022500000221A700B4B0B4A126840210A431A6085
:10226000002000F011F8031E03D0FB1D01221A709C
:1022700001E007F0F5FCFB1D1B781800BD4602B01D
:1022800080BDC0460020024080B584B000AF7860B9
:102290000F23FB1800221A700F4B1A68FA239900BB
:1022A0001000FDF74DFF0300180000F019F9031EA0
:1022B00004D00F23FB1801221A7006E0796801236D
:1022C0005B420022180000F0E5F80F23FB181B7892
:1022D0001800BD4604B080BD3C00002080B500AFB2
:1022E000034B1B685A1C024B1A60C046BD4680BD9A
:1022F000000A002080B500AF024B1B681800BD46E5
:1023000080BDC046000A002080B584B000AF786070
:10231000FFF7F0FF0300BB607B68FB60FB680133E5
:1023200002D0FB680133FB60C046FFF7E3FF020009
:10233000BB68D21AFB689A42F7D3C046BD4604B0C8
:1023400080BD000080B582B000AF0200FB1D1A7096
:10235000064BFA1D127811001F220A4001219140FC
:102360000A001A60C046BD4602B080BD00E100E030
:10237000B0B582B000AF02003960FB1D1A70FB1DC2
:102380001B787F2B32D92F4CFB1D1B781A000F2393
:102390001340083B99082B4AFB1D1B7818000F239C
:1023A0000340083B9B0806339B00D31804331B688B
:1023B000FA1D1278100003220240D200FF20904044
:1023C0000200D2431A403B689B01FF201840FB1DCE
:1023D0001B781D0003232B40DB00984003001A43A9
:1023E0008B1D9B00E31804331A6027E0164CFB1D7D
:1023F0001B785BB29B081449FA1D127852B29208FE
:10240000C03292005258F91D09780800032101409A
:10241000C900FF2088400100C94311403A68920179
:10242000FF201040FA1D1278150003222A40D20026
:10243000904002000A43C0339B001A51C046BD467B
:1024400002B0B0BD00ED00E000E100E080B582B078
:1024500000AF78607B68013B0C4A934201D90123AD
:1024600010E00B4B7A68013A5A6001235B4203216A
:102470001800FFF77DFF064B00229A60044B0722ED
:102480001A6000231800BD4602B080BDFFFFFF00A8
:1024900010E000E080B584B000AFB9607A600F232F
:1024A000FB18021C1A70BA680F23FB181B785BB26A
:1024B00011001800FFF75CFFC046BD4604B080BDA8
:1024C00080B582B000AF0200FB1D1A70FB1D1B78A7
:1024D0005BB21800FFF736FFC046BD4602B080BDB4
:1024E00080B582B000AF78607B681800FFF7AEFF60
:1024F00003001800BD4602B080BD000090B585B055
:1025000000AF78607B68002B01D1012362E07B681B
:102510001B68324A9446634414211800FDF710FEEC
:1025200003009A007B685A647B682D4A1A647B68B2
:102530002522022199547B681B681B68FB60FB689D
:10254000284A1340FB607B689A687B68DB681A4303
:102550007B681B691A437B685B691A437B689B69CC
:102560001A437B68DB691A437B681B6A1343FA686A
:102570001343FB607B681B68FA681A607B689A6883
:102580008023DB019A4219D0174A174B19687B68E0
:102590005B6C1C2003400F2098400300DB430B4082
:1025A0001360114A104B19687B6858687B685B6C34
:1025B0001C242340984003000B4313607B680022D7
:1025C000DA637B682522012199547B68242200214B
:1025D000995400231800BD4605B090BDF8FFFDBF1B
:1025E000000002400F80FFFFA800024080B584B0C9
:1025F00000AF78600F23FB1800221A707B68252239
:102600009B5CDBB2022B07D07B680422DA630F23CA
:10261000FB1801221A702AE07B681B687A6812682E
:1026200012680E218A431A607B681B687A681268F8
:10263000126801218A431A607B681B6C7A68526CAD
:102640001C210A40012191400A005A607B68252222
:10265000012199547B682422002199547B689B6B4B
:10266000002B04D07B689B6B7A68100098470F237F
:10267000FB181B781800BD4604B080BD80B584B03F
:1026800000AF78607B681B6C1B68FB607B681B6815
:102690001B68BB607B685B6C1C22134004229A4061
:1026A0001300FA68134026D0BB680422134022D0DE
:1026B0007B681B681B682022134007D17B681B685E
:1026C0007A681268126804218A431A607B681B6C5E
:1026D0007A68526C1C210A40042191400A005A6019
:1026E0007B681B6B002B00D171E07B681B6B7A68E9
:1026F000100098476BE07B685B6C1C221340022241
:102700009A401300FA6813402DD0BB680222134090
:1027100029D07B681B681B68202213400BD17B6883
:102720001B687A68126812680A218A431A607B68FB
:102730002522012199547B681B6C7A68526C1C21FC
:102740000A40022191400A005A607B68242200213D
:1027500099547B68DB6A002B39D07B68DB6A7A6826
:102760001000984733E07B685B6C1C221340082202
:102770009A401300FA6813402AD0BB68082213401D
:1027800026D07B681B687A68126812680E218A431B
:102790001A607B681B6C7A68526C1C210A4001210C
:1027A00091400A005A607B680122DA637B68252227
:1027B000012199547B682422002199547B685B6B2A
:1027C000002B05D07B685B6B7A6810009847C04689
:1027D000C046BD4604B080BD80B586B000AF78600D
:1027E000396000237B610023FB6000233B6155E1DE
:1027F0003B681B6801217A6991400A001340FB6025
:10280000FB68002B00D146E13B685B68022B03D0DC
:102810003B685B68122B23D17B69DA087B6808323E
:102820009200D3583B617B69072213409B000F2223
:102830009A401300DA433B6913403B613B681A69D5
:102840007B6907210B409B009A4013003A691343B0
:102850003B617B69DA087B68083292003969D150A4
:102860003B685B68012B0BD03B685B68022B07D091
:102870003B685B68112B03D03B685B68122B30D13F
:102880007B689B683B617B695B0003229A40130075
:10289000DA433B6913403B613B68DA687B695B0064
:1028A0009A4013003A6913433B617B683A699A6026
:1028B0007B685B683B6101227B699A401300DA43C5
:1028C0003B6913403B613B685B681B0901221A406E
:1028D0007B699A4013003A6913433B617B683A690C
:1028E0005A607B681B683B617B695B0003229A40EE
:1028F0001300DA433B6913403B613B685B6803228A
:102900001A407B695B009A4013003A6913433B61AC
:102910007B683A691A607B68DB683B617B695B00B6
:1029200003229A401300DA433B6913403B613B6842
:102930009A687B695B009A4013003A6913433B61D4
:102940007B683A69DA603B685A6880235B0513400C
:1029500000D1A0E0574B574A526B01210A435A63FA
:10296000554A7B699B0802339B009B583B617B69FE
:10297000032213409B000F229A401300DA433B6965
:1029800013403B617A68A023DB059A421FD07B6825
:102990004A4A934219D07B68494A934213D07B68D4
:1029A000484A93420DD07B68474A934207D07B68E0
:1029B000464A934201D105230AE0062308E0042396
:1029C00006E0032304E0022302E0012300E00023E9
:1029D0007A6903210A40920093403A6913433B61AC
:1029E00035497B699B0802339B003A695A50384B42
:1029F0001B683B61FB68DA433B6913403B613B6802
:102A00005A6880235B02134003D03A69FB68134382
:102A10003B612F4B3A691A602D4B5B683B61FB6849
:102A2000DA433B6913403B613B685A6880239B0251
:102A3000134003D03A69FB6813433B61244B3A6966
:102A40005A60234B9B683B61FB68DA433B69134048
:102A50003B613B685A6880235B03134003D03A69AB
:102A6000FB6813433B611A4B3A699A60184BDB6869
:102A70003B61FB68DA433B6913403B613B685A6842
:102A800080239B03134003D03A69FB6813433B61E7
:102A90000F4B3A69DA607B6901337B613B681A68E6
:102AA0007B69DA40131E00D0A2E6C046BD4606B0E0
:102AB00080BDC046001002400000014000040050EC
:102AC00000080050000C005000100050001C005086
:102AD0000004014080B582B000AF786008001100AA
:102AE000BB1C021C1A807B1C0A1C1A707B1C1B78E6
:102AF000002B04D0BB1C1A887B689A6103E0BB1CC6
:102B00001A887B689A62C046BD4602B080BD80B517
:102B100082B000AF78600A00BB1C1A807B685A69DB
:102B2000BB1C1B885A407B685A61C046BD4602B038
:102B300080BD000080B582B000AF0200BB1D1A80CE
:102B4000094B5B69BA1D1288134008D0064BBA1DA9
:102B500012885A61BB1D1B88180000F007F8C04698
:102B6000BD4602B080BDC0460004014080B582B0C1
:102B700000AF0200BB1D1A80C046BD4602B080BD3A
:102B800090B58BB000AF78607B68002B02D1012339
:102B900000F0B8FBC74BDB680C221340FB61C54B50
:102BA000DA6880235B021340BB617B681B680122EB
:102BB000134000D17EE0FB69082B07D0FB690C2B8A
:102BC00012D1BA6980235B029A420DD1B94B1A68BF
:102BD00080239B02134000D16BE07B685B68002B75
:102BE00067D1012300F08EFB7B685A6880235B026B
:102BF0009A4207D1AF4BAF4A1268802149020A437B
:102C00001A6027E07B685A68A023DB029A420ED143
:102C1000A84BA84A12688021C9020A431A60A54B32
:102C2000A44A1268802149020A431A6012E0A14BAB
:102C3000A04A1268A0490A401A609E4B1A68802375
:102C40005B021340FB60FB689A4B9A4A12689B49EF
:102C50000A401A607B685B68002B15D0FFF74AFBBF
:102C600003007B6109E0FFF745FB02007B69D31A93
:102C7000642B02D9032300F045FB8E4B1A68802396
:102C80009B021340EFD015E0FFF734FB03007B619C
:102C900008E0FFF72FFB02007B69D31A642B01D9F0
:102CA00003232FE3834B1A6880239B021340F0D148
:102CB00000E0C0467B681B680222134000D197E009
:102CC0007B68DB687B627B6A2022134009D0794BEA
:102CD000784A126820210A431A607B6A20229343B3
:102CE0007B62FB69042B05D0FB690C2B3DD1BB69D2
:102CF000002B3AD16F4B1B680422134004D07B6A2F
:102D0000002B01D10123FDE26A4A6A4B5B686C49E2
:102D100019407B681B691B020B435360654B654A76
:102D2000126809218A4311007A6A0A431A6000F086
:102D30001DFC01005F4BDB681B090F221340614A39
:102D4000D35C0A00DA40604B1A601323FC180020A1
:102D5000FFF79AFA030023701323FB181B78002B4C
:102D600046D01323FB181B78CCE27B6A002B26D0BD
:102D7000504B504A126809218A4311007A6A0A436B
:102D80001A60FFF7B7FA03007B6108E0FFF7B2FAB9
:102D900002007B69D31A022B01D90323B2E2454B0F
:102DA0001B6804221340F1D0424A424B5B684449FD
:102DB00019407B681B691B020B43536018E03D4BB5
:102DC0003C4A126801218A431A60FFF793FA030014
:102DD0007B6108E0FFF78EFA02007B69D31A022BB1
:102DE00001D903238EE2334B1B6804221340F1D137
:102DF0007B681B681022134000D19DE0FB69002B0B
:102E00003FD12C4B1A6880239B00134005D07B6870
:102E1000DB69002B01D1012374E2264A254B5B6854
:102E20002A4919407B685B6A0B435360214A214B56
:102E30005B681B02190A7B681B6A1B060B43536005
:102E40007B685B6A5B0B0133802212029A40194B4C
:102E5000DB681B090F210B401A49CB5CDA401A4B87
:102E60001A601323FC180020FFF70EFA03002370EA
:102E70001323FB181B78002B5ED01323FB181B7841
:102E800040E27B68DB69002B3CD00A4B094A1268A0
:102E9000802149000A431A60FFF72CFA03007B6186
:102EA00016E0FFF727FA02007B69D31A022B0FD92D
:102EB000032327E200100240FFFFFEFFFFFFFBFF9E
:102EC000FFE0FFFFB8D800083C000020FF1FFFFF15
:102ED000CA4B1A6880239B001340E2D0C74AC74BF5
:102EE0005B68C74919407B685B6A0B435360C34A00
:102EF000C24B5B681B02190A7B681B6A1B060B43EB
:102F0000536019E0BD4BBD4A1268BE490A401A60C1
:102F1000FFF7F0F903007B6108E0FFF7EBF902002F
:102F20007B69D31A022B01D90323EBE1B34B1A6857
:102F300080239B001340F0D17B681B68082213405C
:102F400036D07B685B69002B19D0AC4BAB4A126D55
:102F500001210A431A65FFF7CDF903007B6108E000
:102F6000FFF7C8F902007B69D31A022B01D90323AA
:102F7000C8E1A24B1B6D02221340F1D018E09F4B19
:102F80009E4A126D01218A431A65FFF7B3F90300C7
:102F90007B6108E0FFF7AEF902007B69D31A022BD0
:102FA00001D90323AEE1954B1B6D02221340F1D1F1
:102FB0007B681B680422134000D1AFE02323FB1879
:102FC00000221A708D4B9A6B80235B0513400AD147
:102FD0008A4B8A4A926B802149050A439A632323CC
:102FE000FB1801221A70884B1A6880235B0013407B
:102FF0001AD1854B844A1268802149000A431A601D
:10300000FFF778F903007B6108E0FFF773F902002E
:103010007B69D31A642B01D9032373E17A4B1A68B5
:1030200080235B001340F0D07B689A6880235B00AC
:103030009A4207D1714B714A126D802149000A43AF
:103040001A6531E07B689B68002B0CD16B4B6B4A97
:10305000126D6C490A401A65684B684A126D6B49DB
:103060000A401A6520E07B689A68A023DB009A4238
:103070000ED1624B614A126D8021C9000A431A6564
:103080005E4B5E4A126D802149000A431A650BE0CF
:103090005A4B5A4A126D5B490A401A65574B574AB8
:1030A000126D5A490A401A657B689B68002B15D03F
:1030B000FFF720F903007B6109E0FFF71BF902002D
:1030C0007B69D31A524A934201D903231AE14B4B2D
:1030D0001A6D80239B001340EFD014E0FFF70AF92C
:1030E00003007B6109E0FFF705F902007B69D31A51
:1030F000474A934201D9032304E1404B1A6D8023D0
:103100009B001340EFD12323FB181B78012B05D123
:103110003A4B3A4A926B3F490A409A637B681B6874
:103120002022134049D07B689B69002B26D0334B6B
:10313000324A926801210A439A60304B2F4A526BFF
:1031400001210A435A63344B334A126A80218901B0
:103150000A431A62FFF7CEF803007B6108E0FFF72D
:10316000C9F802007B69D31A022B01D90323C9E0F5
:10317000224B9B6802221340F1D01EE01F4B1F4AD6
:10318000926801218A439A60234B234A126A234999
:103190000A401A62FFF7AEF803007B6108E0FFF710
:1031A000A9F802007B69D31A022B01D90323A9E0F5
:1031B000124B9B6802221340F1D17B689B6A002B63
:1031C00000D19EE0FB690C2B00D177E07B689B6A05
:1031D000022B58D1094B094A126811490A401A605A
:1031E000FFF788F803007B611CE0FFF783F802001B
:1031F0007B69D31A022B15D9032383E00010024008
:10320000FF1FFFFFFFFEFFFF00700040FFFBFFFFFF
:1032100088130000FFFFFFEF00000140FFDFFFFF0A
:10322000FFFFFFFE394B1A6880239B041340DCD15B
:10323000364A364BDB68364919407B68D86A7B686A
:103240001B6B18437B685B6B03430B43D3602F4BB3
:103250002E4A1268802149040A431A60FFF74AF88F
:1032600003007B6108E0FFF745F802007B69D31A91
:10327000022B01D9032345E0244B1A6880239B04C9
:103280001340F0D03DE0214B204A126821490A400A
:103290001A60FFF72FF803007B6108E0FFF72AF8B8
:1032A00002007B69D31A022B01D903232AE0174BB2
:1032B0001A6880239B041340F0D122E07B689B6A4C
:1032C000012B01D101231DE0104BDB68BB61BA6902
:1032D00080235B021A407B68DB6A9A420FD1BA698D
:1032E000F0239B031A407B681B6B9A4207D1BA6993
:1032F000C0231B041A407B685B6B9A4201D00123F8
:1033000000E000231800BD460BB090BD0010024045
:10331000FFFF02FFFFFFFFFE90B585B000AF7860B2
:1033200039607B68002B01D101230CE1884B1B68BD
:1033300001221A403B689A4211D2854B844A126896
:1033400001218A4311003A680A431A60804B1B68C6
:1033500001221A403B689A4201D00123F3E07B68C6
:103360001B680222134009D07A4A7A4BDB68F021AD
:103370008B4319007B689B680B43D3607B681B6899
:103380000122134000D189E07B685B68022B07D1E2
:10339000704B1A6880239B02134020D10123D2E096
:1033A0007B685B68032B07D16A4B1A6880239B04F8
:1033B000134014D10123C6E07B685B68012B06D162
:1033C000644B1B680422134009D10123BBE0614B0D
:1033D0001A6880239B00134001D10123B3E05D4AAA
:1033E0005C4BDB6803218B4319007B685B680B43F4
:1033F000D360FEF77FFF0300FB607B685B68022BF6
:1034000011D109E0FEF776FF0200FB68D31A524A99
:10341000934201D9032396E04E4BDB680C22134004
:10342000082BEFD13AE07B685B68032B11D109E0F0
:10343000FEF760FF0200FB68D31A474A934201D9A6
:10344000032380E0434BDB680C2213400C2BEFD1AD
:1034500024E07B685B68012B1BD109E0FEF74AFF83
:103460000200FB68D31A3C4A934201D903236AE065
:10347000384BDB680C221340042BEFD10EE0FEF733
:1034800039FF0200FB68D31A334A934201D9032360
:1034900059E0304BDB680C221340F0D12C4B1B68F9
:1034A00001221A403B689A4211D9294B284A1268D6
:1034B00001218A4311003A680A431A60244B1B68B1
:1034C00001221A403B689A4201D001233BE07B680D
:1034D0001B680422134008D01E4A1E4BDB681F499C
:1034E00019407B68DB680B43D3607B681B6808224C
:1034F000134009D0174A174BDB68194919407B68FC
:103500001B69DB000B43D36000F030F80100114B66
:10351000DB681B090F221340124AD35C0A00DA4011
:10352000114B1A600B23FC180020FEF7ADFE0300C0
:1035300023700B23FB181B78002B03D00B23FB18E5
:103540001B7800E000231800BD4605B090BDC046C2
:10355000002002400010024088130000FFF8FFFF27
:10356000FFC7FFFFB8D800083C00002080B586B038
:1035700000AF324BDB68FB60FB680C221340082B6A
:103580000ED00C2B0FD0042B45D12C4B1B681022D6
:10359000134002D02A4B3B614BE02A4B3B6148E091
:1035A000294B3B6145E0FB689B0C0F221340274AE7
:1035B000D35CBB60FB689B0D0322134001337B602F
:1035C0001E4BDA6880235B02134009D0BB681E4A99
:1035D000534379681800FCF7B3FD03007B6117E0E3
:1035E000164B1B681022134009D0BB68144A534382
:1035F00079681800FCF7A4FD03007B6108E0BB6854
:10360000104A534379681800FCF79AFD03007B6168
:103610007B693B610DE0094B5B685B0B0722134044
:103620003B603B680133802212029A4013003B61E9
:10363000C0463B691800BD4606B080BD0010024080
:1036400000093D000024F40000127A00D0D80008E0
:1036500080B500AF024B1B681800BD4680BDC04658
:103660003C00002080B500AFFFF7F2FF0100064BE1
:10367000DB681B0A07221340044AD35CD9400B00C5
:103680001800BD4680BDC04600100240C8D80008E2
:1036900080B500AFFFF7DCFF0100064BDB68DB0AFB
:1036A00007221340044AD35CD9400B001800BD46E2
:1036B00080BDC04600100240C8D8000880B586B062
:1036C00000AF78607B681B682022134000D1C6E001
:1036D0001723FB1800221A70964B9A6B80235B0508
:1036E00013400AD1934B934A926B802149050A43B8
:1036F0009A631723FB1801221A708F4B1A688023D4
:103700005B0013401AD18C4B8B4A12688021490010
:103710000A431A60FEF7EEFD03003B6108E0FEF786
:10372000E9FD02003B69D31A642B01D90323FCE0B5
:10373000814B1A6880235B001340F0D07D4B1A68E0
:10374000C0239B031340FB607B685A68C0239B0324
:103750001A40FB689A4213D07B685A68C0239B02C8
:103760001A40C0239B029A420AD1724B1A688023E6
:103770009B021A4080239B029A4201D10123D4E08C
:103780006C4B1A6DC0239B021340FB60FB68002B3F
:103790003BD07B685A68C0239B021A40FB689A4260
:1037A00033D07B681B68202213402ED0614B1B6DE9
:1037B000624A1340FB605F4B5E4A126D8021090331
:1037C0000A431A655B4B5B4A126D5D490A401A65F4
:1037D000584BFA681A65FA6880235B00134014D0CE
:1037E000FEF788FD03003B6109E0FEF783FD020060
:1037F0003B69D31A534A934201D9032395E04D4BB9
:103800001A6D80239B001340EFD07B685A68C02359
:103810009B021A40C0239B029A420BD1454A454B5A
:103820001B68494919407B685868C0239B030340C3
:103830000B4313603F4A3F4B196D7B685868C023A8
:103840009B0203400B4313651723FB181B78012BC6
:1038500005D1384B374A926B3C490A409A637B68E2
:103860001B680122134009D0324A324BDB6C032122
:103870008B4319007B689B680B43D3647B681B6890
:103880000222134009D02B4A2A4BDB6C0C218B43BC
:1038900019007B68DB680B43D3647B681B680422D8
:1038A000134008D0234A234BDB6C294919407B681D
:1038B0001B690B43D3647B681B680822134008D044
:1038C0001C4A1C4BDB6C234919407B685B690B432A
:1038D000D3647B681A6880235B00134008D0154AC4
:1038E000144BDB6C154919407B689B690B43D3640F
:1038F0007B681B684022134008D00E4A0D4BDB6CDE
:10390000154919407B681B6A0B43D3647B681B68AD
:103910008022134008D0074A064BDB6C0F49194040
:103920007B68DB690B43D36400231800BD4606B0F7
:1039300080BDC0460010024000700040FFFFFCFF49
:10394000FFFFF7FF88130000FFFFCFFFFFFFFFEF30
:10395000FFF3FFFFFFCFFFFFFFFFFFFBFFFFF3FFC3
:1039600080B582B000AF78607B68002B01D1012365
:103970008EE07B6821229B5CDBB2002B07D17B6849
:103980002022002199547B68180006F07DF97B689D
:103990002122022199547B681B68CA225A627B68E3
:1039A0001B6853225A627B68180000F0FCFC031E5F
:1039B00009D07B681B68FF225A627B6821220421A0
:1039C0009954012364E07B681B687A6812689268E6
:1039D00031490A409A607B681B687A68126891686E
:1039E0007A6850687A68126910437A68926902436B
:1039F0000A439A607B681B687A68D2681A617B68A0
:103A00001B687A68126811697A68926812040A431E
:103A10001A617B681B687A681268D26880218A43C1
:103A2000DA607B681B687A681268D26C03218A436B
:103A3000DA647B681B687A681268D16C7A68D0692E
:103A40007A68526902430A43DA647B681B689B68A0
:103A50002022134013D17B68180000F07DFC031E68
:103A60000DD07B681B68FF225A627B6821220421EB
:103A700099547B68202200219954012308E07B6837
:103A80001B68FF225A627B6821220121995400237E
:103A90001800BD4602B080BDBFFF8FFF90B587B054
:103AA00000AFF860B9607A60FB6820229B5C012B54
:103AB00001D10223ADE0FB68202201219954FB686B
:103AC0002122022199547B68002B25D1FB681B68B9
:103AD0009B684022134002D1BB680022DA70BB68A9
:103AE0001B78180000F089FC03001C04BB685B789D
:103AF000180000F082FC03001B021C43BB689B788B
:103B0000180000F07AFC030022001A43BB68DB783F
:103B10001B0413437B6117E0FB681B689B68402212
:103B2000134002D1BB680022DA70BB681B781A040C
:103B3000BB685B781B021343BA6892781A43BB6870
:103B4000DB781B0413437B61FB681B68CA225A6243
:103B5000FB681B6853225A62FB68180000F023FCC4
:103B6000031E0DD0FB681B68FF225A62FB682122EE
:103B700004219954FB68202200219954012348E034
:103B8000FB681B687A6925490A401A60FB681B6854
:103B9000FA681268926822490A409A60FB681B68BA
:103BA000FA6812689168BA68D068BA681269024304
:103BB0000A439A60FB681B68FA681268D268802121
:103BC0008A43DA60FB681B689B682022134013D18C
:103BD000FB68180000F0C0FB031E0DD0FB681B68DB
:103BE000FF225A62FB68212204219954FB6820229B
:103BF0000021995401230CE0FB681B68FF225A62E4
:103C0000FB68212201219954FB682022002199544C
:103C100000231800BD4607B090BDC0467F7F7F00DF
:103C2000FFFFFBFF80B586B000AFF860B9607A6037
:103C3000FB681B689A6ABB685A60FB681B681B6953
:103C40005B045A0CBB689A60FB681B681B68224ABD
:103C500013407B617B691B0CDBB23F221340DAB25D
:103C6000BB681A707B691B0ADBB27F221340DAB291
:103C7000BB685A707B69DBB27F221340DAB2BB6843
:103C80009A707B691B0CDBB240221340DAB2BB682E
:103C9000DA707B68002B1AD1BB681B78180000F023
:103CA000D6FB03001A00BB681A70BB685B7818006B
:103CB00000F0CDFB03001A00BB685A70BB689B780C
:103CC000180000F0C4FB03001A00BB689A700023C0
:103CD0001800BD4606B080BD7F7F7F0090B587B0DD
:103CE00000AFF860B9607A60FB6820229B5C012B12
:103CF00001D1022399E0FB68202201219954FB683D
:103D00002122022199547B68002B0ED1BB685B787D
:103D10001A001023134008D0BB685B78102293432D
:103D2000DBB20A33DAB2BB685A707B68002B1CD155
:103D3000BB68DB78180000F060FB03001C04BB6864
:103D40005B78180000F059FB03001B021C43BB68A2
:103D50009B78180000F051FB030022001A43BB6857
:103D60001B785B0313437B610EE0BB68DB781A04AE
:103D7000BB685B781B021343BA6892781A43BB682E
:103D80001B785B0313437B61FB681B68CA225A6282
:103D9000FB681B6853225A62FB68180000F003FBA3
:103DA000031E0DD0FB681B68FF225A62FB682122AC
:103DB00004219954FB68202200219954012334E006
:103DC000FB681B687A691B490A405A60FB681B68DC
:103DD000FA681268D26880218A43DA60FB681B683F
:103DE0009B682022134013D1FB68180000F0B4FA3E
:103DF000031E0DD0FB681B68FF225A62FB6821225C
:103E000004219954FB6820220021995401230CE0DD
:103E1000FB681B68FF225A62FB682122012199542A
:103E2000FB6820220021995400231800BD4607B0EA
:103E300090BDC0463FFFFF0080B586B000AFF86080
:103E4000B9607A60FB681B685B68214A13407B613C
:103E50007B691B0CDAB2BB68DA707B691B0ADBB2C8
:103E60001F221340DAB2BB685A707B69DBB23F2273
:103E70001340DAB2BB689A707B695B0BDBB2072236
:103E80001340DAB2BB681A707B68002B1AD1BB688A
:103E9000DB78180000F0DBFA03001A00BB68DA7068
:103EA000BB685B78180000F0D2FA03001A00BB6808
:103EB0005A70BB689B78180000F0C9FA03001A001A
:103EC000BB689A7000231800BD4606B080BDC0468E
:103ED0003FFFFF0090B589B000AFF860B9607A602D
:103EE000FB6820229B5C012B01D1022330E1FB689F
:103EF000202201219954FB682122022199547B68D8
:103F0000002B36D1FB681B689B684022134002D10E
:103F1000BB680022DA70BB681B78180000F06DFAED
:103F200003001C04BB685B78180000F066FA03000D
:103F30001B021C43BB689B78180000F05EFA03006C
:103F400022001A43BB68DB781B041A431400BB68C9
:103F500020229B5C180000F050FA03001B06220090
:103F60001A43BB68DB691A43BB685B691343FB6197
:103F700022E0FB681B689B684022134002D1BB68AB
:103F80000022DA70BB681B781A04BB685B781B02DE
:103F90001343BA6892781A43BB68DB781B041A4350
:103FA000BB6820215B5C1B061A43BB68DB691A43B4
:103FB000BB685B691343FB61BB685A68BB689B695C
:103FC0001343BB61FB681B68CA225A62FB681B680B
:103FD00053225A62BB685A6A80235B009A424ED1D0
:103FE000FB681B68FA68126892685B490A409A602D
:103FF000FB681B68FA681268D268FF210A405749BB
:104000000A43DA60FEF776F903007B6116E0FEF7FB
:1040100071F902007B69D21AFA239B009A420DD9EA
:10402000FB681B68FF225A62FB6821220321995416
:10403000FB68202200219954032389E0FB681B6858
:10404000DB6801221340E2D0FB681B68FA69DA6181
:10405000FB681B68BA695A64FB681B68FA681268D7
:104060009268802149000A439A60FB681B68FA68DD
:1040700012689268802149010A439A604DE0FB680A
:104080001B68FA681268926835490A409A60FB68B2
:104090001B68FA681268D268FF210A4031490A4356
:1040A000DA60FEF727F903007B6116E0FEF722F9DC
:1040B00002007B69D21AFA239B009A420DD9FB6851
:1040C0001B68FF225A62FB68212203219954FB6876
:1040D00020220021995403233AE0FB681B68DB6827
:1040E00002221340E2D0FB681B68FA691A62FB687F
:1040F0001B68BA699A64FB681B68FA681268926860
:10410000802189000A439A60FB681B68FA6812687C
:104110009268802189010A439A60134B124A1268FF
:10412000802189020A431A600F4B0F4A926880214E
:1041300089020A439A60FB681B68FF225A62FB6887
:10414000212201219954FB68202200219954002347
:104150001800BD4609B090BDFFFEFFFF7FFEFFFFC8
:10416000FFFDFFFF7FFDFFFF0004014080B584B02D
:1041700000AF786039607B6820229B5C012B01D105
:10418000022386E07B682022012199547B6821224A
:10419000022199547B681B68CA225A627B681B689B
:1041A00053225A623A6880235B009A4232D17B687C
:1041B0001B687A681268926838490A409A607B687E
:1041C0001B687A681268926835490A409A60FEF75F
:1041D00091F80300FB6016E0FEF78CF80200FB6824
:1041E000D21AFA239B009A420DD97B681B68FF22E2
:1041F0005A627B682122032199547B682022002186
:104200009954032345E07B681B68DB680122134057
:10421000E2D031E07B681B687A68126892682149B5
:104220000A409A607B681B687A68126892681E4927
:104230000A409A60FEF75EF80300FB6016E0FEF7A6
:1042400059F80200FB68D21AFA239B009A420DD952
:104250007B681B68FF225A627B68212203219954E4
:104260007B68202200219954032312E07B681B689D
:10427000DB6802221340E2D07B681B68FF225A628F
:104280007B682122012199547B68202200219954C6
:1042900000231800BD4604B080BDC046FFFEFFFFEE
:1042A000FFEFFFFFFFFDFFFFFFDFFFFF80B582B0E5
:1042B00000AF78607B681B689A6880235B011340BD
:1042C00014D07B681B68DA6880235B0013400DD034
:1042D0007B68180000F038F87B681B687A68126801
:1042E000D268FF210A4015490A43DA607B681B68DF
:1042F0009A6880239B01134014D07B681B68DA689E
:1043000080239B0013400DD07B68180000F0BCF8A0
:104310007B681B687A681268D268FF210A400849E6
:104320000A43DA60074B802292025A617B6821229D
:1043300001219954C046BD4602B080BD7FFEFFFFFB
:104340007FFDFFFF0004014080B582B000AF7860C0
:10435000C046BD4602B080BD80B584B000AF786075
:104360007B681B687A681268D268A0218A43DA6089
:10437000FDF7C0FF0300FB600AE0FDF7BBFF020092
:10438000FB68D21AFA239B009A4201D9032306E064
:104390007B681B68DB6820221340EED000231800E6
:1043A000BD4604B080BD80B584B000AF78607B6846
:1043B0001B68DB68402213401AD17B681B6801220E
:1043C0005242DA60FDF796FF0300FB600AE0FDF75A
:1043D00091FF0200FB68D21AFA239B009A4201D98E
:1043E000032306E07B681B68DB6840221340EED0A5
:1043F00000231800BD4604B080BD80B584B000AF76
:104400000200FB1D1A700023FB600B23FB18FA1D32
:1044100012781A7009E0FB680133FB600B23FB186C
:104420000B22BA1812780A3A1A700B23FB181B7861
:10443000092BF0D8FB68DBB21B01DAB20B23FB18A7
:104440001B781343DBB21800BD4604B080BD80B5B5
:1044500084B000AF0200FB1D1A70FB1D1B781B0906
:10446000DBB21A0013009B009B185B00FB60FB682B
:10447000DAB2FB1D1B780F210B40DBB2D318DBB285
:104480001800BD4604B080BD80B582B000AF786032
:10449000C046BD4602B080BD80B582B000AF786036
:1044A0007B68002B01D1012357E07B6800229A62D0
:1044B0007B6851229B5CDBB2002B07D17B685022CA
:1044C000002199547B68180005F0FEFB7B6851229F
:1044D000022199547B681B687A681268126840212F
:1044E0008A431A607B681B687A6851687A689268A8
:1044F00011437A68D26811437A68126911437A6865
:10450000526911437A6890698022920002401143F7
:104510007A68D26911437A68126A11437A68926A9A
:104520000A431A607B681B687A689269120C04213E
:1045300011407A68526A0A435A607B681B687A683D
:104540001268D26907490A40DA617B6800225A651D
:104550007B6851220121995400231800BD4602B006
:1045600080BDC046FFF7FFFF80B58CB000AFF8609C
:10457000B9607A601A00BB1C1A800123FB622B23EE
:10458000FB1800221A70FB6850229B5C012B01D1A2
:104590000223A2E1FB68502201219954FDF7AAFEF3
:1045A00003007B622323FB18FA685121525C1A70C6
:1045B000FB685B68FB611A23FB18BA1C12881A801F
:1045C0002323FB181B78012B12D0FA6982235B008E
:1045D0009A4208D1FB689B68002B04D12323FB1867
:1045E0001B78042B04D02B23FB1802221A7069E1DC
:1045F000BB68002B06D07B68002B03D0BB1C1B883C
:10460000002B04D12B23FB1801221A705AE1FB68FE
:1046100051229B5CDBB2042B03D0FB6851220521A5
:104620009954FB6800225A65FB687A689A63FB68B4
:10463000BA1C1288DA87FB68BA1C12889A87FB6852
:10464000BA681A63FB68BA1C1288DA86FB68BA1C5F
:1046500012889A86FB6800221A64FB6800225A645A
:10466000FB681B681B6840221340402B07D0FB6887
:104670001B68FA681268126840210A431A60FB68D6
:10468000DA6880231B019A4200D07AE0FB685B68FD
:10469000002B04D01A23FB181B88012B66D1FB6862
:1046A0001B68FA68126B1288DA60FB681B6B9A1C35
:1046B000FB681A63FB68DB8E9BB2013B9AB2FB6816
:1046C000DA8653E0FB681B689B6802221340022BCA
:1046D0001BD1FB68DB8E9BB2002B16D0FB6A012B33
:1046E00013D1FB681B68FA68126B1288DA60FB68EA
:1046F0001B6B9A1CFB681A63FB68DB8E9BB2013B49
:104700009AB2FB68DA860023FB62FB681B689B6831
:1047100001221340012B19D1FB68DB8F9BB2002BC8
:1047200014D0FB689A6BFB681B68DB689BB2138034
:10473000FB689B6B9A1CFB689A63FB68DB8F9BB2E0
:10474000013B9AB2FB68DA870123FB62FDF7D2FDD9
:1047500002007B6AD21ABB6B9A4207D3BB6B013350
:1047600004D02B23FB1803221A70ABE0FB68DB8E0E
:104770009BB2002BA6D1FB68DB8F9BB2002BA1D193
:1047800081E0FB685B68002B05D01A23FB181B88AF
:10479000012B00D06DE0FB681B680C331A00FB682E
:1047A0001B6B1B781370FB681B6B5A1CFB681A632E
:1047B000FB68DB8E9BB2013B9AB2FB68DA8658E05D
:1047C000FB681B689B6802221340022B1DD1FB680B
:1047D000DB8E9BB2002B18D0FB6A012B15D1FB6836
:1047E0001B680C331A00FB681B6B1B781370FB688B
:1047F0001B6B5A1CFB681A63FB68DB8E9BB2013B88
:104800009AB2FB68DA860023FB62FB681B689B6830
:1048100001221340012B19D1FB68DB8F9BB2002BC7
:1048200014D0FB689A6BFB681B68DB68DBB2137003
:10483000FB689B6B5A1CFB689A63FB68DB8F9BB21F
:10484000013B9AB2FB68DA870123FB62FDF752FD58
:1048500002007B6AD21ABB6B9A4202D3BB6B013354
:1048600002D1BB6B002B04D12B23FB1803221A703F
:1048700028E0FB68DB8E9BB2002BA1D1FB68DB8FAD
:104880009BB2002B9CD17A6AB96BFB68180000F0D0
:10489000A1F9031E07D02B23FB1801221A70FB6815
:1048A00020225A650EE0FB689B68002B0AD100238A
:1048B0007B61FB681B68DB687B61FB681B689B682E
:1048C0007B617B69FB68512201219954FB6850226E
:1048D000002199542B23FB181B781800BD460CB0FF
:1048E00080BD000080B588B000AF78607B681B6831
:1048F0005B68FB617B681B689B68BB61BB6940228E
:1049000013400DD1BB690122134009D0FB6940223D
:10491000134005D07B681B6C7A6810009847C6E08E
:10492000BB690222134009D0FB698022134005D0E5
:104930007B685B6C7A6810009847B8E0BB692022FE
:10494000134009D1BB694022134005D1BA698023C5
:104950005B00134000D1AAE0FB692022134000D184
:10496000A5E0BB694022134023D07B6851229B5CA9
:10497000DBB2032B11D07B685B6D04221A437B688A
:104980005A6500237B617B681B68DB687B617B6801
:104990001B689B687B617B690BE000233B617B6844
:1049A0001B68DB683B617B681B689B683B613B69FC
:1049B0007DE0BB692022134014D07B685B6D01222F
:1049C0001A437B685A650023FB607B681B689B6801
:1049D000FB607B681B687A681268126840218A4312
:1049E0001A60FB68BA6980235B0013400CD07B68B7
:1049F0005B6D08221A437B685A650023BB607B68A5
:104A00001B689B68BB60BB687B685B6D002B4DD0EF
:104A10007B681B687A6812685268E0218A435A6092
:104A20007B68512201219954FB690222134003D172
:104A3000FB690122134032D07B681B687A681268D8
:104A4000526803218A435A607B68DB6C002B10D0CC
:104A50007B68DB6C174A9A637B68DB6C1800FDF798
:104A6000C5FD031E05D07B685B6D40221A437B6841
:104A70005A657B689B6C002B16D07B689B6C0D4A3B
:104A80009A637B689B6C1800FDF7B0FD031E0BD08A
:104A90007B685B6D40221A437B685A6504E07B6843
:104AA000180000F009F800E0C046C046C046BD4608
:104AB00008B080BDC94A000880B582B000AF7860F8
:104AC000C046BD4602B080BD80B584B000AF7860FE
:104AD0007B689B6AFB60FB680022DA87FB68002228
:104AE000DA86FB681800FFF7E7FFC046BD4604B052
:104AF00080BD000080B584B000AFF860B9603B6055
:104B0000FB1D1A7050E03B6801334DD0FDF7F2FBFE
:104B10000200BB69D21A3B689A4202D23B68002B62
:104B200042D1FB681B68FA6812685268E0218A4328
:104B30005A60FB685A6882235B009A4213D1FB6873
:104B40009A6880231B029A4205D0FB689A688023EA
:104B5000DB009A4207D1FB681B68FA68126812688A
:104B600040218A431A60FB689A6A80239B019A421B
:104B700010D1FB681B68FA681268126814490A4071
:104B80001A60FB681B68FA68126812688021890144
:104B90000A431A60FB68512201219954FB68502294
:104BA0000021995403230FE0FB681B689B68BA68D7
:104BB0001A40BB68D31A5A425341DBB21A00FB1D9C
:104BC0001B789A429FD100231800BD4604B080BDD7
:104BD000FFDFFFFF80B586B002AFF860B9607A6092
:104BE000FB685A6882235B009A4212D1BA68F8685F
:104BF0007B680093130000228021FFF77BFF031ED8
:104C000020D0FB685B6D20221A43FB685A650323A2
:104C100019E0FB6851229B5CDBB2052B12D1BA680C
:104C2000F8687B680093130000220121FFF762FF00
:104C3000031E07D0FB685B6D20221A43FB685A6590
:104C4000032300E000231800BD4604B080BD00002F
:104C500080B582B000AF78607B68002B01D1012362
:104C600044E07B685B6F002B07D17B6870220021DA
:104C700099547B68180005F00DF97B6824225A6767
:104C80007B681B687A681268126801218A431A607F
:104C90007B68180000F00CFA0300012B01D10123FE
:104CA00024E07B685B6A002B03D07B68180000F06F
:104CB0003BFD7B681B687A68126852680D490A40A0
:104CC0005A607B681B687A68126892682A218A4356
:104CD0009A607B681B687A681268126801210A432F
:104CE0001A607B68180000F0CBFD03001800BD4679
:104CF00002B080BDFFB7FFFF80B58AB002AFF86099
:104D0000B9603B60BB1D1A80FB685B6F202B00D035
:104D100093E0BB68002B03D0BB1D1B88002B01D187
:104D200001238BE0FB689A6880235B019A4209D1DA
:104D3000FB681B69002B05D1BB680122134001D021
:104D400001237BE0FB6870229B5C012B01D10223D5
:104D500074E0FB68702201219954FB680022DA6735
:104D6000FB6821225A67FDF7C5FA03007B61FB68E7
:104D7000BA1D502112885A52FB68BA1D522112885E
:104D80005A52FB689A6880235B019A4208D1FB68FB
:104D90001B69002B04D10023FB61BB68BB6103E0EE
:104DA000BB68FB610023BB612BE07A69F8683B6854
:104DB000009313000022802100F0A8FD031E01D003
:104DC00003233BE0FB69002B0AD1FB681B68BA692F
:104DD0001288D205D20D9A62BB690233BB6107E02B
:104DE000FB681B68FA6912789A62FB690133FB6100
:104DF000FB6852229B5A9BB2013B99B2FB6852223C
:104E00009952FB6852229B5A9BB2002BCDD17A69F2
:104E1000F8683B68009313000022402100F076FD03
:104E2000031E01D0032309E0FB6820225A67FB68B8
:104E3000702200219954002300E002231800BD468F
:104E400008B080BD80B588B000AF78607B681B6813
:104E5000DB69FB617B681B681B68BB617B681B6847
:104E60009B687B61FB690F2213403B613B69002B10
:104E700012D1FB69202213400ED0BB6920221340BF
:104E80000AD07B681B6E002B00D1F6E07B681B6E9E
:104E90007A6810009847F0E03B69002B00D1B8E039
:104EA0007B690122134005D1BA6990235B0013404E
:104EB00000D1AEE0FB69012213400ED0BA69802315
:104EC0005B00134009D07B681B6801221A627B6873
:104ED000DB6F01221A437B68DA67FB690222134009
:104EE0000DD07B690122134009D07B681B68022228
:104EF0001A627B68DB6F04221A437B68DA67FB69FE
:104F0000042213400DD07B690122134009D07B6835
:104F10001B6804221A627B68DB6F02221A437B68DB
:104F2000DA67FB690822134011D0BB6920221340C5
:104F300003D17B690122134009D07B681B680822DA
:104F40001A627B68DB6F08221A437B68DA677B682A
:104F5000DB6F002B00D192E0FB69202213400CD0C4
:104F6000BB692022134008D07B681B6E002B04D045
:104F70007B681B6E7A68100098477B68DB6FFB606C
:104F80007B681B689B6840221340402B03D0FB6862
:104F90000822134033D07B68180000F001FD7B68C5
:104FA0001B689B6840221340402B23D17B681B6801
:104FB0007A681268926840218A439A607B68DB6E47
:104FC000002B12D07B68DB6E304A9A637B68DB6E05
:104FD0001800FDF70BFB031E19D07B68DB6E9A6B84
:104FE0007B68DB6E1800904711E07B68180000F0CA
:104FF00057F80CE07B68180000F052F807E07B6877
:10500000180000F04DF87B680022DA6737E0C046F0
:1050100035E0FA6980235B0313400ED07A69802360
:10502000DB03134009D07B681B68802252031A629D
:105030007B68180000F005FD24E0FB698022134026
:105040000DD0BB698022134009D07B685B6E002BBA
:1050500017D07B685B6E7A681000984711E0FB6997
:10506000402213400ED0BB69402213400AD07B6817
:10507000180000F0CCFCC04604E0C04602E0C04688
:1050800000E0C046BD4608B080BDC046E1590008FA
:1050900080B582B000AF7860C046BD4602B080BD2A
:1050A00080B582B000AF7860C046BD4602B080BD1A
:1050B000B0B58EB000AFF8611B2318229446BC44F3
:1050C000634410221A700023FB62132318229446B3
:1050D000BC44634400221A7000237B62FB699A6817
:1050E000FB691B691A43FB695B691A43FB69DB694E
:1050F00013437B63FB691B68FA6912681268C8492D
:1051000011407A6B0A431A60FB691B68FA691268DE
:105110005268C4491140FA69D2680A435A60FB696F
:105120009B697B63FB691B68BF4A934204D0FB69A0
:105130001B6A7A6B13437B63FB691B68FA6912680D
:105140009268BA4911407A6B0A439A60FB691B68FE
:10515000B74A934234D1B74BDB6C03221340012B87
:1051600015D004D3022B0AD0032B18D01FE01B2329
:1051700018229446BC44634401221A70C5E01B23E4
:1051800018229446BC44634402221A70BDE01B23DB
:1051900018229446BC44634404221A70B5E01B23D1
:1051A00018229446BC44634408221A70ADE01B23C5
:1051B00018229446BC44634410221A70C046A4E0EE
:1051C000FB691B689C4A934237D19A4BDB6C0C22DB
:1051D0001340042B18D002D8002B05D024E0082B54
:1051E0000AD00C2B18D01FE01B2318229446BC4475
:1051F000634400221A7088E01B2318229446BC44A2
:10520000634402221A7080E01B2318229446BC4497
:10521000634404221A7078E01B2318229446BC448D
:10522000634408221A7070E01B2318229446BC4481
:10523000634410221A70C04667E0FB691B687F4A0E
:10524000934207D11B2318229446BC446344002296
:105250001A705AE0FB691B68794A934207D11B23F5
:1052600018229446BC44634400221A704DE0FB6946
:105270001B686D4A934241D16E4BDA6CC0231B010F
:1052800013408022D20093421FD08022D20093424A
:1052900002D8002B09D028E08022120193420CD0C2
:1052A000C0221201934218D01FE01B2318229446FB
:1052B000BC44634400221A7027E01B231822944642
:1052C000BC44634402221A701FE01B231822944638
:1052D000BC44634404221A7017E01B23182294462E
:1052E000BC44634408221A700FE01B231822944622
:1052F000BC44634410221A70C04606E01B231822E7
:105300009446BC44634410221A70FB691B68464AE9
:10531000934200D09EE01B2318229446BC44634471
:105320001B78022B0DD002DC002B05D01DE0042BD6
:1053300012D0082B15D018E0FEF794F903007B6219
:105340001BE03C4B1B681022134002D03D4B7B629C
:1053500013E03D4B7B6210E0FEF708F903007B622F
:105360000BE080231B027B6207E013231822944684
:10537000BC44634401221A70C0467B6A002B00D1F2
:10538000B1E1FB695A6813005B009A187B6A9A4284
:1053900005D8FB695B681A037B6A9A4207D213231C
:1053A00018229446BC44634401221A709BE17B6A34
:1053B0003B6100237B6139697A690B001B0E100089
:1053C00005021D430B001C02FB695B685B08BB60A8
:1053D0000023FB60B868F96800196941FB695B68E4
:1053E0003B6000237B603A687B68FBF75DF8030055
:1053F0000C00FB62FB6A154A934208D9FB6A144A07
:10540000934204D8FB691B68FA6ADA606BE11323E4
:1054100018229446BC44634401221A7063E1C046DA
:10542000F369FFEFFFCFFFFF00480040FFF4FFFFED
:10543000003801400010024000440040004C004091
:105440000050004000093D000024F400FF0200006D
:10545000FFFF0F00FB69DA6980231B029A4200D02C
:10546000B3E01B2318229446BC4463441B78082BEA
:105470006DD89A00A44BD3181B689F46FEF7F2F82C
:1054800003005A00FB695B685B08D218FB695B6824
:1054900019001000FAF754FE03009BB2FB625EE0B5
:1054A000FEF7F6F803005A00FB695B685B08D21848
:1054B000FB695B6819001000FAF742FE03009BB21B
:1054C000FB624CE0914B1B68102213400ED0FB692D
:1054D0005B685B088E4A9A18FB695B6819001000CC
:1054E000FAF72EFE03009BB2FB6238E0FB695B68B3
:1054F0005B08884A9A18FB695B6819001000FAF784
:105500001FFE03009BB2FB6229E0FEF72FF80300A9
:105510005A00FB695B685B08D218FB695B6819007D
:105520001000FAF70DFE03009BB2FB6217E0FB6967
:105530005B685B08802252029A18FB695B6819005D
:105540001000FAF7FDFD03009BB2FB6207E0132396
:1055500018229446BC44634401221A70C046FB6A78
:105560000F2B2AD9FB6A6C4A934226D8FB6A9AB25F
:105570000A2318218C46BC4463440F218A431A80B5
:10558000FB6A5B089BB20722134099B20A231822D8
:105590009446BC4463440A2218208446BC446244B6
:1055A00012880A431A80FB691B680A2218218C465C
:1055B000BC4462441288DA6095E0132318229446B2
:1055C000BC44634401221A708DE01B2318229446C8
:1055D000BC4463441B78082B6AD89A004F4BD318FD
:1055E0001B689F46FEF73EF80200FB695B685B089C
:1055F000D218FB695B6819001000FAF7A1FD0300DF
:105600009BB2FB625CE0FEF743F80200FB695B685B
:105610005B08D218FB695B6819001000FAF790FD6F
:1056200003009BB2FB624BE0384B1B681022134017
:105630000ED0FB695B685B08394A9A18FB695B68A6
:1056400019001000FAF77CFD03009BB2FB6237E003
:10565000FB695B685B08334A9A18FB695B68190051
:105660001000FAF76DFD03009BB2FB6228E0FDF726
:105670007DFF0200FB695B685B08D218FB695B6811
:1056800019001000FAF75CFD03009BB2FB6217E003
:10569000FB695B685B08802212029A18FB695B68F1
:1056A00019001000FAF74CFD03009BB2FB6207E003
:1056B000132318229446BC44634401221A70C04646
:1056C000FB6A0F2B08D9FB6A134A934204D8FB6983
:1056D0001B68FA6ADA6006E0132318229446BC4479
:1056E000634401221A70FB6900221A66FB690022DA
:1056F0005A66132318229446BC4463441B7818004E
:10570000BD460EB0B0BDC046B8D60008001002407D
:1057100000127A000048E801FFFF0000DCD6000814
:1057200000093D000024F40080B582B000AF78602D
:105730007B685B6A012213400AD07B681B687A6829
:1057400012685268454911407A68926A0A435A6061
:105750007B685B6A022213400AD07B681B687A6808
:10576000126852683E4911407A68D26A0A435A6008
:105770007B685B6A042213400AD07B681B687A68E6
:1057800012685268374911407A68126B0A435A60AE
:105790007B685B6A082213400AD07B681B687A68C2
:1057A00012685268304911407A68526B0A435A6055
:1057B0007B685B6A102213400AD07B681B687A689A
:1057C00012689268294911407A68926B0A439A607C
:1057D0007B685B6A202213400AD07B681B687A686A
:1057E00012689268224911407A68D26B0A439A6023
:1057F0007B685B6A402213401BD07B681B687A6819
:10580000126852681B4911407A68126C0A435A6048
:105810007B681A6C80235B039A420AD17B681B6801
:105820007A6812685268144911407A68526C0A43C7
:105830005A607B685B6A802213400AD07B681B68D1
:105840007A68126852680D4911407A68926C0A436E
:105850005A60C046BD4602B080BDC046FFFFFDFF96
:10586000FFFFFEFFFFFFFBFFFF7FFFFFFFEFFFFFDD
:10587000FFDFFFFFFFFFEFFFFFFF9FFFFFFFF7FFD0
:1058800080B586B002AF78607B680022DA67FCF7EB
:1058900031FD0300FB607B681B681B680822134016
:1058A000082B0DD1FA68802399037868164B009372
:1058B0001300002200F02AF8031E01D003231FE08A
:1058C0007B681B681B6804221340042B0DD1FA6807
:1058D0008023D90378680C4B00931300002200F05A
:1058E00015F8031E01D003230AE07B6820225A67C3
:1058F0007B6820229A677B687022002199540023DC
:105900001800BD4604B080BDFFFFFF0180B584B024
:1059100000AFF860B9603B60FB1D1A7029E0BB69FD
:10592000013326D0FCF7E6FC02003B68D21ABB69C3
:105930009A4202D8BB69002B1BD1FB681B68FA682E
:105940001268126815490A401A60FB681B68FA68F9
:105950001268926801218A439A60FB6820225A6784
:10596000FB6820229A67FB68702200219954032368
:105970000FE0FB681B68DB69BA681A40BB68D31A82
:105980005A425341DBB21A00FB1D1B789A42C6D023
:1059900000231800BD4604B080BDC0465FFEFFFF77
:1059A00080B582B000AF78607B681B687A68126847
:1059B00012680A490A401A607B681B687A68126894
:1059C000926801218A439A607B6820229A677B68EB
:1059D00000221A66C046BD4602B080BDDFFEFFFF52
:1059E00080B584B000AF78607B689B6AFB60FB6821
:1059F0005A2200219952FB68522200219952FB68D9
:105A00001800FFF74DFBC046BD4604B080BD80B511
:105A100082B000AF78607B681B687A681268126891
:105A200040218A431A607B6820225A677B680022E3
:105A30005A667B681800FFF72BFBC046BD4602B0D4
:105A400080BD80B582B000AF7860C046BD4602B070
:105A500080BD80B500AF05231800BD4680BD80B570
:105A600082B000AF0200FB1D1A70FB1D1B78012BDA
:105A70000BD180235901A023DB0501221800FDF77B
:105A800029F80520FCF740FC07E080235901A023FA
:105A9000DB0500221800FDF71DF8C046BD4602B028
:105AA00080BD000080B500AF034B180000F0A0FFE0
:105AB000C046BD4680BDC0460000002080B500AF96
:105AC000C046BD4680BD000080B584B000AF020076
:105AD000BB1D1A800F23FB1800221A70BB1D1A88E9
