:020000040800F2
:1000000000500020ED2F0008752E0008772E000804
:1000100000000000000000000000000000000000E0
:10002000000000000000000000000000792E000821
:1000300000000000000000007B2E00087D2E00085C
:100040003D3000083D300008852E00083D30000896
:100050003D300008952E00083D300008A52E000810
:100060003D3000083D3000083D300008B92E000842
:100070003D3000083D3000083D3000083D300008AC
:100080003D3000083D3000083D3000080000000011
:100090003D3000083D3000083D3000083D3000088C
:1000A0003D3000083D300008C92E00083D300008F2
:1000B000D92E00083D300008000000003D30000847
:1000C00010B5064C2378002B07D1054B002B02D02E
:1000D000044800E000BF0123237010BD7000002021
:1000E00000000000B0310008044B10B5002B03D015
:1000F0000349044800E000BF10BDC04600000000F6
:1001000074000020B0310008002243088B4274D3F1
:1001100003098B425FD3030A8B4244D3030B8B4208
:1001200028D3030C8B420DD3FF22090212BA030C11
:100130008B4202D31212090265D0030B8B4219D3F2
:1001400000E0090AC30B8B4201D3CB03C01A524112
:10015000830B8B4201D38B03C01A5241430B8B425A
:1001600001D34B03C01A5241030B8B4201D30B0343
:10017000C01A5241C30A8B4201D3CB02C01A52416A
:10018000830A8B4201D38B02C01A5241430A8B422D
:1001900001D34B02C01A5241030A8B4201D30B0216
:1001A000C01A5241CDD2C3098B4201D3CB01C01A30
:1001B000524183098B4201D38B01C01A524143093A
:1001C0008B4201D34B01C01A524103098B4201D328
:1001D0000B01C01A5241C3088B4201D3CB00C01A95
:1001E000524183088B4201D38B00C01A524143080D
:1001F0008B4201D34B00C01A5241411A00D2014632
:10020000524110467047FFE701B5002000F006F8A4
:1002100002BDC0460029F7D076E770477047C04658
:10022000002B11D1002A0FD1002900D1002802D0C3
:100230000021C943081C07B4024802A140180290DB
:1002400003BDC046D9FFFFFF03B4684601B502985D
:1002500000F006F8019B9E4602B00CBC7047C046F9
:10026000F0B557464E464546DE46E0B5040083B03D
:100270000D00924699468B422FD82CD049465046C5
:1002800000F0AEF829000600200000F0A9F8331AAB
:100290009846203B9B4600D574E053465A4693400F
:1002A0001F005346424693401E00AF4229D826D035
:1002B0005B46A41BBD41002B00DA79E0002200233D
:1002C0000092019301235A46934001930123424631
:1002D0009340009319E08242D0D90022002300927B
:1002E00001930C9B002B01D01C605D60009801996C
:1002F00003B03CBC90469946A246AB46F0BDA34233
:10030000D6D900220023009201934346002BE8D067
:10031000FB0772081A4346467B080EE0AB4201D148
:10032000A2420CD8A41A9D41012024196D4100213C
:10033000013E24184D41002E06D0AB42EED9013EBD
:1003400024196D41002EF8D15B46009801990019DF
:100350006941002B22DB2B005A46D3402A00444639
:10036000E2401C005B461500002B2CDB26009E4063
:10037000330026004746BE403200801A9941009063
:100380000191AEE7424620239B1A5246DA4041468D
:1003900013004A468A4017001F4382E74246202343
:1003A0009B1A2A0046469A402300F3401343D5E7A0
:1003B0004246202300219B1A002200910192012233
:1003C000DA40019282E74246202326009B1ADE4053
:1003D0002F00B446974066463B003343C9E7C0460A
:1003E00010B5002903D100F007F8203002E0081C06
:1003F00000F002F810BDC0461C2101231B049842E6
:1004000001D3000C10391B0A984201D3000A0839A5
:100410001B09984201D30009043902A2105C40185C
:100420007047C04604030202010101010000000000
:100430000000000010B50400094B1868FA2189007B
:10044000FFF762FE00F07AF8002801D0012010BD0D
:1004500000222100013800F035F80020F7E7C046FF
:100460000800002010B5084A136840210B431360B0
:100470000020FFF7DFFF041E02D00124200010BD82
:1004800002F0EAFCFAE7C04600200240024A136884
:10049000013313607047C0469C000020014B186870
:1004A0007047C0469C00002070B50400FFF7F6FFBF
:1004B0000500631C00D00134FFF7F0FF401B8442AD
:1004C000FAD870BD70B5002811DB8308144DC03315
:1004D0009B005C5903221040C000FC32160086408D
:1004E000B44389010A40824022435A5170BDC0B2D0
:1004F0000F230340083B9B0806339B00094A9446A0
:1005000063445D6803221040C000FF242200824043
:10051000954389010C4084402C435C60E6E7C0466B
:1005200000E100E000ED00E01F2318401E3B834087
:10053000014A13607047C04600E100E001380A4BF1
:1005400098420FD8094A50600948036A1B021B0AE7
:10055000C02109060B430362002393600733136035
:10056000002070470120FCE7FFFFFF0010E000E0E3
:1005700000ED00E070B5066C1C25446C254001249C
:10058000AC407460046863608368102B04D0036817
:1005900099600368DA6070BD03689A600368D96087
:1005A000F9E7000070B5041E3DD005681F4BE81840
:1005B0001421FFF7A9FD800060641D4B2364022213
:1005C0002523E2542B681B4A1A40A368E1680B43B9
:1005D00021690B4361690B43A1690B43E1690B433B
:1005E000216A0B4313432B608023DB01A2689A42EC
:1005F00010D0114B19681C22656C15400F20A840C3
:10060000814319601968606C024060689040020084
:100610000A431A600023E36301212522A154013A11
:10062000A354002070BD0120FCE7C046F8FFFDBFC9
:10063000000002400F80FFFFA800024070B50400D8
:100640002420205C012832D00125242025540130AB
:10065000205C012804D000222423E254022070BD33
:100660000135243025540020E063256828680126E0
:10067000B04328602000FFF77DFF236B002B0BD0D9
:10068000226813680E210B4313602268136801214E
:100690000B4313600020E2E72268136804218B43B8
:1006A00013602268136806310B431360EDE70220E4
:1006B000D5E710B52523C35C022B03D00423C36305
:1006C000012010BD026813680E218B43136001687E
:1006D0000A6801239A430A60016C1C22446C224080
:1006E0001C0094404C602522835400222333C254C2
:1006F000836B002B02D098470020E2E70020E0E760
:1007000070B5036C1968046825681C23426C13409B
:1007100004229A400A4214D06A0712D523689B0625
:1007200003D42368042293432360016C1C22436C8E
:100730001A40042393404B60036B002B00D0984772
:1007400070BD02229A400A421AD0AA0718D523681F
:100750009B0606D423680A2293432360093A252383
:10076000C254016C1C22436C1A40022393404B601C
:1007700000222423C254C36A002BE1D09847DFE74C
:1007800008229A400A42DBD02B07D9D523680E22D3
:1007900093432360016C0E32436C1A4001231C000A
:1007A00094404C60C3632522835400222333C254F7
:1007B000436B002BC4D09847C2E70000F0B5C64693
:1007C00000B5002391E0DF080837BF003E58072539
:1007D0001D40AD000F22AA4096430A69AA401500A9
:1007E00035433D5091E085685F000326BE40B54328
:1007F000CE68BE40354385604568A5432C004A68F5
:100800001609012535409D402C43446005685E0073
:1008100003242700B740FF433D404A681440B440DA
:100820002C430460C4683C408D68B5402C43C460D0
:100830004A68D20058D5424D6C6B012634436C6334
:100840009C08A51CAD003F4EAE5903271F40BD00BC
:100850000F27AF40BE43A027FF05B84263D03A4FF1
:10086000B84262D0394FB84261D0394FB84260D0F7
:10087000384FB8425FD0384FB84252D00627AF4009
:100880003D0035430234A4002E4EA551334C25685B
:100890004246D44326002E404A68D20302D542463F
:1008A00015432E002D4D2E606D682E0026404A689F
:1008B000920302D5424615432E00284D6E60AD6866
:1008C0002E0026404A68D20202D5424615432E0029
:1008D000224DAE60ED682C404A68920202D5424635
:1008E0002A4314001D4AD46001330A681400DC4016
:1008F00023D001249C4022409046F5D04D68022D23
:1009000000D160E7122D00D15DE74D686E1E012E0B
:1009100000D868E7112D00D165E7122D00D075E7EA
:1009200061E70527ABE70027A9E70127A7E702272B
:10093000A5E70327A3E70427A1E704BC9046F0BD81
:100940000010024000000140000400500008005068
:10095000000C005000100050001C0050000401402A
:10096000002A01D1816270478161FCE743695940E7
:10097000416170477047000010B5054B5B69184234
:1009800000D110BD024B5861FFF7F4FFF9E7C046F4
:100990000004014010B51F4BD9680C230B40082BF5
:1009A00033D00C2B11D0042B09D01A4B5A68520BA0
:1009B00007231340013380200002984010BD154BDF
:1009C0001B68DB0623D51448F8E78A0C0F23134075
:1009D000124AD05C890D0323194001310D4BDB68AD
:1009E000DB0308D40B4B1B68DB0609D50A4B5843C5
:1009F000FFF78AFBE2E70A4B5843FFF785FBDDE789
:100A0000084B5843FFF780FBD8E70548D6E7054871
:100A1000D4E7C0460010024000093D00D055000850
:100A200000127A000024F400F0B583B0041E00D157
:100A30009CE2B24BDA680C251540DE6880235B022D
:100A40001E400368DB0736D5082D2CD00C2D28D08E
:100A5000636880225202934255D0A022D202934270
:100A600058D0A64B1A68A6490A401A601A68802115
:100A700049020A400192019A1A68A2490A401A6082
:100A80006368002B52D0FFF709FD07009B4B1B68E2
:100A90009B0310D4FFF702FDC01B6428F6D9032086
:100AA00065E2002ED4D0954B1B689B0303D5636889
:100AB000002B00D15DE223689B076CD5E3689A06A2
:100AC00005D58E48026820210A4302608B43042D1D
:100AD0003CD00C2D38D0002B00D1B0E087490A68FB
:100AE0000920824313430B60FFF7D8FC0600834BB9
:100AF0001B685B0700D599E0FFF7D0FC801B02283C
:100B0000F5D9032033E27D4A116880235B020B4351
:100B10001360B5E7794B19688022D2020A431A6044
:100B20001968802252020A431A60A9E7FFF7B6FC4F
:100B30000700724B1B689B03BDD5FFF7AFFCC01BC2
:100B40006428F6D9032012E2002EC4D16B4A126841
:100B5000520702D5002B00D10DE2684E72686A4937
:100B60000A40216909020A437260326809218A43F6
:100B700013433360FFF70EFFF26812090F2313408F
:100B8000624AD35CD840624B18600020FFF752FCE9
:100B9000002800D0EBE12368DB062CD5002D61D1C5
:100BA000564B1B689B0503D5E369002B00D1E4E19C
:100BB000524A536857490B40616A0B43536053686C
:100BC0001B021B0A216A09060B435360636A590B17
:100BD000013180231B028B40D16809090F220A4092
:100BE0004A498A5CD3404A4A13600020FFF722FC3E
:100BF000002800D0BBE123681B0700D48EE06369A6
:100C0000002B68D03D4A136D01210B431365FFF79C
:100C100045FC0600394B1B6D9B0700D57EE0FFF7B6
:100C20003DFC801B0228F5D90320A0E133494B6825
:100C3000354A13402269120213434B60ABE72F4A37
:100C4000136801218B431360FFF728FC06002B4B30
:100C50001B685B079FD5FFF721FC801B0228F6D994
:100C6000032084E1E369002B22D0244A1168802309
:100C70005B000B431360FFF711FC06001F4B1B6862
:100C80009B0506D4FFF70AFC801B0228F6D9032037
:100C90006DE11A4A53681F490B40616A0B43536068
:100CA00053681B021B0A216A09060B435360A2E723
:100CB000124A136818490B401360FFF7EFFB060058
:100CC0000E4B1B689B0596D5FFF7E8FB801B02289F
:100CD000F6D903204BE1094A136D01218B431365BB
:100CE000FFF7DCFB0600054B1B6D9B0716D5FFF7D6
:100CF000D5FB801B0228F6D9032038E10010024002
:100D0000FFFFFEFFFFFFFBFFFFE0FFFFB8550008FE
:100D100008000020FF1FFFFFFFFEFFFF23685B07A7
:100D200078D59A4B9B6BDB002CD4984A916B80232F
:100D30005B050B4393630126954B1B68DB0523D5AD
:100D4000A36880225200934232D0002B37D18F4BC0
:100D50001A6D90490A401A651A6D8F490A401A6542
:100D6000A368002B45D0FFF799FB0700874B1B6D4D
:100D70009B054DD4FFF792FBC01B884B9842F5D9D9
:100D80000320F4E00026D7E7814A116880235B0046
:100D90000B431360FFF782FB07007D4B1B68DB05ED
:100DA000CED4FFF77BFBC01B6428F6D90320DEE01E
:100DB000764A116D80235B000B431365D0E7A022B8
:100DC000D200934209D0714B1A6D72490A401A65DC
:100DD0001A6D71490A401A65C2E76C4B196D013AE8
:100DE000FF3A0A431A65196D802252000A431A65B8
:100DF000B6E7FFF753FB0700644B1B6D9B0507D558
:100E0000FFF74CFBC01B654B9842F5D90320AEE0C1
:100E1000012E21D023689B063CD5A369002B21D04D
:100E20005A4B99680120014399605A6B02435A63F7
:100E30005B4A116A80239B010B431362FFF72EFB71
:100E40000600524B9B689B0724D4FFF727FB801BAF
:100E50000228F6D903208AE04C4A936B51490B4093
:100E60009363D7E7494A936801218B4393604C4AC7
:100E7000136A4D490B401362FFF710FB0600434B0A
:100E80009B689B0706D5FFF709FB801B0228F6D954
:100E900003206CE0A36A002B00D170E00C2D49D038
:100EA000022B12D0394A136840490B401360FFF7F8
:100EB000F5FA0400354B1B689B0139D5FFF7EEFAB4
:100EC000001B0228F6D9032051E0304A1368374945
:100ED0000B401360FFF7E2FA05002C4B1B689B01E7
:100EE00006D5FFF7DBFA401B0228F6D903203EE0C7
:100EF0002649CB682E4A1340E26A206B0243606B9E
:100F000002431343CB600A6880235B0413430B60E6
:100F1000FFF7C4FA04001D4B1B689B0106D4FFF7C2
:100F2000BDFA001B0228F6D9032020E000201EE0B5
:100F300000201CE0012B24D0144BDA6880235B02D4
:100F40001340E16A8B4201D0012010E0F0239B03A3
:100F50001340216B8B4201D0012008E0C0231B0409
:100F60001A40636B9A420ED0012000E0012003B0CA
:100F7000F0BD0120FBE70120F9E70120F7E70020A1
:100F8000F5E70120F3E70020F1E7C046001002403A
:100F900000700040FFFEFFFFFFFBFFFF8813000013
:100FA00000000140FFFFFFEFFFDFFFFFFFFFFFFE3D
:100FB000FFFF02FF70B504000D00002800D1BAE069
:100FC0005F4B1A68012313408B420BD25C490B68BC
:100FD000012293432B430B600B681A40954201D0CA
:100FE0000120A7E023689B0706D5564AD368F02165
:100FF0008B43A1680B43D3602368DB0764D5636828
:10100000022B25D0032B29D0012B2DD04D4A12685D
:10101000920500D491E04B49CA68032082431343F0
:10102000CB60FFF73BFA06006368022B22D0032B4C
:101030002ED0012B3AD0434BDB680C221A4243D00E
:10104000FFF72CFA801B404B9842F4D9032071E043
:101050003C4A12689203DED401206BE0394A1268E0
:101060009201D8D4012065E0364A12685207D2D4E2
:1010700001205FE0334BDA680C231340082B23D0A8
:10108000FFF70CFA801B304B9842F3D9032051E054
:101090002C4BDA680C2313400C2B15D0FFF7FEF90C
:1010A000801B294B9842F3D9032043E0254BDA6893
:1010B0000C231340042B07D0FFF7F0F9801B224BC1
:1010C0009842F3D9032035E01D4B1A6801231340E1
:1010D0009D420BD21A490B68012293432B430B60AC
:1010E0000B681A40954201D0012023E023685B077A
:1010F00006D5144AD36815490B40E1680B43D36009
:1011000023681B0707D50F49CB68114A1340226992
:10111000D2001343CB60FFF73DFC0A4BDA6812099B
:101120000F2313400B4AD35CD8400B4B18600020B0
:10113000FFF780F970BD0120FCE70120FAE7C04607
:10114000002002400010024088130000FFF8FFFF5B
:10115000FFC7FFFFB855000808000020014B1868C2
:101160007047C0460800002010B5FFF7F7FF044B9A
:10117000DA68120A07231340024AD35CD84010BD34
:1011800000100240C855000810B5FFF7E7FF044BF8
:10119000DA68D20A07231340024AD35CD84010BD54
:1011A00000100240C855000870B5040003689B0693
:1011B00050D56C4B9B6BDB0000D593E0694A916B7B
:1011C00080235B050B4393630125674B1B68DB059D
:1011D00000D489E0634B1968C0239B0319406268FF
:1011E0001340994206D0C0239B0211001940994236
:1011F00000D18EE05B4B1B6DC02189020B4016D0E5
:101200000A40934213D023689B0610D5554B186DA6
:10121000564A02401E6D8021090331431965196D3C
:10122000534E314019651A65C30500D578E06268F0
:10123000C0239B0211001940994200D180E0494926
:101240000B6DC02292026068024013430B65012DB2
:1012500000D17FE02368DB0706D5424AD36C032127
:101260008B43A1680B43D36423689B0706D53D4A93
:10127000D36C0C218B43E1680B43D36423685B0779
:1012800006D5384AD36C3B490B4021690B43D364E4
:1012900023681B0706D5334AD36C37490B40616975
:1012A0000B43D3642368DB0506D52E4AD36C2F4944
:1012B0000B40A1690B43D36423685B0606D5294A1A
:1012C000D36C2E490B40216A0B43D36423681B0661
:1012D00046D5244AD36C2A490B40E1690B43D364B9
:1012E000002070BD002570E71F4A116880235B0055
:1012F0000B431360FFF7D2F806001B4B1B68DB059E
:1013000000D567E7FFF7CAF8801B6428F5D90320EA
:10131000E7E7144B1B689B0300D46BE70120E0E771
:10132000FFF7BCF806000F4B1B6D9B0500D57EE751
:10133000FFF7B4F8801B134B9842F4D90320D0E791
:1013400008490B6810480340C020800302401A433C
:101350000A6074E70A008B6B0C490B40936379E7D2
:101360000020BEE70010024000700040FFFFFCFFBD
:10137000FFFFF7FFFFF3FFFFFFCFFFFFFFFFFFFBC5
:10138000FFFFF3FF88130000FFFFCFFFFFFFFFEF1A
:101390007047000010B5040003689A68D20402D5B3
:1013A000DB68DB050ED423689A68920402D5DB68FB
:1013B0009B0511D4802292020D4B5A6101222123F8
:1013C000E25410BDFFF7E4FF2168CA68FF231A400A
:1013D000084B1343CB60E6E7200000F099FA216840
:1013E000CA68FF231A40044B1343CB60E2E7C046B0
:1013F000000401407FFEFFFF7FFDFFFF70B504008A
:101400000268D368A0218B43D360FFF747F805003B
:101410002368DB689B0608D4FFF740F8401BFA23DB
:101420009B009842F4D9032000E0002070BD70B505
:1014300004000368DA68520601D5002070BD01225D
:101440005242DA60FFF72AF805002368DB685B0682
:1014500008D4FFF723F8401BFA239B009842F4D9E5
:101460000320EBE70020E9E770B5041E63D02123D9
:10147000C35C002B41D002222123E2542368C832EE
:101480005A622368773A5A622000FFF7D0FF051EA0
:1014900039D12268936829490B40936021688A6892
:1014A000636820690343A069034313438B60236887
:1014B000E2681A6121680B69A268120413430B6188
:1014C0002268D36880218B43D3602268D36C7D3936
:1014D0008B43D3642168CB6CE26960690243134398
:1014E000CB6423689B689B0615D52368FF225A624C
:1014F000FE3A2123E254280070BD00222033C2545A
:1015000001F0BEFBB7E72368FF225A62FB3A2123B2
:10151000E2540125EFE72000FFF770FF0028E4D038
:101520002368FF225A62FB3A2123E2540022013B46
:10153000E2540125DFE70125DDE7C046BFFF8FFF4D
:10154000002302E001330A38C0B20928FAD81B018F
:10155000DBB2184370470000F8B504000E002023EA
:10156000C35C012B77D001212023C1540131013309
:10157000C154002A43D103689B685B0601D4002351
:10158000F3703078FFF7DCFF05047078FFF7D8FFC1
:1015900000020543B078FFF7D3FF0543F07800045D
:1015A00005432368CA225A622368773A5A622000A8
:1015B000FFF73DFF071E33D12368284805401D6013
:1015C0002268936826490B40936021688B68F26813
:1015D0003069024313438B602268D36880218B43B8
:1015E000D36023689B689B0625D52368FF225A6237
:1015F000FE3A2123E2540022013BE2542CE003682E
:101600009B685B0601D40023F37035782D04707855
:1016100000020543B0780543F07800040543C0E7B5
:101620002368FF225A62FB3A2123E2540022013B45
:10163000E254012710E02000FFF7E0FE0028D4D09C
:101640002368FF225A62FB3A2123E2540022013B25
:10165000E254012700E002273800F8BD7F7F7F00B9
:10166000FFFFFBFF70B504000E002023C35C012BBD
:1016700068D001212023C15401310133C154002A13
:1016800006D17378D90603D510218B430A337370C2
:10169000002A31D1F078FFF753FF05047078FFF787
:1016A0004FFF00020543B078FFF74AFF054330784B
:1016B000400305432368CA225A622368773A5A6274
:1016C0002000FFF7B4FE061E21D123681F48054005
:1016D0005D602268D36880218B43D36023689B6858
:1016E0009B061FD52368FF225A62FE3A2123E2544B
:1016F0000022013BE25426E0F5782D0470780002C8
:101700000543B0780543307840030543D2E72368AA
:10171000FF225A62FB3A2123E2540022013BE254A9
:10172000012610E02000FFF769FE0028DAD02368C8
:10173000FF225A62FB3A2123E2540022013BE25489
:10174000012600E00226300070BDC0463FFFFF00CA
:10175000F8B504000D002023C35C012B00D1CBE0C1
:1017600001212023C15401310133C154002A52D137
:1017700003689B685B0601D40023EB70EE69287850
:10178000FFF7DEFE07046878FFF7DAFE0002074382
:10179000A878FFF7D5FE0743E87800040743202325
:1017A000E85CFFF7CDFE000607433E436B691E432E
:1017B0006F68AB691F432368CA225A622368773A6D
:1017C0005A626A6A80235B009A423DD0226893681D
:1017D0004A490B4093602168CA68FF231A40484B6E
:1017E0001343CB60FEF75AFE05002368DA689207C0
:1017F0005FD4FEF753FE401BFA239B009842F4D9B6
:101800002368FF225A62FC3A2123E2540022013B62
:10181000E254032071E003689B685B0601D4002357
:10182000EB702E7836046B781B021E43AB781E4398
:10183000EB781B041E432023EB5C1B061E43EB6965
:101840001E436B691E43B3E7226893682D490B4022
:1018500093602168CA68FF231A402B4B1343CB6067
:10186000FEF71CFE05002368DA68D20711D4FEF7E4
:1018700015FE401BFA239B009842F4D92368FF22EF
:101880005A62FC3A2123E2540022013BE254032035
:1018900033E0DE6123685F642268916880235B0027
:1018A0000B4393602268916880235B010B43936034
:1018B0000EE01E6223689F642268916880239B006B
:1018C0000B4393602268916880239B010B439360D4
:1018D0000E4B1968802292021143196099680A43DD
:1018E0009A602368FF225A62FE3A2123E2540022C2
:1018F000013BE254002000E00220F8BDFFFDFFFFA5
:101900007FFDFFFFFFFEFFFF7FFEFFFF00040140A2
:1019100070470000F8B505000F0016001C002B688A
:101920009B683A009A43130059425941B1423BD057
:10193000631CF4D0FEF7B2FD069BC01A844201D9A5
:10194000002CECD12A685368E0218B43536082233A
:101950005B006A689A420CD080239B01AA6A9A4273
:1019600016D001225123EA540022013BEA540320FD
:101970001BE0AB6880221202934203D08022D20087
:101980009342E9D12A68136840218B431360E3E74F
:101990002A68136805490B4013602A681168802380
:1019A0009B010B431360DCE70020F8BDFFDFFFFF66
:1019B00010B582B00400822040006368834206D0E4
:1019C0005120205C052811D0002002B010BD0092EB
:1019D0000B00002280212000FFF79CFF0028F4D09C
:1019E000636D2022134363650320EEE700920B0032
:1019F000002201212000FFF78DFF0028E5D0636D54
:101A00002022134363650320DFE7000070B5041E46
:101A10003BD0002383625133C35C002B2FD0512174
:101A200002236354226813684020834313602268B2
:101A30006368A0680343E068034320690343606967
:101A4000034380208000A56928400343E0690343E5
:101A5000206A0343A06A034313602268608B042357
:101A60000340606A034353602268D3690848034017
:101A7000D3610023636501336354002070BD0022ED
:101A80005033C25401F05CF9C9E70120F6E7C046C3
:101A9000FFF7FFFFF0B585B00600019115001C00AF
:101AA0005023C35C012B02D1022005B0F0BD0122FE
:101AB0005023C254FEF7F2FC07005123F35C012BC4
:101AC00007D0022001225123F2540022013BF2549C
:101AD000EBE70199002900D19AE0002D00D199E0AF
:101AE00003225123F254002373653163B586F586D2
:101AF000B363B387F3877364336480231B02B268D4
:101B00009A421DD033681A68520603D41A684021DD
:101B10000A431A6080231B01F2689A4217D0736847
:101B2000002B01D0012D48D1336B1B783268137321
:101B3000336B01333363F38E013B9BB2F3863CE09E
:101B4000326811688023DB010B431360DAE77368A6
:101B5000002B01D0012D14D13368326B1288DA606A
:101B6000336B02333363F38E013B9BB2F38608E0A1
:101B7000FEF794FCC01BA04201D3631C4CD1002C87
:101B80004CD0F38E9BB2002B2AD033689A68920710
:101B9000EED5326B1288DA60336B02333363F38E27
:101BA000013B9BB2F386ECE7FEF778FCC01B844256
:101BB00001D8631C34D1002C34D0F38E9BB2002B9F
:101BC0000ED033689A689207EED5326B12781A738A
:101BD000336B01333363F38E013B9BB2F386ECE747
:101BE0003A0021003000FFF7E3FE002801D0202357
:101BF0007365B368002B06D103933368DA680392E8
:101C00009B680393039B736D002B0DD1002059E754
:101C1000012057E7012055E7032053E7032051E750
:101C200003204FE703204DE701204BE710B50400E8
:101C30005023C35C012B5ED001205023E0540133BC
:101C4000E35C012B04D0022000225023E25410BD9B
:101C500000294CD0002A4CD002305033E0540023ED
:101C600063652163A286E286A36363642364A3871A
:101C7000E38780231B02A2689A421ED0A36C1F4AEE
:101C80001A63A36C1E4ADA62A36C1E4A5A63A36CE1
:101C900000229A6322680C32E38E9BB2216BA06C07
:101CA000FEF7CCFC00280FD0636D10221343636550
:101CB0000F3A5123E2540120C6E7226811688023BD
:101CC000DB010B431360D9E723681A68520603D47B
:101CD0001A6840210A431A602268536820210B4386
:101CE0005360226853681E390B435360ACE70120F0
:101CF000AAE70120A8E70220A9E7C0460D1D0008B9
:101D00003B1D0008191D00087047704710B5806A18
:101D1000FFF7FBFF10BD704710B5806A026853687B
:101D200003218B435360436D1022134343650F3AE5
:101D30005123C254FFF7EFFF10BD30B583B005004B
:101D4000846AFEF7ABFB2B681B689B0626D42268CF
:101D5000536820218B435360226853681E398B439C
:101D60005360020062312000FFF722FE002803D0FA
:101D7000636D202213436365A368002B06D1019392
:101D80002368DA6801929B680193019B0023E38634
:101D900001225133E254636D002B04D12000FFF780
:101DA000B3FF03B030BD2000FFF7B5FFF9E7000037
:101DB00030B585B00400016848688B6841221A403C
:101DC000012A64D09A0701D5020666D4B0225200D7
:101DD000134265D0820663D55A060ED55122A25C05
:101DE000032A5FD0626D04252A43626500220092B7
:101DF000CA6800928A680092009A9A060CD5626DB1
:101E000001252A436265002202928A6802920A68CA
:101E10003F35AA430A60029ADB0509D5636D0822A3
:101E2000134363650023039323689B680393039B19
:101E3000636D002B34D022685368E0218B435360DC
:101E400001225123E254830734D022685368DD39DC
:101E50008B435360E36C002B0AD0184A9A63E06C02
:101E6000FEF727FC002803D0636D4022134363650F
:101E7000A36C002B14D0114A9A63A06CFEF719FCD6
:101E800000280DD0636D40221343636508E04206CD
:101E900098D5236C2000984702E0636C2000984797
:101EA00005B030BD00230193CB6801938B6801938B
:101EB000019BF5E72000FFF72EFFF1E7C11E0008A8
:101EC00010B5806A0023C387C386FFF724FF10BDC7
:101ED0000268136806490B40136002689368233157
:101EE000FF318B4393602023836700230366704791
:101EF000DFFEFFFF704710B50268136840218B4377
:101F000013602023436700234366FFF7F3FF10BDF0
:101F10007047000070B504000168CB6908688D68DF
:101F20000F221A400AD19E0608D5860606D5236ED2
:101F3000002B00D189E02000984786E0002A6BD072
:101F400001222A4003D190267600304264D0DD077A
:101F500006D5C50504D501250D62E16F2943E1676A
:101F6000990708D5002A06D0216802250D62E16F85
:101F700002352943E167590708D5002A06D02168B0
:101F800004250D62E16F023D2943E167190709D578
:101F9000810601D4002A05D0226808211162E26F6F
:101FA0000A43E267E26F002A4FD09B0606D58306FC
:101FB00004D5236E002B01D020009847E26F2368E0
:101FC0009B685B0601D4130720D52000FFF780FF34
:101FD00023689A68520615D59A6840218A439A6008
:101FE000E36E002B0AD01B4A9A63E06EFEF761FB9A
:101FF00000282AD0E06E836B984726E02000FFF788
:1020000087FF22E02000FFF783FF1EE02000FFF79C
:102010007FFF0023E36718E0DA0201D56A0209D4E2
:102020001A060ED502060CD5636E002B0DD02000CB
:1020300098470AE080235B030B62200000F0ECFA73
:1020400003E05B0601D5430600D470BD2000FFF716
:1020500052FFFAE75920000810B5806A00235A227F
:102060008352083A8352FFF753FF10BDF8B50500BD
:10207000016883680269134342691343C2691343C9
:102080000A68BE48024013430B602A685368BC4983
:102090000B40E9680B435360AB692A68B9498A422F
:1020A00001D0296A0B439168B74801400B43936004
:1020B0002B68B64A93421CD0B54A93422DD0B54AFC
:1020C00093425FD0B44A93425ED0AE4A934239D035
:1020D0001022AC498B425BD080231B02E9699942F4
:1020E00000D195E0082A00D979E19200AB4B9B58CA
:1020F0009F46AB4AD16C03220A40012A09D0002A2C
:1021000005D0022A3AD0032A05D01022E1E70122A5
:10211000DFE70422DDE70822DBE7A14AD16C0C22CD
:102120000A40042A0AD005D9082A29D00C2A07D146
:102130000822CEE7002A03D10022CAE70422C8E71A
:102140001022C6E7964AD26CC02109010A408021BC
:10215000C9008A420ED009D9802109018A4215D0CE
:10216000C02109018A4207D10822B2E7002A03D11F
:102170000022AEE70422ACE71022AAE70222A8E779
:102180000222A6E70022A4E70022A2E70222A0E79B
:10219000022A2CD025D9042A30D0082A32D1802016
:1021A00000020024002800D1AEE06A6853009B18AA
:1021B000984200D216E11303984200D914E1070EA9
:1021C000060250080021801979410023FEF728F803
:1021D000744BC218744B9A4200D907E12B68D8603F
:1021E00092E0002A0ED1FEF7BFFF0024DAE76C4B25
:1021F0001B68DB0609D56D480024D3E7FEF7CAFB50
:102200000024CFE700200124CCE769480024C9E777
:10221000082A63D89200674B9B589F46FEF7A4FF9D
:1022200040006B685B08C0186968FDF76DFF00042B
:10223000000C0024604A0300103B934200D9D7E011
:102240000F2302009A43130040080722104018434E
:102250002B68D86058E0FEF797FF40006B685B087A
:10226000C0186968FDF750FF0004000C0024E1E786
:102270004B4B1B68DB060BD56B6858084F4B9C46D5
:1022800060446968FDF740FF0004000C0024D1E7BA
:102290006B6858084A4B9C4660446968FDF734FFF8
:1022A0000004000C0024C5E7FEF774FB40006B68D7
:1022B0005B08C0186968FDF727FF0004000C0024C4
:1022C000B8E76B68580880235B029C4660446968E5
:1022D000FDF71AFF0004000C0024ABE701240020E6
:1022E000A8E7FEF741FF6B685B08C0186968FDF757
:1022F0000BFF0004000C00242F4A0300103B934204
:1023000000D977E02B68D86000232B666B6620002D
:10231000F8BDFEF739FF6B685B08C0186968FDF708
:10232000F3FE0004000C0024E6E71D4B1B68DB06EF
:102330000BD56B6858081D4B9C4660446968FDF7D7
:10234000E3FE0004000C0024D6E76B685808184B25
:102350009C4660446968FDF7D7FE0004000C002429
:10236000CAE7FEF717FB6B685B08C0186968FDF7E2
:10237000CBFE0004000C0024BEE7C046F369FFEF6B
:10238000FFCFFFFF00480040FFF4FFFF003801408F
:1023900000440040004C004000500040C83100089C
:1023A0000010024000FDFFFFFFFC0F0000093D0090
:1023B0000024F400EC310008EFFF000000127A0066
:1023C0000048E8016B68580880231B029C46604463
:1023D0006968FDF799FE0004000C00248CE70124D5
:1023E000002089E701248FE701248DE701248BE792
:1023F000012489E7012487E7436ADB0706D50268E1
:1024000053682C490B40816A0B435360436A9B0716
:1024100006D50268536828490B40C16A0B435360D4
:10242000436A5B0706D50268536824490B40016B79
:102430000B435360436A1B0706D502685368204963
:102440000B40416B0B435360436ADB0606D50268C1
:1024500093681C490B40816B0B439360436A9B0656
:1024600006D50268936818490B40C16B0B43936013
:10247000436A5B060BD50268536814490B40016C34
:102480000B43536080235B03026C9A420AD0436A79
:102490001B0606D5026853680D490B40816C0B433F
:1024A00053607047026853680A490B40416C0B4304
:1024B0005360ECE7FFFFFDFFFFFFFEFFFFFFFBFFA9
:1024C000FF7FFFFFFFEFFFFFFFDFFFFFFFFFEFFFDC
:1024D000FFFFF7FFFFFF9FFFF0B5C64600B5050001
:1024E0000F0016009846069C2B68DB693A009A4359
:1024F00013005A425341B3421CD1631CF4D0FDF780
:10250000CDFF4346C01A844201D3002CECD12A6887
:1025100013680A490B4013602A689368A331FF319E
:102520008B43936020236B67AB6700225033EA54E0
:10253000032000E0002004BC9046F0BD5FFEFFFFDA
:1025400030B583B004000023C367FDF7A7FF050083
:1025500023681B681B070CD423681B685B0715D412
:1025600020236367A36700225033E254002003B0A6
:1025700030BD0D4B00930300002280218903200011
:10258000FFF7AAFF0028E7D00320F0E7064B0093EF
:102590002B0000228021C9032000FFF79DFF0028A7
:1025A000DED00320E3E7C046FFFFFF0110B5041EA5
:1025B0002ED0436F002B21D0242363672268136839
:1025C00001218B4313602000FFF750FD012814D038
:1025D000636A002B18D1226853680E490B40536080
:1025E000226893682A218B439360226813682939F3
:1025F0000B4313602000FFF7A3FF10BD00227033D0
:10260000C25400F0BDFCD7E72000FFF7F5FEE2E77B
:102610000120F2E7FFB7FFFF704770B504000D001F
:10262000160081684068A36A984731002800E36A71
:102630009847636AA1686068984770BD10B5836A5F
:1026400081694069984710BD10B5436A8169406946
:10265000984710BD70B504000D00036A9847084BF9
:1026600018602000FFF7EAFF236A9847044B1B68B5
:10267000C01AA842F8D32000FFF7E6FF70BDC0469D
:102680008C00002030B583B004006B46DD1DD9718D
:102690000169C068636A9847012229002000FFF79A
:1026A000BCFF03B030BD30B583B004006B46DD1D08
:1026B000D9710169C068A36A9847012229002000E6
:1026C000FFF7ABFF03B030BD70B50500002404E098
:1026D00000212800FFF7D6FF0134F823FF339C4286
:1026E000F6DD70BD10B50400FA214900FFF7B2FF16
:1026F00021212000FFF7D7FF13212000FFF7D3FF90
:10270000BF212000FFF7CFFF20212000FFF7CBFFE4
:102710000C212000FFF7C7FF2000FFF7D5FF10BDF9
:1027200010B5342000F0B0FC10BD000010B5041E40
:102730000BD0064800F0A8FC2060FC2252000021CB
:1027400000F0ACFC2000FFF7CDFF10BD901B000097
:1027500010B5542911D8302A12D80068D40854234F
:1027600063435918411807231A40063B93401A0047
:102770000B7813430B70012010BD02204042FBE791
:1027800001204042F8E710B5542910D8302A11D85A
:102790000068D40854236343591841180723134091
:1027A00001229A400B7893430B70012010BD022048
:1027B0004042FBE701204042F8E710B5002B02D170
:1027C000FFF7E1FF10BDFFF7C3FFFBE7F0B5DE4603
:1027D00057464E464546E0B583B001908A4693463B
:1027E00098460C9B99464346542B39DC4B46302B7C
:1027F00039DC00265346DB889E422FDA002500E0B4
:10280000013553469988CB0807220A40511E8A4158
:102810009B189D4220DA5246D18859435A46203AA5
:102820004A437343D318EB1852461268D75C00240E
:10283000072CE5DCE9004144C9B2802323413B4039
:102840004A469219D2B20919C9B20198FFF7B5FFE9
:10285000431C0BD00134EBE70136CBE7012006E047
:102860000220404203E00120404200E0012003B08A
:102870003CBC90469946A246AB46F0BDF0B5CE466C
:10288000474680B585B003900D00160099460C9F11
:102890000D9B9846542F18DC302B19DC00244C4536
:1028A0000DD2325DAB886343FB184146009129008D
:1028B0000398FFF78BFF012802D10134EFE70120D5
:1028C00005B00CBC90469946F0BD02204042F7E7A7
:1028D00001204042F4E7000000B583B0094A116BC3
:1028E000012319431163126B13400193019B0022D2
:1028F00000210B20FDF7E6FD0B20FDF715FE03B0D0
:1029000000BDC04600100240F0B58BB0142200217B
:1029100005A800F0C3FB3E4BDA6A01252A43DA62C0
:10292000DA6A2A400192019ADA6A02263243DA62AE
:10293000DA6A32400292029AD96A04221143D962B9
:10294000D96A0A400392039AD96A80221143D96254
:10295000DB6A1A400492049B00222E49A020C00585
:10296000FDF7FEFF90277F00002239002A48FDF77F
:10297000F7FF002207212948FDF7F2FF284B0593B6
:10298000069500240794089605A9A020C005FDF728
:1029900015FF059706950794089405A91E48FDF7AD
:1029A0000DFF132305931F4F0697079405A91A4897
:1029B000FDF704FF80239B0105930697079405A963
:1029C0001648FDF7FBFE0723059306950794089626
:1029D00005A91248FDF7F2FE112305930695079409
:1029E000089405A9A020C005FDF7E8FE00220021FB
:1029F0000520FDF767FD0520FDF796FD002200216B
:102A00000720FDF75FFD0720FDF78EFD0BB0F0BD41
:102A10000010024013900000000400500008005015
:102A2000029000000000111010B589B20022FDF7DD
:102A300097FF10BD10B589B20122FDF791FF10BDBF
:102A400010B58AB20A2301000148FFF723F810BD30
:102A50001C01002010B58AB201000248FFF7E6F819
:102A600010BDC0461C01002010B59CB038220021CA
:102A70000EA800F013FB1422002109A800F00EFBA1
:102A800024220021684600F009FB19490B68194A05
:102A90001A4080231B0113430B600A230E93093B4A
:102AA0001193102212921393013318930024199456
:102AB00080231B031A9380231B041B930EA8FDF78E
:102AC000B3FF0F2309930C3B0A930B940C940D94C2
:102AD000012109A8FEF76EFA2223009303948023B4
:102AE0009B0201936846FEF75FFB1CB010BDC04619
:102AF00000700040FFE7FFFF10B584B0FDF7B2FCA7
:102B0000FFF7B2FFFFF700FFFFF7E6FE00F052F815
:102B100000F0D0F800F0F2F800F014FAFFF700FE31
:102B200004001A4BC3611A4B03621A4B83621A4B9F
:102B300043621A4BC3621A4B0363A023DB05C360D5
:102B400010220261436101238361164B436080239D
:102B50005B008360FFF7EAFD02AA134B196802913C
:102B6000998891809B79937105230193043B00938D
:102B700005330E492000FFF781FE20210948FDF7AB
:102B8000F5FE96204000FDF78FFCE5E7A90400085C
:102B90009D040008292A0008352A0008412A000857
:102BA000552A000800040050B0550008000000201D
:102BB0007047000010B590B0142200210BA800F05F
:102BC0006DFA00240A9428220021684600F066FA73
:102BD0002848294B036044601F238360274BC36050
:102BE000046144618461C461FEF73EFC002834D175
:102BF0000BA900230B704B708B70CB600B61002214
:102C00001C48FEF7A9FC00282AD10AA901230B7051
:102C10004B708B700023CB7000221648FEF722FD0C
:102C2000002820D100236A461370537093700193DB
:102C3000039304930593F022120506920793012251
:102C400020336946CA54E033099300220948FEF74D
:102C50007FFD00280AD110B010BDFFF7A9FFC7E71C
:102C6000FFF7A6FFD1E7FFF7A3FFDBE7FFF7A0FF22
:102C7000F1E7C046A000002000280040FF0300004C
:102C800010B50268094B9A4200D010BD084A116D78
:102C90008023DB020B431365002200210220FDF795
:102CA00011FC0220FDF740FCEFE7C0460028004081
:102CB0000010024010B50F480F4B036082235B00E9
:102CC000436000238360C3600361436180229200FC
:102CD0008261E13AFF3AC261036243628362073371
:102CE000C362FEF793FE002800D110BDFFF760FF1E
:102CF000FBE7C0461C0100200030014010B50E4823
:102D00000E4B036082235B00436000238360C3603B
:102D1000036143618022D20282612822C261036280
:102D2000436283620733C362FEF770FE002800D15E
:102D300010BDFFF73DFFFBE7C40000200038004056
:102D4000F0B589B004001422002103A800F0A6F910
:102D500023683B4A934204D03A4A93422DD009B0AB
:102D6000F0BD394B596B802252010A435A63DA6A2B
:102D700002242243DA62DA6A22400092009AD96A77
:102D800001221143D962DB6A1A400192019B082398
:102D9000039304940325069503A92C48FDF70EFD23
:102DA000C02303930494002305930695079303A976
:102DB000A020C005FDF702FDD1E7234B9A6B8025CB
:102DC000ED012A439A63DA6A02263243DA62DB6A49
:102DD00033400293029BB0231B02039304961B4FC4
:102DE00003A93800FDF7EAFC039504960025059534
:102DF00003230693079503A93800FDF7DFFC144869
:102E0000144B0360466010238360C5607033036118
:102E100045618561C5610562FDF7C4FB00280BD1E2
:102E20000B4BA3649C62002200211A20FDF74AFB91
:102E30001A20FDF779FB92E7FFF7BAFEF0E7C046EC
:102E400000300140003800400010024000040050F3
:102E50007401002058000240054B5A6B01210A43BF
:102E60005A63996B802252050A439A637047C046A1
:102E7000001002407047FEE77047704710B5FDF73D
:102E800005FB10BD10B50248FEF784FA10BDC04620
:102E9000A000002010B50120FDF76EFD0220FDF717
:102EA0006BFD10BD10B51020FDF766FD8020800180
:102EB000FDF762FD10BD000010B50248FDF720FCD3
:102EC00010BDC0467401002010B50248FEF770FF27
:102ED00010BDC046C400002010B50248FFF71AF824
:102EE00010BDC046BC010020104B19688022520062
:102EF0000A431A60DA680E490A40DA601A680D4916
:102F00000A401A609A6801218A439A601A680A493D
:102F10000A401A60DA6809490A40DA6000221A6138
:102F200080221205064B9A607047C046001002408E
:102F30000C40FF88F6FFF6FEFFFFFBFFFFFF02FFDE
:102F400000ED00E010B50C480C4B0360E1235B0280
:102F5000436000238360C36003610C22426183618C
:102F6000C36103624362FFF721FB002800D110BD5B
:102F7000FFF71EFEFBE7C046BC01002000440040F6
:102F800010B586B004001422002101A800F086F8D4
:102F90002268144B9A4201D006B010BD124B996BB7
:102FA000802292020A439A63D96A01221143D962AC
:102FB000DB6A1A400092009B0C2301930A3B0293A8
:102FC000013304930133059301A9A020C005FDF747
:102FD000F5FB002200211C20FDF774FA1C20FDF7F0
:102FE000A3FAD9E700440040001002400D4885468E
:102FF000002103E00C4B5B58435004310B480C4B51
:1030000042189A42F6D30B4A02E0002313600432BE
:10301000094B9A42F9D3FFF767FF00F011F8FFF769
:103020006BFDFEE700500020EC550008000000207A
:10303000700000207000002040020020FEE7000029
:1030400070B500260C4D0D4C641BA410A64209D18E
:10305000002600F0ADF80A4D0A4C641BA410A642ED
:1030600005D170BDB300EB5898470136EEE7B300C9
:10307000EB5898470136F2E7E4550008E45500089C
:10308000E4550008E855000810B5034B0100186826
:1030900000F00CF810BDC0460C00002003008218A0
:1030A000934200D1704719700133F9E7032370B5DB
:1030B000CD1C9D43083506000C2D1ED20C25A942BF
:1030C0001DD8300000F062F8254A1468210000295C
:1030D00019D1244C2368002B03D1300000F044F8B0
:1030E00020602900300000F03FF8431C2CD10C2355
:1030F0003000336000F04BF803E0002DDFDA0C23E2
:103100003360002070BD0B685B1B1AD40B2B03D9F6
:103110000B60CC18256003E08C420ED1636813600D
:10312000300000F034F8200007220B30231D9043BC
:10313000C31AE7D05A42E250E4E74B6863600C00E0
:10314000EEE70C004968C2E70323C41C9C43A0427D
:10315000E0D0211A300000F007F8431CDAD1C6E7AE
:103160009000002094000020002370B5064C05005C
:103170000800236000F00CF8431C03D12368002BE7
:1031800000D02B6070BDC0463C02002070477047E5
:10319000054B02001968002901D10449196018681B
:1031A00082181A607047C046980000204002002034
:1031B000F8B5C046F8BC08BC9E467047F8B5C04696
:0831C000F8BC08BC9E467047F4
:1031C800E2220008122300082A230008DE23000850
:1031D80062230008DE230008DE230008DE2300083F
:1031E800C42300081C220008562200087022000888
:1031F800DC220008A8220008DC220008DC220008E3
:10320800DC220008C22200080000000000000000C4
:1032180000000000000000000000000000000000A6
:103228000000000000000000000000000000000096
:103238000000000000000000000000000000000086
:103248000000000000000000000000000000000076
:103258000000000000000000000000000000000066
:103268000000000000000000000000000000000056
:103278000000000000000000000000000000000046
:103288000070000070000070000070000070000006
:103298007000007000007000007000007000007086
:1032A8000000700000700000600000600000000076
:1032B80000000000000000000000F00000F0000026
:1032C800F00000F000000000000000000000000016
:1032D800000000000000000000000000001C1E00AC
:1032E8001C1E001C1E001C1E001C1E001C1E001C98
:1032F8001E001C1E001C1E00000000000000000034
:1033080000000000000000000000000000000000B5
:1033180000000000000000000000000000000000A5
:103328000000000000000000000000000000000095
:103338000000000000000000000000000000000085
:1033480000E38000C38000C30001C30001C700017F
:1033580087003FFFE03FFFE0038E00030E00030CF1
:1033680000070C00071C00061C00FFFF80FFFF8001
:103378000C38000C38001C30001C30001C70001881
:10338800700018600000000000000000000000004D
:103398000000600000600000600000600001FC00A8
:1033A80007FF000FFF001E63001C60001C60001C6C
:1033B80060001C60000E60000FE00003FC0000FFCE
:1033C8000000678000638000638000638000638082
:1033D8001867801FFF001FFE0007F800006000004C
:1033E80060000060000060000000000000000000B5
:1033F80000000000000000000000000000000000C5
:103408000000001F00003F800071C00060C0006025
:10341800C00060C00060C00071C1E03F87C01F3EAF
:103428000000F80007C0001F0F00783F806071C0DF
:103438000060C00060600060600060E00071C00073
:103448003F80000F000000000000000000000000A6
:103458000000000000000000000000000000000064
:1034680001F00007FC000FFC000F04000E00000C28
:1034780000000E00000E00000700000F80001FC0B3
:103488000039E0E030E0E07070E07038C0701CC0D7
:10349800701FC0700F807807803E0F801FFFC00F1D
:1034A800F9C003E0E0000000000000000000000098
:1034B8000000000000000000000000000000F00014
:1034C80000F00000F00000F00000F00000F0000044
:1034D800F00000F00000F000000000000000000014
:1034E80000000000000000000000000000000000D4
:1034F80000000000000000000000000000000000C4
:1035080000000000000000000000000000000000B3
:103518000000180000380000700000700000E00093
:1035280000E00000C00001C00001C00001C00001AF
:10353800C000038000038000038000038000038034
:103548000003800003800001C00001C00001C0002A
:1035580001C00000C00000E00000E00000700000B2
:103568007000003800001800000000000000000093
:103578000003000003800001800001C00000C000BB
:1035880000E00000E0000060000070000070000033
:103598007000007000007800003800003800003823
:1035A80000007000007000007000007000007000E3
:1035B80000600000E00000E00000C00001C0000161
:1035C80080000380000300000000000000000000ED
:1035D80000000000000000000000000000000000E3
:1035E8000000000000000000000000000060000073
:1035F80060000060000060007061C07C63C01E6FE6
:103608000007FC0001F00001F00007FC001E6F003D
:103618007C63C07061C00060000060000060000052
:103628006000000000000000000000000000000032
:103638000000000000000000000000000000000082
:103648000000000000000000000000000000000072
:103658006000006000006000006000006000006022
:10366800003FFFC03FFFC03FFFC000600000600098
:103678000060000060000060000060000060000062
:103688000000000000000000000000000000000032
:103698000000000000000000000000000000000022
:1036A8000000000000000000000000000000000012
:1036B8000000000000000000000000000000000002
:1036C8000000000000000000000001F00001F00010
:1036D80001F00001F00001F00001E00003E0000348
:1036E800C00003C0000380000000000000000000CC
:1036F80000000000000000000000000000000000C2
:1037080000000000000000000000000000000000B1
:1037180000000000000000000000000000000000A1
:10372800000000003FFFC03FFFC03FFFC000000097
:103738000000000000000000000000000000000081
:103748000000000000000000000000000000000071
:103758000000000000000000000000000000000061
:103768000000000000000000000000000000000051
:103778000000000000000000000000000000000041
:103788000000000000000000000000000000000031
:1037980000000003F00003F00003F00003F0000352
:1037A800F00003F00000000000000000000000002E
:1037B8000000000000000000000000038000070077
:1037C800000700000E00000E00001C00001C000096
:1037D800380000380000700000700000E00000E0D1
:1037E8000000C00001C00001C00003800003800089
:1037F8000700000700000E00000E00001C00001C5F
:103808000000380000380000000000000000000040
:103818000000000000000000000001F00007FC00AC
:103828000FFE000F1E001E0F001C07001C0F803C1F
:103838001F803C1B80383B8038738038638038E3B6
:103848008038C3803983803B83803F03803E038078
:103858001E07801C07001E0F000F1E000FFE00072A
:10386800FC0001F000000000000000000000000063
:103878000000000000000000000000000000000040
:1038880000F00003F0000FF0001F70001C70000033
:103898007000007000007000007000007000007080
:1038A80000007000007000007000007000007000E0
:1038B8000070000070000070000070000FFF800FA3
:1038C800FF800FFF800000000000000000000000E3
:1038D80000000000000000000000000000000000E0
:1038E80007F0001FFC001FFE00181F00000F00005B
:1038F8000700000700000700000700000E00000E88
:1039080000001C0000380000700000E00001C0004A
:103918000380000700000E00001C00003FFF803FEE
:10392800FF803FFF80000000000000000000000052
:10393800000000000000000000000000000000007F
:1039480007F0001FFC001FFE00181F000007000002
:103958000700000700000700001E0003FC0003F832
:103968000003FC00001F0000070000078000038020
:10397800000380000780000780301F003FFE003FE3
:10398800FC000FF000000000000000000000000034
:10399800000000000000000000000000000000001F
:1039A800001E00003E00007E00007E0000DE0000D9
:1039B800DE00019E00039E00031E00061E000E1E70
:1039C800000C1E001C1E00181E00301E003FFFC009
:1039D8003FFFC03FFFC0001E00001E00001E000089
:1039E8001E00001E00000000000000000000000093
:1039F80000000000000000000000000000000000BF
:103A08001FFE001FFE001FFE001C00001C00001C03
:103A180000001C00001C00001FF0001FFC001FFE1F
:103A280000181F00000F0000070000078000038037
:103A3800000780000700000F00301F003FFE003F16
:103A4800FC000FF000000000000000000000000073
:103A5800000000000000000000000000000000005E
:103A680000FC0003FE0007FE000F82001E00001E7F
:103A780000001C00003C000038000038F8003BFE45
:103A8800003BFF003F0F003C07803C03803C038065
:103A98001C03801C03801C07800F0F000FFF00070A
:103AA800FE0001F800000000000000000000000017
:103AB80000000000000000000000000000000000FE
:103AC8003FFF803FFF803FFF000007000007000026
:103AD8000E00000E00000C00001C00001C00003846
:103AE8000000380000780000700000700000E0005E
:103AF80000E00001E00001C00001C00003800003F5
:103B080080000780000000000000000000000000A6
:103B1800000000000000000000000000000000009D
:103B280003F80007FE000FFF001E0F001C07801C93
:103B380007801C07801C07000E0F0007FC0003F815
:103B4800000FFE001E0F001C07803803803803801A
:103B58003803803803803C07801E0F801FFF000F4A
:103B6800FE0003F800000000000000000000000054
:103B7800000000000000000000000000000000003D
:103B880003F0000FFC001FFE001E0F003C0700386A
:103B980007003803803803803807803C07801E0FF1
:103BA800801FFF800FFB8003E380000380000380F9
:103BB800000700000700000F00083E000FFC000F80
:103BC800F80007E00000000000000000000000000E
:103BD80000000000000000000000000000000000DD
:103BE80000000000000000000000000000000001CC
:103BF800F00001F00001F00001F00001F00001F018
:103C080000000000000000000000000000000000AC
:103C180000000001F00001F00001F00001F00001D7
:103C2800F00001F0000000000000000000000000AB
:103C3800000000000000000000000000000000007C
:103C480000000000000000000001F00001F0000189
:103C5800F00001F00001F00001F000000000000099
:103C68000000000000000000000000000001F0005B
:103C780001F00001F00001F00001F00001E0000394
:103C8800E00003C000038000000000000000000006
:103C9800000000000000000000000000000000001C
:103CA800000000000000000000000000000000000C
:103CB80000400003C0000FC0007F0001FC000FE0BF
:103CC800003F80007C00007C00003F00000FE00007
:103CD80001FC00007F00000FC00003C0000040008E
:103CE80000000000000000000000000000000000CC
:103CF80000000000000000000000000000000000BC
:103D080000000000000000000000000000000000AB
:103D180000000000000000007FFFC07FFFC07FFFA1
:103D2800C00000000000000000000000007FFFC08D
:103D38007FFFC07FFFC000000000000000000000FF
:103D4800000000000000000000000000000000006B
:103D5800000000000000000000000000000000005B
:103D680000000000000000000000000000000060EB
:103D780000007800007F00001FC00003F80000FE6C
:103D880000001F800007C00007C0001F8000FE0061
:103D980003F8001FC0007F000078000060000000EA
:103DA800000000000000000000000000000000000B
:103DB80000000000000000000000000000000000FB
:103DC80001F80007FC000FFE000E1F0008070000A6
:103DD8000700000700000700000E00001C00003864
:103DE8000000700000E00000E00000E00000E000DB
:103DF80000E00000000000000000E00000E000001B
:103E0800E00000E0000000000000000000000000EA
:103E18000000000000000000000000FC0003FF009C
:103E28000F07801E01801801C03800C03000C07024
:103E38003CC060FFC060E3C061C1C06180C0E18078
:103E4800C0E380C06180C06180C061C1C060E3C060
:103E580070FFC0303EC03800001C00001E00000F7C
:103E6800000007FF8001FF80000000000000000044
:103E7800000000000000000000000000000000003A
:103E880000F00001F00001F00001B80003B80003E1
:103E9800B800031C00071C00071C00070C000E0ECE
:103EA800000E0E000E06000C07001FFF001FFF008B
:103EB8001FFF803803803803803803C07801C07042
:103EC80001C07001E00000000000000000000000D8
:103ED800000000000000000000000000001FF800C3
:103EE8001FFE001FFF001C0F001C07801C03801C06
:103EF80003801C07801C0F001FFE001FFC001FFE14
:103F0800001C0F001C03801C03801C03C01C01C084
:103F18001C01C01C03C01C03801C07801FFF001F5E
:103F2800FE001FF800000000000000000000000074
:103F38000000000000000000000000000000000079
:103F4800007C0003FF0007FF800F83800F00801EA6
:103F580000001C00001C00003C00003C00003C006D
:103F6800003800003C00003C00003C00001C000041
:103F78001C00001E00000F00800F838007FF8003D5
:103F8800FF0000FC0000000000000000000000002E
:103F98000000000000000000000000000000000019
:103FA8003FE0003FF8003FFC00383E00380F003883
:103FB80007003807803803803803803803803803C7
:103FC80080380380380380380380380380380380C2
:103FD800380780380700380F00383E003FFC003FA4
:103FE800F8003FE0000000000000000000000000B2
:103FF800000000000000000000000000001FFF801B
:104008001FFF801FFF801C00001C00001C00001CFC
:1040180000001C00001C00001FFF001FFF001FFF06
:10402800001C00001C00001C00001C00001C0000FC
:104038001C00001C00001C00001C00001FFF801F4B
:10404800FF801FFF8000000000000000000000004B
:10405800000000000000000000000000000FFF80CA
:104068000FFF800FFF800E00000E00000E00000EF4
:1040780000000E00000E00000FFF000FFF000FFFF2
:10408800000E00000E00000E00000E00000E0000E2
:104098000E00000E00000E00000E00000E00000EC4
:1040A80000000E00000000000000000000000000FA
:1040B80000000000000000000000000000000000F8
:1040C80000FC0003FF0007FF000F83001E00001C18
:1040D80000003C0000380000380000380000381F9D
:1040E80080381F80381F8038038038038038038069
:1040F8003C03801C03801E03800F078007FF80039A
:10410800FF0000FC000000000000000000000000AC
:104118000000000000000000000000000000000097
:1041280038038038038038038038038038038038A8
:1041380003803803803803803FFF803FFF803FFFC4
:104148008038038038038038038038038038038040
:104158003803803803803803803803803803803878
:104168000380380380000000000000000000000009
:104178000000000000000000000000000000000037
:104188001FFF001FFF001FFF0000E00000E000000D
:10419800E00000E00000E00000E00000E00000E0D7
:1041A8000000E00000E00000E00000E00000E000A7
:1041B80000E00000E00000E00000E0001FFF001F3A
:1041C800FF001FFF000000000000000000000000CA
:1041D80000000000000000000000000000000000D7
:1041E80003FE0003FE0003FE00000E00000E0000A8
:1041F8000E00000E00000E00000E00000E00000E63
:1042080000000E00000E00000E00000E00000E0060
:10421800000E00001E00201C00383C003FFC001F60
:10422800F80007E0000000000000000000000000A7
:104238000000000000000000000000000000000076
:104248003801C0380380380700380E00381E00389F
:104258003C0038780038F00039E0003BC0003FE00F
:10426800003FE0003EF0003C7800383800383C0061
:10427800381E00380E00380F0038078038038038A1
:1042880003C03801E000000000000000000000004A
:104298000000000000000000000000000000000016
:1042A8001E00001E00001E00001E00001E00001E52
:1042B80000001E00001E00001E00001E00001E0060
:1042C800001E00001E00001E00001E00001E000050
:1042D8001E00001E00001E00001E00001FFFC01F61
:1042E800FFC01FFFC0000000000000000000000029
:1042F80000000000000000000000000000000000B6
:10430800780780780F807C0F807C0F806C1F806E10
:104318001B80661B80663B806733806333806373D2
:104328008063E38061E38061E38060C38060038031
:1043380060038060038060038060038060038060A6
:1043480003806003800000000000000000000000FF
:104358000000000000000000000000000000000055
:10436800F80380F80380FC0380FC0380FE0380FED2
:104378000380F70380F70380F38380F38380F1C31E
:1043880080F1C380F0E380F0E380F07380F0738005
:10439800F03B80F03B80F01F80F01F80F00F80F032
:1043A8000F80F007800000000000000000000000FF
:1043B80000000000000000000000000000000000F5
:1043C80001F00007FC000FFE001F0F001E07001C75
:1043D80007803C0380380380380380380380380323
:1043E800803803803803803803803803803803809E
:1043F8003C03801C07801C07001F0F000FFE0007EE
:10440800FC0001F0000000000000000000000000B7
:104418000000000000000000000000000000000094
:104428001FF8001FFE001FFF001C0F801C03801CCC
:1044380003C01C03C01C03C01C03C01C03801C0F4A
:10444800801FFF001FFE001FF8001C00001C00005A
:104458001C00001C00001C00001C00001C00001CAC
:1044680000001C0000000000000000000000000028
:104478000000000000000000000001F00007FC0040
:104488000FFE001F0F001E07001C07803C0380382A
:10449800038038038038038038038038038038036A
:1044A800803803803803803803803C03801C0780F1
:1044B8001C07001F0F000FFE0007FC0001FC000096
:1044C8001C00000E000007000000000000000000B3
:1044D80000000000000000000000000000000000D4
:1044E8003FF0003FFC003FFE00381F00380700384F
:1044F8000780380780380780380700380F003FFEEC
:10450800003FF8003FF800383C00380E00380F0034
:104518003807003807803803803803C03801C038AE
:1045280001E03800E000000000000000000000008A
:104538000000000000000000000000000000000073
:1045480001FC0007FF000FFF001E03001C000038DD
:1045580000003800003800003C00001F00000FF089
:104568000007FE0000FF00000F0000078000038026
:10457800000380000380000780100F803FFF003F8A
:10458800FE0007F800000000000000000000000026
:104598000000000000000000000000000000000013
:1045A8007FFFE07FFFE07FFFE000E00000E0000029
:1045B800E00000E00000E00000E00000E00000E0B3
:1045C8000000E00000E00000E00000E00000E00083
:1045D80000E00000E00000E00000E00000E0000073
:1045E800E00000E000000000000000000000000003
:1045F80000000000000000000000000000000000B3
:1046080038038038038038038038038038038038C3
:1046180003803803803803803803803803803803E8
:10462800803803803803803803803803803803805B
:104638003C03801C03801C07801E0F000FFF00072F
:10464800FC0001F80000000000000000000000006D
:104658000000000000000000000000000000000052
:104668007001C07801C03803C03803803803801C4B
:1046780003801C07001C07001C07000E07000E0E15
:10468800000E0E00070E00071C00071C00071C0088
:1046980003980003B80003B80001F80001F0000116
:1046A800F00000F000000000000000000000000022
:1046B80000000000000000000000000000000000F2
:1046C800E000E0E000E0E000E06000E07000E070A2
:1046D80000C070E1C070F1C071F1C071F1C031B1BA
:1046E800C031B1C039B9803B99803B1B803B1B80EE
:1046F8001B1B801F0F801E0F001E0F001E0F001EA9
:104708000F001E070000000000000000000000006D
:104718000000000000000000000000000000000091
:104728003801C03C03801C03800E07000E0F0007F1
:104738000E00079C00039C0001F80001F00000F047
:104748000000F00001F80003F800039C00071C00BB
:104758000F0E000E0F001C07001C03803803807822
:1047680001C07001E000000000000000000000002F
:104778000000000000000000000000000000000031
:104788007001C07803C03803801C07801C07000E26
:104798000E000F0E00071C00039C0003B80001F078
:1047A8000001F00000E00000E00000E00000E00090
:1047B80000E00000E00000E00000E00000E0000091
:1047C800E00000E000000000000000000000000021
:1047D80000000000000000000000000000000000D1
:1047E8001FFFC01FFFC01FFFC0000380000700009D
:1047F8000700000E00001C00001C000038000070BC
:104808000000700000E00001C00001C0000380004B
:104818000700000600000E00001C00001FFFC03F3C
:10482800FFC03FFFC00000000000000000000000C3
:1048380000007E00007E0000700000700000700024
:104848000070000070000070000070000070000030
:1048580070000070000070000070000070000070B0
:104868000000700000700000700000700000700010
:104878000070000070000070000070000070000000
:104888007000007E00007E000000000000000000B4
:1048980000000000000000000000380000380000A0
:1048A8001C00001C00000E00000E0000070000079E
:1048B800000003800003800001C00001C00000C0A8
:1048C8000000E00000E00000700000700000380008
:1048D800003800001C00001C00000E00000E000044
:1048E800070000070000038000000000000000002F
:1048F8000007E00007E00000E00000E00000E00042
:1049080000E00000E00000E00000E00000E000003F
:10491800E00000E00000E00000E00000E00000E04F
:104928000000E00000E00000E00000E00000E0001F
:1049380000E00000E00000E00000E00000E000000F
:10494800E00007E00007E0000000000000000000B1
:10495800000000000000000000000000000000004F
:1049680000E00001F00003F80007BC000F1E000E75
:104978000F001C07803803807001C0000000000091
:10498800000000000000000000000000000000001F
:10499800000000000000000000000000000000000F
:1049A80000000000000000000000000000000000FF
:1049B80000000000000000000000000000000000EF
:1049C80000000000000000000000000000000000DF
:1049D80000000000000000000000000000000000CF
:1049E80000000000000000000000000000000000BF
:1049F80000000000000000000000000000000000AF
:104A08000000000000FFFFE00000000000000000C0
:104A18000000000000000007000003800003800081
:104A280001C00000E000006000000000000000007D
:104A3800000000000000000000000000000000006E
:104A4800000000000000000000000000000000005E
:104A5800000000000000000000000000000000004E
:104A6800000000000000000000000000000000003E
:104A7800000000000000000000000000000000002E
:104A8800000000000000000000000000000000031B
:104A9800F0000FFC001FFE001C0F001007000003B1
:104AA8000000030003FF800FFF801FFF803E03808C
:104AB8003803803807803807803C1F801FFB800F31
:104AC800F38007C380000000000000000000000021
:104AD800000000000000000000000000001C0000B2
:104AE8001C00001C00001C00001C00001C00001C16
:104AF800F8001DFE001FFF001F0F001E07801C038B
:104B0800801C03801C03801C03801C03801C038002
:104B18001C03801C03801E07801F0F001FFF001D41
:104B2800FE001CF80000000000000000000000006B
:104B3800000000000000000000000000000000006D
:104B4800000000000000000000000000000000005D
:104B5800FC0003FF0007FF800F83800F00000E009A
:104B6800001C00001C00001C00001C00001C0000B1
:104B78001C00000E00000F00000F838007FF800359
:104B8800FF0000FC00000000000000000000000022
:104B98000000000000000000000000000000070006
:104BA80000070000070000070000070000070003D7
:104BB800E70007F7000FFF001E1F001C0F003C074F
:104BC80000380700380700380700380700380700A2
:104BD8003807003C07001C0F001E1F000FFF0007CE
:104BE800F70003E7000000000000000000000000DC
:104BF80000000000000000000000000000000000AD
:104C0800000000000000000000000000000000019B
:104C1800F80007FE000F0F001E07001C0380380372
:104C2800803801803FFF803FFF8038000038000057
:104C38003800003800001C00001E00000F03800729
:104C4800FF8001FE000000000000000000000000DE
:104C580000000000000000000000000000003F808D
:104C6800007F8000FF8000E00000E00000E0001FFF
:104C7800FF801FFF801FFF8000E00000E00000E0D1
:104C88000000E00000E00000E00000E00000E000BC
:104C980000E00000E00000E00000E00000E00000AC
:104CA800E00000E00000000000000000000000003C
:104CB80000000000000000000000000000000000EC
:104CC80000000003E70007F7000FFF001E1F001C8D
:104CD8000F003C070038070038070038070038077E
:104CE800003807003807003C07001C0F001E1F0093
:104CF8000FFF0007F70003E70000070000070000A8
:104D080007000C1E000FFE0000000000000000005D
:104D1800000000000000000000000000001C00006F
:104D28001C00001C00001C00001C00001C00001CD3
:104D380078001DFE001DFE001F0F001E07001C0747
:104D4800001C07001C03001C03001C03001C0300BC
:104D58001C03001C03001C03001C03001C03001C94
:104D680003001C0300000000000000000000000019
:104D780000000000000000000000000000007000BB
:104D880000700000700000700000000000000000CB
:104D9800000007F00007F0000070000070000070CD
:104DA80000007000007000007000007000007000CB
:104DB8000070000070000070000070000070000FAC
:104DC800FFC00FFFC000000000000000000000004E
:104DD800000070000070000070000070000000000B
:104DE8000000000FF0000FF0000FF000007000004E
:104DF800700000700000700000700000700000700B
:104E0800000070000070000070000070000070006A
:104E1800007000007000007000007000007000005A
:104E2800700000F0001FE00000000000000000001B
:104E3800000000000000000000000000000E00005C
:104E48000E00000E00000E00000E00000E00000E06
:104E580003800E07000E0E000E1C000E38000E70A8
:104E6800000EE0000FE0000FF0000F78000E380091
:104E78000E1C000E1E000E0F000E07000E03800E03
:104E880003C00E01C0000000000000000000000088
:104E9800000000000000000000000000000FE0001B
:104EA8000FE00000E00000E00000E00000E000008B
:104EB800E00000E00000E00000E00000E00000E0AA
:104EC8000000E00000E00000E00000E00000E0007A
:104ED80000E00000E00000600000700000780000C2
:104EE8003F80001F8000000000000000000000005C
:104EF80000000000000000000000000000000000AA
:104F08000000000000000000000000000000003366
:104F18008F003FDF803FFF8038F38038E1C030E109
:104F2800C030E1C030E1C030E1C030E1C030E1C0A4
:104F380030E1C030E1C030E1C030E1C030E1C03024
:104F4800E1C030E1C00000000000000000000000E7
:104F58000000000000000000000000000000000049
:104F68000000000000000000000000000000001C1D
:104F780078001DFE001DFE001F0F001E07001C0705
:104F8800001C07001C03001C03001C03001C03007A
:104F98001C03001C03001C03001C03001C03001C52
:104FA80003001C03000000000000000000000000D7
:104FB80000000000000000000000000000000000E9
:104FC80000000000000000000000000000000001D8
:104FD800F80007FC000FFE001F0F001C07001C074D
:104FE8008038038038038038038038038038038092
:104FF8003803801C07801C07001F0F000FFE0007E6
:10500800FC0001F8000000000000000000000000A3
:105018000000000000000000000000000000000088
:105028000000001CF8001DFE001FFF001F0F001EDF
:1050380007801C03801C03801C03801C03801C0346
:10504800801C03801C03801C03801E07801F0F0028
:105058001FFF001DFE001CF8001C00001C00001CA7
:1050680000001C00001C0000000000000000000000
:105078000000000000000000000000000000000028
:1050880000000003E30007F3000FFF001E1F001CD1
:105098000F001C07003807003807003803003803E2
:1050A800003803003807001C07001C0F001E1F00F3
:1050B8000FFF0007F30003E30000030000030000F4
:1050C80003000003000003000000000000000000CF
:1050D80000000000000000000000000000000000C8
:1050E80000000000000000000000000000000003B5
:1050F8008F8003BFC003FFC003F04003C0000380DC
:105108000003800003800003800003800003800008
:1051180003800003800003800003800003800003F5
:105128008000038000000000000000000000000074
:105138000000000000000000000000000000000067
:105148000000000000000000000000000000000156
:10515800F80007FE000FFE000E02001C00001C00F5
:10516800000E00000FE00003FC00007E00000F00AE
:105178000007000007001007001C0F001FFE000FAB
:10518800FC0003F000000000000000000000000028
:105198000000000000000000000000000000000007
:1051A80001C00001C00001C00001C00001C0003FF3
:1051B800FF003FFF003FFF0001C00001C00001C029
:1051C8000001C00001C00001C00001C00001C00012
:1051D80001C00001C00001C00001E00001FF0000A3
:1051E800FF00003F00000000000000000000000079
:1051F80000000000000000000000000000000000A7
:105208000000000000000000000000000000001C7A
:1052180003001C03001C03001C03001C03001C03E8
:10522800001C03001C03001C03001C03001C0700D7
:105238001C07001C07001E0F000E1F000FFB0007B5
:10524800F30003E30000000000000000000000007D
:105258000000000000000000000000000000000046
:1052680000000000000000000000000000000038FE
:1052780001C03803803803801C03001C07001C078A
:10528800000E06000E0E000E0E00070C00071C0094
:10529800031C0003980003B80001F80001F00001A6
:1052A800F00000F000000000000000000000000016
:1052B80000000000000000000000000000000000E6
:1052C800000000000000000000000000000000E0F6
:1052D80000E0E000E06000E07000C07001C070E134
:1052E800C070E1C030F1C039F18039B38039B38082
:1052F800199B801B1B001F1F001F1F000F0F000E94
:105308000F000E0E0000000000000000000000006A
:105318000000000000000000000000000000000085
:10532800000000000000000000000000000000383D
:1053380003801C07000E0F000E0E00071C0003B8A8
:105348000001F80001F00000E00001F00001F800A1
:1053580003B800071C000F0E000E0F001C07003CCE
:1053680003803803C00000000000000000000000B7
:105378000000000000000000000000000000000025
:105388000000003801C03803801C03801C03801C07
:1053980007000E07000E0700060E00070E00070C98
:1053A80000039C00039C0003B80001F80001F00012
:1053B80000F00000F00000E00000E00000E0000164
:1053C800C00003C0001F80000000000000000000B3
:1053D80000000000000000000000000000000000C5
:1053E8000000000000000000000000000000000FA6
:1053F800FF000FFF000FFF00000700000E00001C59
:105408000000380000300000600000E00001C0002B
:105418000380000300000600000E00001FFF001FAD
:10542800FF001FFF00000000000000000000000057
:1054380000001F00003F00007000007000007000B6
:105448000070000070000070000070000070000024
:10545800600000E00000E00001C0001F80001F8025
:105468000001C00000E00000E00000E00000700063
:1054780000700000700000700000700000700000F4
:105488007000003F00001F00000000000000000046
:1054980000007000007000007000007000007000D4
:1054A80000700000700000700000700000700000C4
:1054B8007000007000007000007000007000007044
:1054C80000007000007000007000007000007000A4
:1054D8000070000070000070000070000070000094
:1054E8007000007000007000000000000000000064
:1054F800001F00001FC00001C00000E00000E00025
:1055080000E00000E00000E00000E00000E0000033
:10551800E00000E00000F000007800001F80001F9D
:105528008000780000F00000E00000E00000E000EB
:1055380000E00000E00000E00000E00000E0000102
:10554800C0001FC0001F0000000000000000000095
:105558000000000000000000000000000000000043
:105568000000000000000000000000000000000033
:1055780000000000000000000E00001F80003F80B7
:105588000071C04060E0E0E0F0E04079C0003F809A
:10559800001F80000E000000000000000000000056
:1055A80000000000000000004453504C414200003D
:1055B80000000000000000000102030406070809BB
:1055C8000000000001020304030406080C10182060
:0455D800300000009F
:0855DC0084ACFF7F0100000018
:0455E400E9000008D2
:0455E800C1000008F6
:1055EC0010320008140020000000200010000020E1
:1055FC00000000000000000000000000000000009F
:10560C00000000000000000000000000000000008E
:10561C00000000000000000000000000000000007E
:10562C00000000000000000000000000000000006E
:10563C00000000000000000000000000000000005E
:10564C00000000000000000000000000000000004E
:0400000508002FEDD3
:00000001FF
